:020000040800F2
:10000000E006002071300008390300083B030008B7
:100010003F030008430300084703000800000000F6
:100020000000000000000000000000004B0300087A
:100030004D030008000000004F03000851030008B2
:10004000190600088B3000088B3000088B30000840
:100050008B3000088B300008852B00088B3000089F
:100060008B3000088B3000088B3000088B30000884
:100070008B3000088B3000088B3000088B30000874
:100080008B3000088B3000088B3000088B30000864
:100090008B3000088B3000088B3000088B30000854
:1000A0008B3000088B3000088B3000088B30000844
:1000B0008B3000089F0600088B3000088B3000084A
:1000C0008B3000088B3000088B3000088B30000824
:1000D0008B300008E52F00088B3000088B300008BB
:1000E0008B3000088B3000088B30000800F002F8DD
:1000F00000F03FF80AA090E8000C82448344AAF183
:100100000107DA4501D100F034F8AFF2090EBAE880
:100110000F0013F0010F18BFFB1A43F0010318473B
:10012000605D0000805D0000103A24BF78C878C18F
:10013000FAD8520724BF30C830C144BF04680C60ED
:10014000704700000023002400250026103A28BF35
:1001500078C1FBD8520728BF30C148BF0B60704739
:10016000782904F03D86002070471FB51FBD10B5EB
:1001700010BD04F0F1FE1146FFF7F7FF00F008F89C
:1001800004F00FFF03B4FFF7F2FF03BC02F0D0FE50
:1001900008B500F04DF9482002F070FE02F0C2FEF2
:1001A0004FF4165002F0D2FE00F0C2F900F052FDFA
:1001B0004FF478403A4908803AA232213C2002F0BC
:1001C00077FC3BA246213C2002F072FC3CA25A2163
:1001D0003C2002F06DFC3EA26E213C2002F068FC47
:1001E00019E03EA282213C2002F062FC4FF4FA703A
:1001F00002F05DFE3FA282213C2002F059FC4FF448
:10020000FA7002F054FE4148006808B9012000E08D
:1002100000203E49086002F0C8FD0028E1D13CA260
:1002200082213C2002F044FC1F201D4908803DA291
:1002300096213C2002F03CFC31E002F0D1FD044666
:10024000002C09DA604204B2002010232D229621EE
:1002500000908C2002F016FB0A2094FBF0F5102091
:1002600002232A4696210090942002F0A9FB0A203E
:1002700094FBF0F100FB1145102001232A46962142
:100280000090AC2002F09CFBC82002F010FE1F483A
:10029000006808B9012000E000201C490860CCE794
:1002A000140000204D696E692053544D3332000014
:1002B000445331384232302054455354000000003A
:1002C00041544F4D40414C49454E54454B00000070
:1002D000323031312F312F3100000000445331389A
:1002E00042323020436865636B204661696C656407
:1002F00021000000506C6561736520436865636B85
:10030000212020202020202020000000A0012142C8
:1003100044533138423230205265616479212020C3
:100320002020200054656D7065726174653A20204C
:10033000202E204300000000704700BFFEE700BFF2
:10034000FEE700BFFEE700BFFEE77047704770475B
:10035000704700000CB50020019000906B480068C9
:1003600040F480306949086000BF6848006800F4C4
:10037000003000900198401C0190009818B9019835
:10038000B0F5A06FF1D16148006810F4003F02D0D1
:100390000120009001E0002000900098012842D147
:1003A0005B48006840F01000594908600846006842
:1003B00020F0030008600846006840F00200086072
:1003C00052484068514948600846406848600846BD
:1003D000406840F4806048600846406820F47C1023
:1003E00048600846406840F4E810486008460068E5
:1003F00040F08070086000BF4448006810F0007F43
:10040000FAD04248406820F003004049486008465E
:10041000406840F00200486000BF3C48406800F07F
:100420000C000828F9D10CBD10B5FFF793FF10BDE3
:1004300010B53648006840F00100344908600846AD
:1004400040683449084031494860084600683249EC
:1004500008402E4908600846006820F480200860A3
:100460000846406820F4FE0048604FF41F00886092
:10047000FFF7DAFF4FF000602849086010BD10B5A3
:10048000002100200022214B5B6803F00C0121B108
:10049000042906D0082928D107E0214B214C2360EC
:1004A00027E01F4B1F4C236023E0184B5B6803F4CD
:1004B0007010164B5B6803F48032022303EB90400C
:1004C00022B9194B4343174C23600DE00F4B5B6877
:1004D00013F4003F04D0144B4343124C236003E059
:1004E0000F4B43430F4C236003E00D4B0D4C236037
:1004F00000BF00BF054B5B68C3F303130B4CE15C0B
:10050000084B1B68CB40074C236010BD0010024015
:10051000002002400000FFF8FFFFF6FE08ED00E0BB
:1005200000127A000000002000093D0004000020B5
:1005300008B50121042003F053FA4FF48070ADF8A0
:10054000000010208DF8030003208DF8020069469A
:100550000E4802F009FF4FF480710C4802F0AFFF23
:100560000121202003F03CFA0420ADF80000102007
:100570008DF8030003208DF802006946044802F05C
:10058000F3FE0421024802F09AFF08BD0008014072
:100590000014014070B505460C4645F2555003F075
:1005A0002FF8284603F02FF8204603F02FF803F029
:1005B00030F803F033F870BD10B503F02AF810BD21
:1005C00008B500208DF8000002208DF801000320FE
:1005D0008DF80200684602F070FD08BD70B5064651
:1005E0000C4615460121C80203F007FA284604F01C
:1005F0007CFB204604F082FB304604F09AFB04F0BA
:10060000A3FBFFF7DDFF04F08AFB70BD10B50446C5
:10061000204604F08EFB10BD10B57F2004F083FB54
:1006200004F092FB0448006808B9012000E00020B3
:100630000149086010BD0000888122427FB5044650
:100640000D460121022003F0D8F941F28830ADF8BF
:10065000080041F61F40ADF804000020ADF80A0084
:10066000ADF8060001A9174803F0F6FA012241216E
:10067000144803F068FE1D208DF8000000208DF85E
:10068000010003208DF8020001208DF80300684668
:1006900002F013FD01210B4803F03AFE7FBD10B5B7
:1006A0000121084804F0FDF858B10121054804F083
:1006B00009F90548006808B9012000E00020024956
:1006C000086010BD00040040888122424FF4807110
:1006D000FE4A516149005161FD4908608021516124
:1006E000116189001161704710B54FF08830F849E9
:1006F0000C390860091D08600020F549086088155C
:10070000F24908614000486140204861F148008892
:10071000A0F50941893902D1022002F0E3FB402013
:10072000EA490861EA48001F006884B24815086178
:100730004FF03330E6490C390860091D08604FF668
:10074000FF70E3490860204610BD10B504460B4613
:100750002046FFF7BBFF4FF48070DC490861400082
:100760004861DB48036080204861086180000861BF
:1007700010BD10B504462046FFF7A8FFFFF7B4FFF1
:1007800010BD00B5D3480088A0F51341413903D10D
:100790002C20FFF79BFF02E02220FFF797FF00BD10
:1007A0004FF48071C94A116149005161C84908601C
:1007B00080215161116189001161704730B5014696
:1007C00001F01F04C1F34513CA0AE50205EB431506
:1007D0001544A8B230BD2DE9F04105460E46F02D76
:1007E00002DAB6F5A07F02DB0020BDE8F0813146D9
:1007F000284604F0E1FBB7480088A0F513414139D1
:1008000003D12E20FFF762FF02E02220FFF75EFFF8
:100810004FF08830AE490C390860091D08604FF66A
:10082000FF70AB4908608815A8490861400048611D
:100830004020486108614861A6480088A0F5094148
:10084000893902D1022002F04DFB40209F49086106
:100850009F48001F006884B29E480088A0F513419D
:1008600041390DD140209949486108619848001FDD
:1008700000681FFA80F8E7B24FF6FF7000EA07271A
:100880004FF40070914908614FF0333090490C39B2
:100890000860091D08604FF6FF708D4908608D489B
:1008A0000088A0F58A41353911D08A480088A0F522
:1008B0008A4131390BD087480088A0F50941893930
:1008C00005D084480088A0F53541053901D120467E
:1008D0008BE780480088A0F51341413907D1E01229
:1008E000C002B91240EA411040EAE8207DE7204604
:1008F000FFF764FF79E700B576480088A0F513415B
:10090000413903D12920FFF7E1FE04E040F27311E1
:100910000720FFF71AFF00BD00B56E480088A0F55C
:100920001341413903D12820FFF7D0FE03E0002115
:100930000720FFF70AFF00BD70B50546002400261A
:1009400064480088A0F5134141397DD1082D1CD29F
:10095000DFE805F00406090C0F12151800BF14E0BB
:1009600044F0800411E044F040040EE044F0C00480
:100970000BE044F0200408E044F0600405E044F09B
:10098000A00402E044F0E00400BF00BF362644F0BB
:10099000080421463046FFF7D8FE14F0200F75D02A
:1009A0002A20FFF793FE4FF4807048490861400009
:1009B0004861002046490860802044494861086138
:1009C00080000861401008614000486100204049F3
:1009D000086080203D49486108618000086140103E
:1009E000086140004861012039490860802037498A
:1009F000486108618000086140100861400048615A
:100A00003F203349086080203049486108618000F8
:100A100008612B20FFF75AFE4FF480702B490861C4
:100A20004000486100202A49086080202749486129
:100A300008618000086140100861400048610020A2
:100A400023490860802000E09AE02049486108615D
:100A500080000861401008614000486100201C4986
:100A600008608020194948610861800008614010D1
:100A7000086140004861EF20154908608020134953
:100A80004861086180000861ACE0FFE72A20FFF7B9
:100A90001DFE4FF480700D49086140004861002040
:100AA0000B4908608020094948610861800008619D
:100AB000401008614000486100200549086080201E
:100AC0000249486108618000086105E000100140AA
:100AD0000C0C0140180000204010086140004861E3
:100AE0000020FE4908608020FD49486108618000BF
:100AF00008614010086140004861EF20F749086034
:100B00008020F74948610861800008612B20FFF7C9
:100B1000DDFD4FF48070F24908614000486100201B
:100B2000EE4908608020EE49486108618000086154
:100B300040100861400048610020E84908608020BA
:100B4000E749486108618000086140100861400081
:100B500048610120E14908608020E149486108615D
:100B60008000086140100861400048613F20DB4977
:100B700008608020DA49486108618000086131E03E
:100B8000082D1CD2DFE805F004070A0D0F12151816
:100B900044F0300413E044F0100410E044F020046A
:100BA0000DE000BF0BE044F0380408E044F02804F6
:100BB00005E044F0180402E044F0080400BF00BF60
:100BC000C8480088A0F50941893904D1112646F2A8
:100BD0004000044302E0032644F48054214630469A
:100BE000FFF7B3FD70BD70B504460D46294620469B
:100BF00004F0E2F9FFF7C5FD4FF48070B8490861D1
:100C000040004861B8480088B44908608020B44971
:100C1000486108618000086170BD70B50446002518
:100C20000021084604F0C8F9FFF7ABFD00BF0DE056
:100C30004FF48070AA49086140004861A7480460E9
:100C4000802048610861800008616D1CB5F5963F01
:100C5000EED370BD08B50121192002F0C1FE0121BB
:100C6000A24802F050FC4FF4F860ADF800001020EC
:100C70008DF8030003208DF802006946984802F0C1
:100C800073FB4FF4F861964802F019FC4FF6FF70C1
:100C9000ADF80000694691480C3802F065FB4FF64C
:100CA000FF718E480C3802F00AFC322002F0FFF887
:100CB00001210020FFF749FD322002F0F8F8002062
:100CC000FFF757FD874908800846008828B1084685
:100CD0000088A0F57F41FF391BD1D320FFF7F6FC38
:100CE000FFF702FDFFF700FDFFF7FEFC00F0BF007D
:100CF0007C490880084600884FF6FF7101EA002011
:100D000078490880FFF7F0FC76490988084375495F
:100D100008807448018876A004F022F871480088A1
:100D2000A0F5134141397DD1CF20FFF7CFFC4FF41F
:100D300080706B4908614000486100206749086085
:100D4000802067494861086180000861401008619F
:100D500040004861C12061490860802060494861C5
:100D6000086180000861401008614000486130203F
:100D70005A49086080205A4948610861800008612A
:100D8000ED20FFF7A3FC4FF4807055490861400047
:100D900048616420514908608020514948610861D8
:100DA00080000861401008614000486103204B4901
:100DB000086080204A49486108618000086140104D
:100DC000086140004861122044490860802044497D
:100DD0004861086180000861401008614000486176
:100DE00081203E49086080203D49486108618000BB
:100DF0000861E820FFF76AFC4FF480703849086109
:100E000040004861852035490860802034494861A8
:100E100008618000086140100861400048611020AE
:100E20002E4900E08AE3086080202D49486108616E
:100E30008000086140100861400048617A2027491D
:100E40000860802026494861086180000861CB2045
:100E5000FFF73CFC4FF48070214908614000486175
:100E600039201E49086080201D49486108618000C2
:100E7000086140100861400048612C201749086053
:100E800080201749486108618000086140100861AE
:100E900040004861002011490860802010494861E5
:100EA00008618000086140100861400048613420FA
:100EB0000A49086080200A49486108618000086189
:100EC0004010086140004861022004490860802009
:100ED0000349486108618000086111E00C0C014081
:100EE0000010014018000020140000200002300013
:100EF000204C43442049443A25780D0A0000000064
:100F0000F720FFF7E3FB4FF48070FE4908614000D3
:100F100048612020FC4908608020FA494861086146
:100F200080000861EA20FFF7D1FB4FF48070F5499B
:100F30000861400048610020F34908608020F149C1
:100F40004861086180000861401008614000486104
:100F50000020ED4908608020EA494861086180006E
:100F60000861C020FFF7B2FB4FF48070E5490861CB
:100F7000400048611B20E44908608020E149486145
:100F8000086180000861C120FFF7A0FB4FF480706A
:100F9000DC490861400048610120DB49086080208D
:100FA000D8494861086180000861C520FFF78EFBC1
:100FB0004FF48070D3490861400048613020D24925
:100FC00008608020CF4948610861800008614010B6
:100FD0000861400048613020CB4908608020C94941
:100FE0004861086180000861C720FFF76FFB4FF47C
:100FF0008070C449086140004861B720C249086058
:101000008020C04948610861800008613620FFF7F0
:101010005DFB4FF48070BB49086140004861482087
:10102000B94908608020B7494861086180000861BB
:101030003A20FFF74BFB4FF48070B2490861400043
:1010400048615520B04908608020AE494861086178
:1010500080000861B120FFF739FB4FF48070A94987
:101060000861400048610020A74908608020A54928
:1010700048610861800008614010086140004861D3
:101080001A20A149086080209E49486108618000BB
:101090000861B620FFF71AFB4FF480709949086188
:1010A000400048610A2098490860802095494861BD
:1010B0000861800008614010086140004861A2207A
:1010C0009149086080208F4948610861800008616B
:1010D000F220FFF7FBFA4FF480708A490861400064
:1010E000486100208849086080208649486108617D
:1010F000800008612620FFF7E9FA4FF480708149EB
:1011000008614000486101207F49086080207D49D6
:101110004861086180000861E020FFF7D7FA4FF4CA
:10112000807078490861400048610F207649086066
:10113000802074494861086180000861401008619E
:10114000400048612A207049086080206D4948614C
:101150000861800008614010086140004861282053
:10116000694908608020674948610861800008611A
:1011700040100861400048610820634908608020F1
:1011800060494861086180000861401008614000C2
:1011900048610E205C49086080205A494861086116
:1011A00080000861401008614000486108205649ED
:1011B0000860802053494861086180000861401040
:1011C00008614000486154204F49086080204D4923
:1011D0004861086180000861401008614000486172
:1011E000A92049490860802046494861086180007B
:1011F000086140100861400048614320424908608E
:101200008020404948610861800008614010086101
:10121000400048610A203C49086080203949486103
:1012200008618000086140100861400048610F209B
:1012300035490860802033494861086180000861B1
:10124000401008614000486100202F49086080205C
:101250002C49486108618000086140100861400025
:1012600048610020284908608020264948610861BB
:101270008000086140100861400048610020224958
:10128000086080201F4948610861800008614010A3
:1012900008614000486100201B490860802019490E
:1012A0004861086180000861E120FFF70FFA4FF400
:1012B00080701449086140004861002012490860AC
:1012C0008020104948610861800008614010086171
:1012D0004000486115200C49086080200949486198
:1012E00008618000086140100861400048611720D3
:1012F0000549086080200349486108618000086151
:10130000401003E0001001400C0C01400861400057
:1013100048610720F84908608020F8494861086161
:101320008000086140100861400048611120F249C6
:1013300008608020F1494861086180000861401020
:101340000861400048610620EB4908608020EB49B5
:1013500048610861800008614010086140004861F0
:101360002B20E54908608020E4494861086180003D
:10137000086140100861400048615620DE4908605D
:101380008020DE49486108618000086140100861E2
:10139000400048613C20D84908608020D749486116
:1013A0000861800008614010086140004861052024
:1013B000D14908608020D1494861086180000861F6
:1013C00040100861400048611020CB49086080202F
:1013D000CA49486108618000086140100861400006
:1013E00048610F20C44908608020C44948610861F1
:1013F0008000086140100861400048613F20BE49FC
:1014000008608020BD494861086180000861401083
:101410000861400048613F20B74908608020B74913
:10142000486108618000086140100861400048611F
:101430000F20B14908608020B049486108618000F0
:1014400008612B20FFF742F94FF48070AB49086127
:10145000400048610020A84908608020A7494861F1
:101460000861800008614010086140004861002068
:10147000A14908608020A149486108618000086195
:10148000401008614000486101209B4908608020AD
:101490009A49486108618000086140100861400075
:1014A00048613F2094490860802094494861086160
:1014B000800008612A20FFF709F94FF480708F49F6
:1014C00008614000486100208B49086080208B49FA
:1014D000486108618000086140100861400048616F
:1014E00000208549086080208449486108618000A7
:1014F0000861401008614000486100207E49086092
:1015000080207E49486108618000086140100861C0
:1015100040004861EF2078490860802077494861A1
:101520000861800008611120FFF7D0F8782001F0F1
:10153000BEFC2920FFF7CAF801F090B87048008877
:10154000A0F5134125397DD147F6F001E520FFF7DD
:10155000FCF84FF480710120FFF7F7F84FF4E061D9
:101560000220FFF7F2F841F230010320FFF7EDF817
:1015700000210420FFF7E9F840F202210820FFF7DC
:10158000E4F800210920FFF7E0F800210A20FFF726
:10159000DCF800210C20FFF7D8F800210D20FFF720
:1015A000D4F800210F20FFF7D0F800211020FFF71A
:1015B000CCF807211120FFF7C8F800211220FFF70F
:1015C000C4F800211320FFF7C0F800210720FFF71F
:1015D000BCF841F290611020FFF7B7F840F22721E4
:1015E0001120FFF7B2F89D211220FFF7AEF84FF45B
:1015F000C8511320FFF7A9F825212920FFF7A5F8E6
:101600000D212B20FFF7A1F807213020FFF79DF8CF
:1016100040F203313120FFF798F803213220FFF721
:1016200094F840F206213520FFF78FF80821362084
:10163000FFF78BF840F206413720FFF786F84FF4AA
:10164000417100E05EE03820FFF77FF80721392084
:10165000FFF77BF840F202613C20FFF776F80821A3
:101660003D20FFF772F800215020FFF76EF8EF21C0
:101670005120FFF76AF800215220FFF766F840F288
:101680003F115320FFF761F84FF427416020FFF727
:101690005CF801216120FFF758F800216A20FFF76C
:1016A00054F800218020FFF750F800218120FFF737
:1016B0004CF800218220FFF748F800218320FFF733
:1016C00044F800218420FFF740F800218520FFF72F
:1016D0003CF810219020FFF738F84FF4C0619220B9
:1016E000FFF733F840F233110720FFF72EF82221DD
:1016F0000020FFF72AF81FE70C0C01400010014002
:1017000018000020FE480088A0F5134128397DD13B
:101710001021E720FFF719F801210020FFF715F845
:101720004FF480710120FFF710F84FF4E0610220C0
:10173000FFF70BF841F230010320FFF706F8002114
:101740000420FFF702F840F207210820FEF7FDFF12
:1017500000210920FEF7F9FF00210A20FEF7F5FF1E
:1017600001210C20FEF7F1FF00210D20FEF7EDFF17
:1017700000210F20FEF7E9FF00211020FEF7E5FF12
:1017800007211120FEF7E1FF00211220FEF7DDFF07
:1017900000211320FEF7D9FF322001F088FB41F22F
:1017A00090511020FEF7D1FF40F227211120FEF7C3
:1017B000CCFF322001F07BFB9C211220FEF7C5FFFD
:1017C000322001F074FB4FF4C8511320FEF7BDFF27
:1017D00023212920FEF7B9FF0E212B20FEF7B5FFAC
:1017E000322001F064FB00212020FEF7AEFF40F222
:1017F0003F112120FEF7A9FF322001F058FB0721FD
:101800003020FEF7A2FF40F2077100E087E03120B0
:10181000FEF79BFF06213220FEF797FF40F204718E
:101820003520FEF792FF41F604713620FEF78DFF5A
:1018300004213720FEF789FF00213820FEF785FFBD
:1018400040F206713920FEF780FF40F201713C2022
:10185000FEF77BFF0F213D20FEF777FF322001F0DE
:1018600026FB00215020FEF770FFEF215120FEF7EC
:101870006CFF00215220FEF768FF40F23F11532019
:10188000FEF763FF4FF427416020FEF75EFF012162
:101890006120FEF75AFF00216A20FEF756FF002163
:1018A0008020FEF752FF00218120FEF74EFF00212D
:1018B0008220FEF74AFF00218320FEF746FF002129
:1018C0008420FEF742FF00218520FEF73EFF102115
:1018D0009020FEF73AFF00219220FEF736FF032109
:1018E0009320FEF732FF4FF488719520FEF72DFF0D
:1018F00000219720FEF729FF00219820FEF725FF01
:1019000040F233110720FEF720FF00212020FEF7D0
:101910001CFF40F23F112120FEF717FF0CE678482C
:101920000088A0F51341203904D075480088B0F52F
:10193000134F7DD100210846FEF707FF4FF4807159
:101940000120FEF702FF4FF4E0610220FEF7FDFEEA
:1019500041F230010320FEF7F8FE00210420FEF7DB
:10196000F4FE40F202210820FEF7EFFE00210920DC
:10197000FEF7EBFE00210A20FEF7E7FE01210C2016
:10198000FEF7E3FE00210D20FEF7DFFE00210F2011
:10199000FEF7DBFE322001F08AFA40F20111072047
:1019A000FEF7D3FE322001F082FA4FF48651102068
:1019B000FEF7CBFE07211120FEF7C7FE4FF488711A
:1019C0001220FEF7C2FE4FF430611320FEF7BDFE79
:1019D00000212920FEF7B9FE44F210012B20FEF76A
:1019E000B4FE00215020FEF7B0FEEF215120FEF79B
:1019F000ACFE00215220FEF7A8FE40F23F1153201A
:101A0000FEF7A3FE4FF41C516020FEF79EFE01215D
:101A10006120FEF79AFE00216A20FEF796FE002163
:101A20008020FEF792FE00218120FEF78EFE00E06E
:101A30002EE000218220FEF788FE00218320FEF7A1
:101A400084FE00218420FEF780FE00218520FEF721
:101A50007CFE10219020FEF778FE00219220FEF7F8
:101A600074FE01219320FEF770FE4FF488719520DB
:101A7000FEF76BFE00219720FEF767FE00219820FD
:101A8000FEF763FE40F273110720FEF75EFE53E59A
:101A90001B480088A0F5A84108397DD14FF480711A
:101AA0000120FEF752FE4FF4E0610220FEF74DFEEA
:101AB00041F230010320FEF748FE00210420FEF72A
:101AC00044FE40F207210820FEF73FFE00210920D6
:101AD000FEF73BFE00210A20FEF737FE00210C2016
:101AE000FEF733FE00210D20FEF72FFE00210F2010
:101AF000FEF72BFE142001F0DAF941F2B06101E0AB
:101B0000180000201020FEF720FE01211120FEF712
:101B10001CFE01211720FEF718FE4FF49C711220C5
:101B2000FEF713FE4FF400611320FEF70EFE0921AD
:101B30002920FEF70AFE09212A20FEF706FE0021D1
:101B4000A420FEF702FE00215020FEF7FEFDEF214B
:101B50005120FEF7FAFD00215220FEF7F6FD40F27B
:101B60003F115320FEF7F1FD4FF41C516020FEF7AA
:101B7000ECFD01216120FEF7E8FD00216A20FEF75F
:101B8000E4FD00218020FEF7E0FD00218120FEF72A
:101B9000DCFD0021822000E027E0FEF7D6FD0021D9
:101BA0008320FEF7D2FD00218420FEF7CEFD002128
:101BB0008520FEF7CAFD13219020FEF7C6FD002107
:101BC0009220FEF7C2FD03219320FEF7BEFD4FF4E5
:101BD00088719520FEF7B9FD40F273110720FEF7DA
:101BE000B4FD322001F063F9A6E4FE480088A0F5B8
:101BF000A85105397ED10720FEF7A7FD322001F05C
:101C000056F94FF48E711220FEF79FFD0121A4209A
:101C1000FEF79BFD0F210820FEF797FD08210A2003
:101C2000FEF793FD08210D20FEF78FFD40F20771AE
:101C30003020FEF78AFD07213120FEF786FD40F2B5
:101C400003613220FEF781FD4FF4E0613320FEF79F
:101C50007CFD40F202213420FEF777FD0221352081
:101C6000FEF773FD41F60F713620FEF76EFD40F270
:101C700007713720FEF769FD00213820FEF765FD6A
:101C800000213920FEF761FD40F207713A20FEF78E
:101C90005CFD00213B20FEF758FD07213C20FEF7AC
:101CA00054FD00213D20FEF750FD322001F0FFF8E9
:101CB00001210720FEF749FD01211720FEF745FD10
:101CC000322001F0F4F84FF4BD511020FEF73DFD35
:101CD00040F217211120FEF738FD4FF48F711220CA
:101CE000FEF733FD4FF470611320FEF72EFD002147
:101CF0002A2000E093E0FEF728FD0A212920FEF7C4
:101D000024FD4FF49F711220FEF71FFD002150208B
:101D1000FEF71BFDEF215120FEF717FD0021522099
:101D2000FEF713FD40F23F115320FEF70EFD4FF476
:101D30001C516020FEF709FD01216120FEF705FD21
:101D400000216A20FEF701FD00218020FEF7FDFC46
:101D500000218120FEF7F9FC00218220FEF7F5FC2E
:101D600000218320FEF7F1FC00218420FEF7EDFC2A
:101D700000218520FEF7E9FC13219020FEF7E5FC09
:101D80004FF440719220FEF7E0FC05219320FEF70E
:101D9000DCFC00219520FEF7D8FC00219720FEF7FF
:101DA000D4FC00219820FEF7D0FC4FF48071012074
:101DB000FEF7CBFC4FF4E0610220FEF7C6FC41F2D7
:101DC00030010320FEF7C1FC00210420FEF7BDFC1A
:101DD00000210C20FEF7B9FC00210F20FEF7B5FC16
:101DE00000212020FEF7B1FC00212120FEF7ADFCF0
:101DF00021210720FEF7A9FC142001F058F86121E9
:101E00000720FEF7A2FC142001F051F840F27311F4
:101E10000720FEF79AFC142001F049F86BE47148A2
:101E20000088A0F5354105397DD10846FEF78DFCC7
:101E300000210846FEF789FC00210846FEF785FCD4
:101E400000210846FEF781FC0121A420FEF77DFC5D
:101E5000142001F02CF84FF41C516020FEF775FCA3
:101E600040F202210820FEF770FC4FF4057130208B
:101E7000FEF76BFC43F215713120FEF766FC40F271
:101E800004613220FEF761FC40F616613320FEF754
:101E90005CFC42F211213420FEF757FC4FF4A851AC
:101EA0003520FEF752FC48F207513620FEF74DFC74
:101EB00041F207413720FEF748FC41F20341382048
:101EC000FEF743FC20213920FEF73FFC1A21902029
:101ED000FEF73BFC00211020FEF737FC0721112004
:101EE000FEF733FC00211220FEF72FFC0021132007
:101EF000FEF72BFC142000F0DAFF4FF4E66110200F
:101F0000FEF723FC40F237111120FEF71EFC1420CF
:101F100000F0CDFF4FF4DC711220FEF716FC142008
:101F200000F0C5FF00E086E04FF470611320FEF77B
:101F30000CFC80212A20FEF708FC48212920FEF70E
:101F400004FC142000F0B3FF4FF480710120FEF771
:101F5000FCFB4FF4E0610220FEF7F7FB41F2302179
:101F60000320FEF7F2FB40F202210820FEF7EDFB12
:101F700000210A20FEF7E9FB00210C20FEF7E5FB1B
:101F800000210D20FEF7E1FB30210E20FEF7DDFBE6
:101F900000215020FEF7D9FBEF215120FEF7D5FBA1
:101FA00000215220FEF7D1FB40F23F115320FEF7F3
:101FB000CCFB4FF41C516020FEF7C7FB01216120D0
:101FC000FEF7C3FB00216A20FEF7BFFB1121902022
:101FD000FEF7BBFB4FF4C0619220FEF7B6FB40F268
:101FE000024101E0180000209320FEF7AEFB022121
:101FF0009420FEF7AAFB142000F059FF01210720CE
:10200000FEF7A3FB142000F052FF61210720FEF72A
:102010009CFB40F273110720FEF797FB0021202064
:10202000FEF793FB00212120FEF78FFB22210020E9
:10203000FEF78BFB12E3FE480088A0F54541053909
:102040007DD10846FEF781FB00210846FEF77DFBA7
:10205000142000F02CFF00210846FEF776FB00213B
:102060000846FEF772FB00210846FEF76EFB0021D2
:102070000846FEF76AFB0121A420FEF766FB142048
:1020800000F015FF4FF41C516020FEF75EFB40F698
:1020900006010820FEF759FB40F203713020FEF7DD
:1020A00054FB01213120FEF750FB04213220FEF7C2
:1020B0004CFB4FF481713320FEF747FB4FF4407126
:1020C0003420FEF742FB40F203113520FEF73DFBC2
:1020D0001F213620FEF739FB40F203713720FEF74F
:1020E00034FB01213820FEF730FB04213920FEF7B4
:1020F0002CFB15219020FEF728FB4FF48261102065
:10210000FEF723FB40F247211120FEF71EFB4FF4A0
:10211000DE711220FEF719FB4FF460611320FEF709
:1021200014FB782000F0C3FE4FF480710120FEF70D
:102130000CFB4FF400710220FEF707FB00E050E0BB
:1021400041F230010320FEF700FB08210A20FEF7D0
:10215000FCFA00210C20FEF7F8FA20210E20FEF7F1
:10216000F4FA00210F20FEF7F0FA00212020FEF7FC
:10217000ECFA00212120FEF7E8FA3D212A20FEF7A3
:10218000E4FA142000F093FE2D212920FEF7DDFA59
:1021900000215020FEF7D9FA4DF2EF015120FEF751
:1021A000D4FA00215220FEF7D0FA40F23F1153201A
:1021B000FEF7CBFA00216120FEF7C7FA00216A2062
:1021C000FEF7C3FA4FF440719220FEF7BEFA0521E4
:1021D0009320FEF7BAFA4FF480710720FEF7B5FAA4
:1021E0003CE293480088A0F5094189397DD101215D
:1021F0000020FEF7AAFA4AF6A4010320FEF7A5FA8A
:1022000000210C20FEF7A1FA40F60C010D20FEF78C
:102210009CFA4FF42C510E20FEF797FAB0211E20A5
:10222000FEF793FA42F63F310120FEF78EFA4FF4A3
:10223000C0610220FEF789FA00211020FEF785FA1E
:1022400046F270011120FEF780FA00210520FEF70A
:102250007CFA00210620FEF778FA4EF61C71162053
:10226000FEF773FA03211720FEF76FFA40F23321CD
:102270000720FEF76AFA00210B20FEF766FA00211C
:102280000F20FEF762FA00214120FEF75EFA0021DE
:102290004220FEF75AFA00214820FEF756FA40F293
:1022A0003F114920FEF751FA00214A20FEF74DFA6E
:1022B00000214B20FEF749FA4FF46F414420FEF70E
:1022C00044FA00214520FEF740FA40F23F11462033
:1022D000FEF73BFA40F207713020FEF736FA4FF472
:1022E00001713120FEF731FA00E03DE04FF4017159
:1022F0003220FEF72AFA40F202513320FEF725FA87
:1023000040F207513420FEF720FA4FF401713520D6
:10231000FEF71BFA4FF401713620FEF716FA40F271
:1023200002513720FEF711FA40F202313A20FEF74F
:102330000CFA40F202313B20FEF707FA002123207D
:10234000FEF703FA00212420FEF7FFF94FF40041C5
:102350002520FEF7FAF900214F20FEF7F6F90021BB
:102360004E20FEF7F2F979E131480088A0F58A4164
:1023700031397CD101210020FEF7E7F90A2000F075
:1023800096FD41F228611020FEF7DFF90E211220A0
:10239000FEF7DBF940F639211320FEF7D6F90A20C3
:1023A00000F085FD40211120FEF7CFF950211520C6
:1023B000FEF7CBF90A2000F07AFD1E211220FEF76D
:1023C000C4F90A2000F073FD4FF4B1511020FEF75C
:1023D000BCF942F639211320FEF7B7F90A2000F0C4
:1023E00066FD4FF480710120FEF7AFF94FF44071A4
:1023F0000220FEF7AAF941F230010320FEF7A5F909
:1024000040F202210820FEF7A0F908210A20FEF779
:102410009CF900213020FEF798F940F2024131206A
:10242000FEF793F94FF483713220FEF78EF901E045
:102430001800002040F203513320FEF786F94FF4D4
:1024400082713420FEF781F940F201313520FEF728
:102450007CF940F207713620FEF777F940F205313A
:102460003720FEF772F94FF40271382000E040E0A7
:10247000FEF76BF940F60B713920FEF766F9022181
:102480004120FEF762F94FF41C516020FEF75DF920
:1024900001216120FEF759F94FF404719020FEF7F5
:1024A00054F94FF485719220FEF74FF904219320DF
:1024B000FEF74BF94FF48071A020FEF746F9012199
:1024C0000720FEF742F921210720FEF73EF92321DC
:1024D0000720FEF73AF933210720FEF736F940F2DC
:1024E00033110720FEF731F90021A020FEF72DF966
:1024F000B4E0FA480088A0F58A413539F8D1302196
:102500001520FEF722F910219A20FEF71EF920214E
:102510001120FEF71AF943F228411020FEF715F9B1
:1025200002211220FEF711F941F238011320FEF7C3
:102530000CF9282000F0BBFC12210846FEF705F933
:10254000282000F0B4FC43F220411020FEF7FDF8F3
:1025500043F238011320FEF7F8F8462000F0A7FCFC
:1025600000213020FEF7F1F840F202413120FEF761
:10257000ECF840F207313220FEF7E7F84FF44171F2
:102580003320FEF7E2F804213420FEF7DEF840F2B3
:1025900001413520FEF7D9F840F207713620FEF7E9
:1025A000D4F840F205313720FEF7CFF84FF4C2617E
:1025B0003820FEF7CAF84FF4C2613920FEF7C5F89B
:1025C0004FF480710120FEF7C0F84FF440710220F3
:1025D000FEF7BBF841F230010320FEF7B6F840F6F3
:1025E00008010820FEF7B1F808210A20FEF7ADF82F
:1025F0004FF41C516020FEF7A8F801216120FEF77E
:10260000A4F84FF49F719020FEF79FF84FF480716B
:102610009220FEF79AF84FF480719320FEF795F818
:102620004FF44051A020FEF790F81021A320FEF7B0
:102630008CF801210720FEF788F821210720FEF7FA
:1026400084F823210720FEF780F833210720FEF7C6
:102650007CF840F233110720FEF777F80020FEF7F0
:102660006BF901209E4908604FF6FF70FEF7D5FA1E
:1026700008BD2DE9F05F05460E4617469846DDF881
:1026800028A04FF0000B0020FEF756F9781B401CE5
:102690001FFA80FB34461EE02146284602F08CFCDF
:1026A000FEF76FF84FF0000911E04FF480708D498C
:1026B0000861400048618C48C0F800A08020486153
:1026C00008618000086109F101001FFA80F9D9450D
:1026D000EBDB601C84B24445DEDD0020FEF72CF904
:1026E000BDE8F09F2DE9FF4F85B081468A46002066
:1026F000049003900798A0EB09050898A0EB0A0640
:10270000CDF80890CDF804A0002D01DD012705E0EB
:102710000DB9002702E04FF0FF376D42002E02DDB9
:102720004FF0010806E016B94FF0000802E04FF044
:10273000FF387642B54201DD2C4600E034464FF0CA
:10274000000B21E0019A91B2029A90B2FEF74BFA87
:102750000498284404900398304403900498A042BD
:1027600005DD0498001B04900298384402900398F9
:10277000A04205DD0398001B03900198404401909E
:102780000BF101001FFA80FB601C8345DADD09B004
:10279000BDE8F08F2DE9F04104460D4616461F4670
:1027A0002B46324629462046FFF79CFF3B462246F1
:1027B00029462046FFF796FF3B46324639462046DB
:1027C000FFF790FF3B46324629463046FFF78AFF27
:1027D000BDE8F0812DE9F04706460F4690460024FB
:1027E00045460320A0EB480948E03A1B91B2721B12
:1027F00090B2FEF7F8F93A1B91B2721990B2FEF757
:10280000F2F97A1991B2321B90B2FEF7ECF93A1B49
:1028100091B2721B90B2FEF7E6F97A1B91B2321BAD
:1028200090B2FEF7E0F93A1991B2721990B2FEF740
:10283000DAF97A1B91B2321990B2FEF7D4F97A190B
:1028400091B2321990B2FEF7CEF93A1991B2721BD9
:1028500090B2FEF7C8F9641CB9F1000F03DAA000CA
:10286000801D814404E0601B80000A3081446D1E9D
:102870007A1991B2321990B2FEF7B5F9AC42B4DDD3
:10288000BDE8F0872DE9F84F0746894616461D46F4
:10289000BB46164800880090E82F02DCB9F59C7F03
:1028A00001DDBDE8F88FA6F12000C6B20A98002825
:1028B00048D1002443E00C2D07D106EB46000C491B
:1028C00001EB800010F804A004E00A4800EB0610B9
:1028D00010F804A04FF0000825E0000018000020C8
:1028E000A8012242001001400C0C014014000020FD
:1028F000F4530008685800081AF0010F03D07F490C
:102900000098088003E07E4800887C49088049469A
:102910003846FEF768F94FEA6A0A781C87B208F170
:10292000010000F0FF0805EBD571B8EB610FE3DBA8
:102930005F4609F101001FFA80F9601CC4B2AC4285
:10294000B9DB2DE0002429E00C2D07D106EB460071
:102950006C4901EB800010F804A004E06A4800EB29
:10296000061010F804A04FF0000810E01AF0010F54
:1029700007D009EB040291B207EB080290B2FEF710
:1029800032F94FEA6A0A08F1010000F0FF0805EB8E
:10299000D571B8EB610FE9DB601CC4B2AC42D3DB8C
:1029A00056490098088000BF7BE710B50246012019
:1029B00000E050430B00A1F10104E1B2F9D110BDD8
:1029C0002DE9FF4F81B0074691461E460E9D4FF000
:1029D000000A002439E0301B401EC1B20A20FFF774
:1029E000E4FFB9FBF0F00A21B0FBF1F201FB1208A1
:1029F000BAF1000F16D1701EA04213DDB8F1000F1E
:102A00000ED10020AB4605EBDB71491001FB0471D0
:102A1000009088B22B4620220299FFF733FF12E084
:102A20004FF0010A0020AB4605EBDB71491001FBBA
:102A30000471009088B208F13001CAB22B460299A5
:102A4000FFF720FF00BF601CC4B2B442C3DB05B077
:102A5000BDE8F08F2DE9FF4F81B0074690461D4637
:102A6000DDE90E6A00241EE0281B401EC1B20A20C8
:102A7000FFF79BFFB8FBF0F00A21B0FBF1F201FB7E
:102A80001209B34606EBDB71491001FB047188B2F1
:102A900009F13001CAB23346CDF800A00299FFF720
:102AA000F1FE601CC4B2AC42DEDB05B0BDE8F08FC5
:102AB000F8B505460E4614461BE0E82D03DD00255B
:102AC00006F1100086B2B6F59C7F06DD00200546B3
:102AD00006464FF6FF70FEF7A0F80020009022781F
:102AE000102331462846FFF7CDFE05F1080085B2D8
:102AF000641C20780028E0D1F8BD000014000020FC
:102B000016000020F45300086858000810B5012191
:102B1000042000F00CFB0121080700F06EFF0120EB
:102B200000F0A8FD00F0C4FD10BD10B500214FF469
:102B3000FE7000F06FFFFFF7E9FF10BD70B50025D4
:102B4000002400202F4908601BE02F48006818B1BE
:102B5000681CC5B2002409E0601CC4B2032C05DD6A
:102B60000120284908604FF0000070BD1E2000F0D1
:102B70009EF9642D05DB0020224908604FF001001A
:102B8000F3E7E2E710B5012020490860FFF7D6FF20
:102B900008B1FFF7CAFF10BD1FB50121052000F0E5
:102BA0001FFF0120ADF80C0028208DF80F0003A9AD
:102BB000174800F0D9FB0021084600F0E9FC01208D
:102BC000009000208DF8040008208DF805000120F9
:102BD0008DF80600684600F0E7FA06208DF8080038
:102BE00002208DF809008DF80A0001208DF80B00F5
:102BF00002A800F062FAFFF7A1FF08B9FFF786FF0D
:102C00001FBD0000A0012142000121421404014027
:102C10000008014010B59448006820F0F000924987
:102C200008600846006840F03000086000208F49C6
:102C3000086040F2EE2000F055F901208C49C1F8FF
:102C400084010F2000F04EF910BD10B50024864815
:102C5000006820F0F000844908600846006840F0F1
:102C60008000086004E0601CC4B2012000F03AF962
:102C70008048006808B1C82CF5DBC82C01DB0120B6
:102C800010BD002404E0601CC4B2012000F02AF949
:102C90007848006808B9F02CF5DBF02C01DB012046
:102CA000EEE70020ECE710B56F48006820F0F00078
:102CB0006D4908600846006840F030000860002058
:102CC0006A4908604FF0020000F00CF901206849E1
:102CD000C1F884016448006820F0F000624908608F
:102CE0000846006840F0800008600C2000F0FAF808
:102CF0006048006808B1012400E00024322000F0A0
:102D0000F1F8204610BD70B50026012508E0FFF758
:102D1000CAFF0446E00140EA6600C6B2681CC5B2BC
:102D2000082DF4DD304670BD70B504464E4800688D
:102D300020F0F0004C4908600846006840F0300080
:102D40000860012522E004F00106641076B100203D
:102D5000464908604FF0020000F0C4F801204449E1
:102D6000C1F884013C2000F0BDF80DE000203F498F
:102D700008604FF03C0000F0B5F801203C49C1F874
:102D80008401022000F0AEF8681CC5B2082DDADD1F
:102D900070BD10B5FFF73EFFFFF757FFCC20FFF7E0
:102DA000C3FF4420FFF7C0FF10BD08B50121042078
:102DB00000F016FE0120ADF8000010208DF8030091
:102DC00003208DF802006946274800F0CDFA012162
:102DD000254800F074FBFFF71DFFFFF736FF08BD25
:102DE0002DE9F84FFFF7D5FFFFF714FFFFF72DFF91
:102DF000CC20FFF799FFBE20FFF796FFFFF783FF78
:102E00008346FFF780FF0446072C08DDE043C4B289
:102E10006FEA0B0000F0FF0B4FF0000A01E04FF0EB
:102E2000010AA1464FEA09200FFA80F909EB0B00CD
:102E30000FFA80F9484602F07FFA009002F050FA4B
:102E4000074600220C4B02F04DF9054602F01AF934
:102E50000FFA80F9BAF1000F02D04846BDE8F88FAA
:102E6000C9F1000000B2F9E70008014084012142E5
:102E700000002142040121420000E43F10B5044655
:102E80006FF0040000F064F9E11704EB5171C91010
:102E9000224A11701046007800EB4001C1EBC010CF
:102EA0004FF6FF7101EAC0001D49088010BD0146C0
:102EB0001B4A12884A434FF0E0235A6100229A616C
:102EC00001221A6100BF4FF0E022106910F0010FDB
:102ED00002D010F4803FF6D000224FF0E0231A61B8
:102EE0009A61704701460D4A12784A434FF0E02339
:102EF0005A6100229A6101221A6100BF4FF0E0225C
:102F0000106910F0010F02D010F4803FF6D00022BB
:102F10004FF0E0231A619A61704700001A00002008
:102F20001C00002010B54FF4A06000F0C1F810BDE7
:102F3000014600BF704700BF494A128812F0400F97
:102F4000FAD0C2B2464B1B1D1A80704710B586B02E
:102F50000446012144F2050000F042FD4FF40070E8
:102F6000ADF8140003208DF8160018208DF8170016
:102F700005A93C4800F0F8F94FF48060ADF8140062
:102F800004208DF8170005A9364800F0EDF925203A
:102F90008DF8000003208DF801008DF8020001205B
:102FA0008DF80300684600F088F801940020ADF821
:102FB0000800ADF80A00ADF80C00ADF810000C20C8
:102FC000ADF80E0001A9264801F0C3FC012240F231
:102FD0002551234801F055FD0121214801F045FD0F
:102FE00006B010BD10B540F225511D4801F02EFE6F
:102FF00010B31B4801F0AAFDC4B21B48007810F0C2
:10300000800F2BD11848007810F0400F0CD00A2CFC
:1030100003D000201449087020E01348007840F0E5
:1030200080001149087019E00D2C06D10E48007877
:1030300040F040000C49087010E00B48007800F0A8
:103040003F000A490C5408480078401C06490870A3
:10305000084600783F2801DD0020087010BD000000
:103060000038014000080140200000203C00002002
:103070000948804709480047FEE7FEE7FEE7FEE70C
:10308000FEE7FEE7FEE7FEE7FEE7FEE70448054948
:10309000054A064B7047000031040008ED000008A7
:1030A000E0000020E0060020E0020020E002002016
:1030B00031490143314A1160704770B50021002346
:1030C0000F22C4780CB32D4C246804F4E064C4F5DA
:1030D000E064210AC1F10403CA40447804FA03F110
:1030E0008478144021430901254C0678A1550478C1
:1030F00004F01F050124AC4005786D114FF0E02667
:1031000006EB8505C5F8004109E0047804F01F05C9
:103110000124AC401B4D0678761145F8264070BD61
:10312000194A0A400243154B1B1F1A60704739B1F8
:10313000124A121D12680243104B1B1D1A6006E052
:103140000E4A121D126882430C4B1B1D1A607047F9
:10315000042808D14FF0E021096941F004014FF043
:10316000E022116107E04FF0E021096921F004013C
:103170004FF0E022116170470000FA050CED00E00D
:1031800000E400E080E100E080FFFF1F00204449F0
:103190000860091D0860091D0860091D0860414894
:1031A0003F4914310860704700213D498279002A67
:1031B0003AD00A46126803689A430B461A600A1D01
:1031C000126803689A430B1D1A60027911440A6859
:1031D00003681A430A60324A0832126803689A4345
:1031E0002F4B08331A601A1D126803689A432C4B40
:1031F0000C331A604279102A0ED11A1F1268036824
:103200001A43274B08331A601A1D126803681A43C1
:10321000234B0C331A600DE02149427911440A68AE
:1032200003681A430A6005E0027911440A680368DA
:103230009A430A6070470021016001710C214171BD
:103240000021817170471649103109680143144A01
:1032500010321160704701460020114A1432126882
:103260000A4201D0012000E0002070470C491431CF
:1032700008607047014600200022094B1B6803EAE2
:103280000102074B14331B680B4202D00AB1012024
:1032900000E00020704702491431086070470000C8
:1032A00000040140FFFF0F0010B50446CA488442E5
:1032B00008D10121042000F0ADFB0021042000F022
:1032C000A9FB46E0C548844208D10121082000F04E
:1032D000A1FB0021082000F09DFB3AE0C048844299
:1032E00008D10121102000F095FB0021102000F0F2
:1032F00091FB2EE0BB48844208D10121202000F040
:1033000089FB0021202000F085FB22E0B6488442A2
:1033100008D10121402000F07DFB0021402000F079
:1033200079FB16E0B148844208D10121802000F0E9
:1033300071FB0021802000F06DFB0AE0AC48844264
:1033400007D10121801500F065FB0021A01500F0D8
:1033500061FB10BD10B50121084600F05BFB0021A8
:10336000012000F057FB10BD2DE9F0410246002579
:103370000026002000230024002791F803C00CF051
:103380000F0591F803C01CF0100F03D091F802C094
:103390004CEA050591F800C0BCF1000F31D014686B
:1033A00000202BE04FF0010C0CFA00F3B1F800C044
:1033B0000CEA03069E4220D183004FF00F0C0CFA5A
:1033C00003F7BC4305FA03FC4CEA040491F803C07C
:1033D000BCF1280F06D14FF0010C0CFA00FCC2F82A
:1033E00014C00AE091F803C0BCF1480F05D14FF0BA
:1033F000010C0CFA00FCC2F810C0401C0828D1D304
:103400001460B1F800C0BCF1FF0F34DD5468002037
:103410002EE000F1080C4FF0010808FA0CF3B1F8A7
:1034200000C00CEA03069E4221D183004FF00F0C2E
:103430000CFA03F7BC4305FA03FC4CEA040491F8C8
:1034400003C0BCF1280F05D100F1080C08FA0CF8F4
:10345000C2F8148091F803C0BCF1480F07D100F105
:10346000080C4FF0010808FA0CF8C2F81080401C54
:103470000828CED35460BDE8F0814FF6FF7101807B
:10348000022181700421C1707047024600209368B8
:103490000B4201D0012000E00020704701468868FF
:1034A00080B2704702460020D3680B4201D0012051
:1034B00000E0002070470146C86880B27047016193
:1034C0007047416170470AB1016100E04161704796
:1034D000C16070474FF480320A438261816182612A
:1034E00082698269704702460020424B18684FF695
:1034F0008073184040EA021008433E4B1860704742
:103500003D49C8617047F0B50A46002300240021F8
:10351000002500F00046B6F1004F02D1354EF169AA
:1035200001E0344E7168C0F3034583B200F44016E5
:10353000B6F5401F08D121F070612E4E766826F056
:1035400070662C4F7E6012E000F48016B6F5801F86
:1035500006D1032606FA05F4A14341F0706106E0A6
:10356000460D360103FA06F6B14341F0706122B10F
:10357000460D360103FA06F6314300F00046B6F177
:10358000004F02D11B4EF16101E01A4E7160F0BD97
:1035900030B500228B071C0F0F2303FA04F2154BE2
:1035A00008338C1053F824309343124C08348D1098
:1035B00044F8253023468C1053F824308C07240F10
:1035C00000FA04F423430B4C08348D1044F82530E2
:1035D00030BD0A490860704700080140000C0140F6
:1035E000001001400014014000180140001C01407F
:1035F000002001400000014000002042DC00204289
:103600000E49086070470D49486070470B49886053
:1036100070474AF6AA200949086070474CF6CC402A
:1036200006490860704701460020044AD2680A42F1
:1036300001D0012000E00020704700000030004071
:1036400010B50121080700F0F2F900214FF0805079
:1036500000F0EDF910BD294908627047274908615B
:10366000704701460020264A106820F0E000084319
:103670001060704723490860704710B5024600206B
:103680001F4B186820F00300104318601E4B1B6886
:1036900043F004031C4C2360012901D130BF00E03A
:1036A00020BF194B1B6823F00403174C236010BD87
:1036B0001348006840F0040011490860084600689B
:1036C00040F0020008601048006840F004000E4915
:1036D000086000BF00BF30BF704701460020084AA5
:1036E00052680A4201D0012000E0002070470449DE
:1036F000096841EA8001024A1160704700000E42E9
:1037000000700040A0000E4210ED00E0DD480068AF
:1037100040F00100DB49086008464068DA4908408B
:10372000D849486008460068D8490840D54908602B
:103730000846006820F4802008600846406820F4AD
:10374000FE0048604FF41F0088607047CD4909684B
:1037500021F48031CB4A11601146096821F480219F
:103760001160B0F5803F03D0B0F5802F0ED106E098
:10377000C449096841F48031C24A116007E0C14977
:10378000096841F4A021BF4A116000E000BF00BFFA
:10379000704710B501460022002300204A11012A7B
:1037A00002D1B84C236806E0022A02D1B54C236A44
:1037B00001E0B44C636A01F01F02012494401C42F2
:1037C00001D0012000E0002010BD38B5002000909D
:1037D0000024002500BF3120FFF7DBFF05460098DD
:1037E000401C00900098B0F5A06F01D0002DF2D0E1
:1037F0003120FFF7CEFF08B1012400E0002420466D
:1038000038BD014600209F4A106820F0F80040EAC9
:10381000C100106070479E49086070470246002052
:10382000984B586820F47C1042EA01031843954BEA
:103830005860704796490866704701460020914AD3
:10384000506820F003000843506070478D4840687E
:1038500000F00C007047014600208A4A506820F0B2
:10386000F00008435060704701460020854A5068C8
:1038700020F4E06008435060704701460020814A10
:10388000506820F4605040EAC1005060704729B190
:103890007C4A527A02437B4B5A7204E0794A527A4C
:1038A0008243784B5A7270477A49086070470146E4
:1038B0000020744A506820F440400843506070472C
:1038C0000021754A11706F4A82F82010012802D039
:1038D000042808D103E001216F4A117004E005219A
:1038E0006D4A117000E000BF00BF70476B4908606F
:1038F00070476449096A0143624A11627047674927
:1039000044390860704730B50021002200240023AC
:103910005C4D6D6805F00C0121B1042905D0082922
:1039200023D105E05E4D056022E05D4D05601FE09E
:10393000544D6D6805F47012524D6D6805F4803475
:10394000022505EB92421CB9564D554305600BE02C
:103950004C4D6D6815F4003F03D0524D5543056042
:1039600002E04F4D5543056002E04D4D056000BF3C
:1039700000BF444D6D6805F0F00109094A4D6B5CCC
:103980000568DD4045603F4D6D6805F4E061090A5A
:10399000454D6B5C4568DD4085603A4D6D6805F4CA
:1039A0006051C90A404D6B5C4568DD40C560354DCE
:1039B0006D6805F44041890B3C4D6B5CC568B5FBF7
:1039C000F3F5056130BD29B12E4A526902432D4BF2
:1039D0005A6104E02B4A526982432A4B5A6170476C
:1039E00029B1284A92690243264B9A6104E0254A8C
:1039F00092698243234B9A61704729B1214AD26967
:103A00000243204BDA6104E01E4AD26982431D4B17
:103A1000DA61704729B11B4AD2680243194BDA6058
:103A200004E0184AD2688243164BDA60704729B125
:103A3000144A12690243134B1A6104E0114A1269D5
:103A40008243104B1A61704714494039086070472F
:103A50000F49C86470470B49C87170470948406AEC
:103A600040F0807007494862704701460020054ACF
:103A700092680A4201D0012000E00020704701490D
:103A800088727047001002400000FFF8FFFFF6FE4A
:103A900000004242D80042422010024080044242CC
:103AA00000127A0000093D002800002038000020A4
:103AB00010B50446FE48844208D10121C014FFF726
:103AC000A9FF0021E014FFF7A5FFC4E0B4F1804F87
:103AD00008D101210846FFF7AAFF00210120FFF7C6
:103AE000A6FFB8E0F348844208D101210220FFF785
:103AF0009EFF00210220FFF79AFFACE0EE488442CF
:103B000008D101210420FFF792FF00210420FFF7D4
:103B10008EFFA0E0E948844208D101210820FFF788
:103B200086FF00210820FFF782FF94E0E4488442EA
:103B300008D101211020FFF77AFF00211020FFF7A4
:103B400076FF88E0DF48844208D101212020FFF77A
:103B50006EFF00212020FFF76AFF7CE0DA488442F4
:103B600008D101214014FFF755FF00216014FFF731
:103B700051FF70E0D548844209D10121C804FFF704
:103B800049FF00214FF40020FFF744FF63E0D048D5
:103B9000844209D101210805FFF73CFF00214FF4C1
:103BA0008010FFF737FF56E0CA48844209D101214F
:103BB0004805FFF72FFF00214FF40010FFF72AFF01
:103BC00049E0C548844208D101214020FFF72FFF7A
:103BD00000214020FFF72BFF3DE0C048844208D180
:103BE00001218020FFF723FF00218020FFF71FFF26
:103BF00031E0BB48844208D101218015FFF717FF4F
:103C00000021A015FFF713FF25E0B648844209D133
:103C100001210804FFF7FEFE00214FF48030FFF77A
:103C2000F9FE18E0B048844209D101214804FFF7A9
:103C3000F1FE00214FF40030FFF7ECFE0BE0AB4843
:103C4000844208D101218804FFF7E4FE00214FF4EB
:103C50008020FFF7DFFE10BD00220288944B9842BF
:103C60000ED0994B98420BD0B0F1804F08D0914BB9
:103C7000984205D0904B984202D0904B984204D184
:103C80004FF68F731A404B881A438D4B984207D0DA
:103C90008C4B984204D04FF6FF431A40CB881A430E
:103CA00002808B8883850B880385814B98420BD0DB
:103CB000854B984208D08B4B984205D08A4B98424E
:103CC00002D08A4B984201D10B7A0386012383826A
:103CD000704770B5002400220023058C4FF6FE7655
:103CE00035400584028C8388048B4FF68F752C40F9
:103CF000B51E2C400D882C43751E2A400D892A4381
:103D00004D882A436A4DA8420BD06F4DA84208D077
:103D1000744DA84205D0744DA84202D0734DA842FC
:103D200013D14FF6F7752A404D892A434FF6FB759C
:103D30002A408D882A434FF6FF652B404FF6FF55EA
:103D40002B408D892B43CD892B4383800483CD88E1
:103D50008586028470BD70B5002400220023058C86
:103D60004FF6EF7635400584028C8388048B48F645
:103D7000FF752C404FF6FF452C400D884FF6FF761F
:103D800006EA05252C434FF6DF752A400D8906EA21
:103D900005152A434D8806EA05152A43444DA842D5
:103DA00002D0494DA8421DD14FF67F752A404D895A
:103DB0004FF6FF7606EA05152A434FF6BF752A40EF
:103DC0008D8806EA05152A434FF6FF352B404FF242
:103DD000FF752B408D8906EA85052B43CD8906EAC0
:103DE00085052B4383800483CD880587028470BDBD
:103DF00070B5002400220023058C4FF6FF66354085
:103E00000584028C8388848B4FF68F752C404FF687
:103E1000FC752C400D882C434FF6FF552A400D8928
:103E20004FF6FF7606EA05252A434D8806EA052562
:103E30002A431F4DA84202D0234DA8421DD14FF264
:103E4000FF752A404D894FF6FF7606EA05252A437D
:103E50004FF6FF352A408D8806EA05252A434EF69F
:103E6000FF752B404DF6FF752B408D8906EA051531
:103E70002B43CD8906EA05152B4383808483CD88A7
:103E80008587028470BD70B5002200230024058C54
:103E90004EF6FF7635400584038C8488828B48F685
:103EA000FF752A404FF6FF452A400D8820E00000AC
:103EB000002C01400004004000080040000C0040BD
:103EC000001000400014004000340140004C01404C
:103ED000005001400054014000180040001C004008
:103EE00000200040004001400044014000480140E3
:103EF0004FF6FF7606EA05252A434DF6FF752B405F
:103F00000D8906EA05352B434D8806EA05352B4316
:103F1000FA4DA84202D0FA4DA84208D14BF6FF75DF
:103F20002C408D894FF6FF7606EA85152C43848058
:103F30008283CD88A0F84050038470BD828B4FF2FD
:103F4000FF331A408283828B4FF6FF7303EA01230B
:103F50001A4382837047F0B50C46154600220021B3
:103F60000026078C4EF6FF7C07EA0C070784828B3D
:103F7000018C4FF6FF7707EA043640F6FF473A40D8
:103F80004FF6FF7707EA05273A434FF6FF7707EA30
:103F900003373A43D94FB8420ED0D94FB8420BD06D
:103FA000B0F1804F08D0D74FB84205D0D64FB842B5
:103FB00002D0D64FB84206D14DF6FF77394046F4CD
:103FC0008057394305E047F6FF57394044F480579E
:103FD000394382830184F0BD828B4FF6F3731A401C
:103FE0008283828B0A4382837047F0B50C46154664
:103FF000002200210026078C4FF6FF6C07EA0C0711
:104000000784828B018C4FF6FF7707EA04264FF670
:104010000C773A404FF6FF7707EA03172F433A43EE
:10402000B64FB8420ED0B64FB8420BD0B0F1804F69
:1040300008D0B44FB84205D0B34FB84202D0B34F06
:10404000B84206D14FF6FF57394046F480773943DE
:1040500005E04FF2FF57394044F4807739438283BB
:104060000184F0BD028B4FF2FF331A400283028BB2
:104070004FF6FF7303EA01231A4302837047F0B53A
:104080000C461546002200210026078C4FF6EF7CD7
:1040900007EA0C070784028B018C4FF6FF7707EACB
:1040A000041640F6FF473A404FF6FF7707EA03371A
:1040B0003A434FF6FF7707EA05273A438F4FB84256
:1040C0000ED08F4FB8420BD0B0F1804F08D08D4F3B
:1040D000B84205D08C4FB84202D08C4FB84206D1BE
:1040E0004FF6DF77394046F01007394305E04FF6C9
:1040F0005F77394044F01007394302830184F0BDF3
:10410000028B4FF6F3731A400283028B0A43028339
:104110007047F0B50C46154600220021068C4FF67C
:10412000FE773E400684028B018C4FF60C763240BF
:104130007E1C06EA03162E433243704EB0420ED068
:104140006F4EB0420BD0B0F1804F08D06D4EB042F0
:1041500005D06D4EB04202D06C4EB04206D14FF643
:10416000FD76314044F00106314305E04FF6F57627
:10417000314044F00106314302830184F0BD70B543
:1041800005460C465D4885420ED05D4885420BD001
:10419000B5F1804F08D05B48854205D05A4885422A
:1041A00002D05A48854200D100E000BF208850B9B3
:1041B0002389A28861882846FFF7ABFFE18828465B
:1041C000FFF79EFF25E0208804280AD12389A288D2
:1041D00061882846FFF753FFE1882846FFF742FF32
:1041E00017E0208808280AD12389A28861882846F8
:1041F000FFF7FBFEE1882846FFF7EEFE09E0238982
:10420000A28861882846FFF7A6FEE1882846FFF7C6
:1042100095FE70BD2DE9F04105460C4600260127AC
:10422000608808B9022600E00026A088012801D194
:10423000022700E001272088A0B92389A28861888D
:104240002846FFF766FFE1882846FFF759FF2389D4
:104250003A4631462846FFF712FFE1882846FFF725
:1042600001FF13E02389A28861882846FFF707FF32
:10427000E1882846FFF7F6FE23893A46314628466C
:10428000FFF747FFE1882846FFF73AFFBDE8F081D6
:104290000A884B881A438B881A43CB881A430B89A8
:1042A0001A434B891A438B891A43A0F8442070475C
:1042B0004FF6FF71818000210180C1804180017231
:1042C00070470021018041808180C180018141814E
:1042D0008181C1817047002101804180012181805D
:1042E0000021C180018170470021018041808180CF
:1042F000C18001814181818170470000002C014013
:10430000003401400004004000080040000C004060
:1043100021B1028842F00102028004E002884FF6D7
:10432000FE731A400280704731B1B0F8442042F465
:104330000042A0F8442005E0B0F84420C2F30E0289
:10434000A0F8442070471AB183890B43838102E0AF
:1043500083898B43838170478182704741EA0203DE
:10436000A0F8483070471AB183890B43838102E07B
:1043700083898B438381704701894FF6F87211401E
:10438000018170470A46002101894FF68F73194059
:1043900011430181704730B504460D462946204639
:1043A000FFF7F0FF208940F00700208130BD2DE9A4
:1043B000F04104460D4616461F46602D06D13B4689
:1043C000012231462046FFF75AFE05E03B46012216
:1043D00031462046FFF79DFE29462046FFF7D2FFD3
:1043E000208940F007002081BDE8F08130B50C46FF
:1043F00000210189C9B24FF6FF7505EA032515436F
:1044000025432943018130BD2DE9F04105460E4683
:1044100017469846002443463A4631462846FFF759
:10442000E5FF2C894FF6F870044044F007044FF67E
:104430008F70044044F070042C81BDE8F081F0B529
:1044400004460D4616461F463B4632462946204640
:10445000FFF7CCFF208940F480402081F0BD01852A
:10446000828270470A46002101884FF68F731940F7
:10447000114301807047F0B50C4615461E460021D9
:10448000002200230189028B038C4FF6F877394014
:1044900021434FF6FC473A4040F201173A434FF6AA
:1044A000DD773B404FF6FF7707EA06172F433B4384
:1044B000018102830384F0BD0A460021018B4FF67F
:1044C0008F7319401143018370470A460021018B05
:1044D00048F6FF7319404FF6FF7303EA02231943AE
:1044E000018370470A460021818B4FF68F73194074
:1044F0001143818370470A460021818B48F6FF7380
:1045000019404FF6FF7303EA022319438183704772
:1045100021B1028842F08002028004E002884FF656
:104520007F731A400280704721B1828842F00402F2
:10453000828004E082884FF6FB731A4082807047C5
:1045400021B1828842F00802828004E082884FF61E
:10455000F7731A408280704721B1828842F00102CD
:10456000828004E082884FF6FE731A408280704792
:104570000A460021018B4FF6F7731940114301835E
:1045800070470A460021018B4FF2FF7319404FF626
:10459000FF7303EA02231943018370470A4600218F
:1045A000818B4FF6F77319401143818370470A4698
:1045B0000021818B4FF2FF7319404FF6FF7303EA1E
:1045C00002231943818370470A460021018B4FF66D
:1045D000FB7319401143018370470A460021018B88
:1045E0004FF6FF3319404FF6FF7303EA02231943D6
:1045F000018370470A460021818B4FF6FB731940F7
:104600001143818370470A460021818B4FF6FF33A7
:1046100019404FF6FF7303EA022319438183704761
:104620000A460021018B4FF67F7319401143018325
:1046300070470A460021018BC1F30E014FF6FF734C
:1046400003EA02231943018370470A460021818B44
:104650004FF67F7319401143818370470A4600214A
:10466000818BC1F30E014FF6FF7303EA0223194356
:10467000818370470A460021018C4FF6FD73194073
:104680001143018470470A460021018C4FF6F773ED
:1046900019401143018470470A460021018C4FF6EE
:1046A000DF7319404FF6FF7303EA021319430184C5
:1046B00070470A460021018C4FF67F7319404FF670
:1046C000FF7303EA02131943018470470A4600216D
:1046D000018C4FF6FF5319404FF6FF7303EA022394
:1046E0001943018470470A460021018C4FF2FF7381
:1046F00019404FF6FF7303EA022319430184704700
:104700000A460021018C4DF6FF7319404FF6FF73E6
:1047100003EA023319430184704730B500230124B2
:104720008C40A3B2048C9C430484048C02FA01F5EF
:10473000ADB22C43048430BD30B5002304248C403A
:10474000A3B2048C9C430484048C02FA01F5ADB23C
:104750002C43048430BD70B5034600200024184665
:10476000183001258D40ACB21D8CA5431D8409B1C4
:10477000082909D100EB6100056825F07005056086
:104780000568154305600EE00D1FC5F34E0528446E
:10479000056825F4E045056005684FF6FF7606EAF2
:1047A00002263543056070BD21B1028842F0020245
:1047B000028004E002884FF6FD731A4002807047C1
:1047C00021B1028842F00402028004E002884FF620
:1047D000FB731A400280704721B1828842F0800248
:1047E000828004E082884FF67F731A40828070478F
:1047F00002884FF6F7731A40028002880A4302804B
:10480000704782884FF68F731A40828082880A43ED
:104810008280704702894FF6F8731A40028102893C
:104820000A430281704702894FF67F731A40028162
:1048300002890A43028170478184704781857047ED
:10484000818670470187704781877047A0F84010C4
:10485000704702884FF6FF431A40028002880A43DD
:10486000028070470146888E70470146088F704766
:104870000146888F70470146B1F8400070470146F5
:10488000888C70470146088D704702460020138AC5
:104890000B4201D0012000E000207047CA43028291
:1048A000704730B50246002000230024158A05EA2F
:1048B0000103958905EA010413B10CB1012000E060
:1048C000002030BDCA4302827047000010B5044684
:1048D000FB48844209D101218803FFF79BF800219E
:1048E0004FF48040FFF796F832E0F648844209D151
:1048F00001214804FFF79BF800214FF40030FFF737
:1049000096F825E0F048844209D101218804FFF798
:104910008EF800214FF48020FFF789F818E0EB486B
:10492000844209D10121C804FFF781F800214FF426
:104930000020FFF77CF80BE0E548844208D1012114
:104940000805FFF774F800214FF48010FFF76FF8A7
:1049500010BD2DE9F04786B005460E460024A2465C
:1049600000BFA1460027B08900B100BF2F462C8AA6
:104970004CF6FF700440F08804432C82AC894EF65C
:10498000F3100440B0883189084371890843044317
:10499000AC81AC8A4FF6FF400440B0890443AC823E
:1049A00001A8FEF7B0FFC648874202D1DDF810A08B
:1049B00001E0DDF80CA0A88910F4004F08D00AEB44
:1049C000CA0000EB0A1031684900B0FBF1F807E0BB
:1049D0000AEBCA0000EB0A1031688900B0FBF1F85D
:1049E0006420B8FBF0F004012009642101FB108968
:1049F000A88910F4004F08D0322000EBC900B0FBAA
:104A0000F1F000F00700044308E0322000EB091049
:104A10006421B0FBF1F000F00F0004432C8106B0DC
:104A2000BDE8F0874FF41651016000218180C180FC
:104A300001810C21418100218181704710B502461E
:104A40000020108A4FF2FF0318400B884C88234344
:104A50008C882343CC8823431843108210BD002147
:104A6000018041808180C180704721B1828942F4F8
:104A70000052828104E082894DF6FF731A408281E0
:104A80007047F0B503460024002600250020A1F55C
:104A900010676A3F00D100BF1846C1F3421401F00D
:104AA0001F06012707FA06F5012C01D10C3004E09E
:104AB000022C01D1103000E014301AB107682F43E6
:104AC000076002E00768AF430760F0BD1AB1838A50
:104AD0000B43838202E0838A8B4383827047028A7E
:104AE0004FF6F0731A400282028A0A43028270472C
:104AF00082894FF2FF731A40828182890A43828140
:104B0000704721B1828942F00202828104E08289E9
:104B10004FF6FD731A4082817047028A4FF6DF73A9
:104B20001A400282028A0A430282704721B1028A35
:104B300042F48042028204E0028A4BF6FF731A407C
:104B400002827047C1F3080282807047014688885C
:104B5000C0F308007047818941F0010181817047ED
:104B6000028BD2B20283028B42EA01220283704797
:104B7000028B02F47F420283028B0A430283704756
:104B800021B1828A42F02002828204E0828A4FF6BA
:104B9000DF731A408282704721B1828A42F010028C
:104BA000828204E0828A4FF6EF731A408282704755
:104BB00021B1828A42F00802828204E0828A4FF6A2
:104BC000F7731A408282704721B1828942F4004211
:104BD000828103E08289C2F30E028281704721B193
:104BE000828A42F40062828204E0828A4FF2FF737A
:104BF0001A4082827047828A4FF6FB731A40828283
:104C0000828A0A438282704721B1828A42F002027C
:104C1000828204E0828A4FF6FD731A4082827047D6
:104C200002460020B1F5007F00D100BF13880B427F
:104C300001D0012000E00020704701F40072B2F5BD
:104C4000007F00D100BFCA430280704770B50246A2
:104C50000024002300250020A1F510666A3E00D143
:104C600000BFC1F3421501F01F03012606FA03F34A
:104C7000012D02D19689334006E0022D02D1168A19
:104C8000334001E0968A33400C12012606FA04F400
:104C90001688344013B10CB1012000E0002070BD33
:104CA00010B500220023A1F510646A3C00D100BFBA
:104CB0000A1201249440A3B2DC43048010BD00001A
:104CC000003801400044004000480040004C0040D3
:104CD0000050004010B50121C802FEF7A8FE0021D7
:104CE0004FF40060FEF7A3FE10BD0021194A1268C0
:104CF00022F4C0710143174A1160704708B50021C2
:104D000000911449096821F07F01009100F07F01B2
:104D1000009A114300910F4A0099116008BD0120CB
:104D20000D490860704700F07F010A4A121F1160A8
:104D3000704740F08001074A121F11607047054814
:104D4000001D0068C0B2704700200249091D0860BC
:104D500070470000042C0040A4800542704700000A
:104D60000FB4044910B503AA029800F0C7F810BCAC
:104D70005DF814FB240000202DE9F0410E460446A6
:104D8000002020622046E168884730B3252805D0FE
:104D9000D4E901219047206A401CF2E7E1682046EF
:104DA00000278847050018D0A5F14100192802D82E
:104DB00020354FF400673246294620462760FBF72E
:104DC000CFF940B1012804D0F61D26F007060836B9
:104DD000D8E7361DD6E72846DAE7206ABDE8F08135
:104DE00070B504460D4621461068AFF30080218857
:104DF000090502D5104A7A4402E00F4A7A440E327D
:104E0000002104F1240307E000F00F064FEA101020
:104E1000965D5E5401F101010028F5D1034620782A
:104E2000000704D5702D02D009B1113202232046AB
:104E3000BDE8704000F006B85E1000007047704793
:104E4000704770472DE9F0470D4699469246044653
:104E500000F124080168880604D5E06921F01001FA
:104E6000216000E00120A84202DDA0EB050700E080
:104E70000027A16907EB050202EB0900A1EB000086
:104E8000A0612078C00602D42046AFF3008000263F
:104E900008E0D4E901211AF806009047206A401C76
:104EA000761C20624E45F4DB2078C0060AD52046E9
:104EB000AFF3008006E0D4E9012130209047206A5A
:104EC000401C2062381EA7F10107F4DC07E0D4E99A
:104ED000012118F805009047206A401C2062281E16
:104EE000A5F10105F3DC2046AFF300802078000631
:104EF00002D50220BDE8F0870120FBE7074B70B523
:104F00000D467B4400F011F80446284600F020F8D6
:104F100010B14FF0FF3070BD204670BD31E0FFFF93
:104F200001694A1C02610878704700B58FB0CDE96D
:104F300001310021059105497944CDE9031011465D
:104F40006846FFF719FF0FB000BD0000E5FFFFFF47
:104F5000007B00F080007047754600F029F8AE46EF
:104F600005006946534620F00700854618B020B575
:104F7000FEF78CF8BDE820404FF000064FF0000728
:104F80004FF000084FF0000B21F00701AC46ACE8F1
:104F9000C009ACE8C009ACE8C009ACE8C0098D465E
:104FA00070470446AFF300802046FBF7EBF80000A3
:104FB000004870477C00002030B504460D462E485E
:104FC0000088A0F50941893908D121464E20FBF718
:104FD000BCFB29464F20FBF7B8FB4CE02648008875
:104FE000A0F5134141393ED12A20FBF76FFB4FF466
:104FF0008070224908614000486120122049086001
:1050000080201E49486108618000086140100861E5
:1050100040004861E0B21A490860802017494861A1
:105020000861800008612B20FBF750FB4FF4807073
:105030001249086140004861281211490860802027
:105040000E49486108618000086140100861400015
:105050004861E8B20A49086080200849486108614F
:105060008000086107E021462020FBF76EFB2946FF
:105070002120FBF76AFB30BD180000200010014022
:105080000C0C01404FEA41034FEA5353A3F58063F0
:10509000D3F11E03C8BFD3F1210C0CDD4FF0004249
:1050A00042EAC12242EA505232FA03FC8CEAE17C25
:1050B000ACEBE1707047102BC4BF0020704703F5C4
:1050C000787CBCF1FF3F04D06FF0004282EA2100FF
:1050D000704770B500F0B0F8499224800020704706
:1050E000F2E70000DFF848C170B51CEA111E1EBFD0
:1050F0001CEA13159EEA0C0F95EA0C0F00F06F8066
:1051000081EA030423EA4C134EEAD47E21EA4C11CF
:1051100041F4801143F48013AE44A1FB024CA0FB88
:105120000365AEF17F7E361955EB0C05A1FB034CF0
:105130004CF10003A0FB021C16EB0C06654153F179
:105140000003094218BF46F0010613F4007F0BD19B
:105150004FEA03314FEA0530340341EA155140EA82
:1051600016506FF003020AE04FEAC3214FEAC52050
:10517000F40241EA555140EA56506FF0020202EB48
:105180002E4201EB025585EACE710AD05FEA440C4B
:1051900018BF24F0004450F1000041F1000120EA62
:1051A000D47040F2FE7C624500D270BDA84214BFAC
:1051B0004FF080444FF04044002E08BF0024BEF161
:1051C000806FA8BFA1F1C041BDE8704080F282802D
:1051D0004FF0000001F1C04101F0004170479EEA2C
:1051E0000C0F0CEA131518BF95EA0C0F06D04FF000
:1051F000000081EA030E0EF0004170BD00F01CF8C3
:105200008900013E00F007B800F009B84FEA430CEE
:105210005FEA5C5C08D081EA030100F05BB84FEA0A
:10522000410C5FEA5C5CF6D14FF000000149704729
:105230000000FF070000F87F0EF1020E2EF0030EB3
:105240005EF8046B364205D4012A43EB030515F5DD
:10525000001F12D8012841EB010C1CF5001F0CD8CF
:105260000ED14FEAD17C15F5001F0CEB4C0C0CF164
:10527000020C08BF4CEBD37C04E04FF0080C01E0BB
:105280004FEAD37C0CEB4C0526FA05F606F0070630
:10529000B6F1040C06D20EEB860CBDE870404CF063
:1052A000010C6047DFE80CF0090B02024FF00041EF
:1052B0004FF00000A1F5002170BD194610460128ED
:1052C00051EB010418BFD4F5001484BF002001F095
:1052D000004170BD0808A0F500114FEA3101704788
:1052E00043004FEAD30C4FEA3C0C43401FBF40073A
:1052F0000CF1605113F0FE4F70471CF0006F03D1AA
:1053000000200CF0004170470CF0004343EA50705D
:1053100010B540EACC0000F027F800BF0000009272
:105320004FEA0001FFF7D6BF4FF000414FF00000F9
:10533000A1F500217047000010F0004148BF404235
:10534000B0FA80F310FA03F2C3F19D030BD051EAD7
:10535000C35101EB1220530638BF704700F1010022
:1053600008BF20F0010070470EF1020E2EF0030E70
:105370005EF8044B244204D44FEA4102B2F17F4F5D
:1053800011D84FEA4003B3F17F4F0CD80ED14FEA4A
:10539000D07CB2F17F4F0CEB4C0C0CF1020C08BF2F
:1053A0004CEBD17C04E04FF0080C01E04FEAD17CDB
:1053B0000CEB4C0324FA03F404F00704B4F1040CDE
:1053C00006D20EEB840CBDE810404CF0010C604797
:1053D000DFE80CF0070802024FF00040A0F5800063
:1053E00010BD0846420018BFD2F1807288BF00F09D
:1053F000004010BD000000000000000000000000A0
:1054000000000404040404040004000000140A0A58
:105410000000000000000000000014143F140A3FC8
:105420000A0A000000041E1505060C14150F0400DE
:10543000000012150D0A142C2A1200000000040AA4
:105440000A1E1515093600000002020100000000C6
:1054500000000000002010080808080808102000BC
:1054600000020408080808080804020000000004FC
:10547000150E0E150400000000000404041F0404AF
:105480000400000000000000000000000002020113
:1054900000000000001F00000000000000000000ED
:1054A00000000000000200000010080808040402C8
:1054B0000202010000000E1111111111110E000065
:1054C0000000040604040404040E000000000E1191
:1054D00011080402011F000000000E11100C101032
:1054E000110E00000000080C0A0A091E081800002E
:1054F00000001F01010F1010110E000000000E0926
:10550000010F1111110E000000001F09080404040E
:105510000404000000000E11110E1111110E000004
:1055200000000E1111111E10120E000000000000EC
:10553000040000000004000000000000000400005F
:1055400000040400002010080402040810200000D9
:10555000000000001F00001F0000000000020408FF
:10556000102010080402000000000E1111080404AD
:105570000004000000000E111915151D011E000089
:10558000000004040C0A0A1E1233000000000F126F
:10559000120E1212120F000000001E110101010173
:1055A000110E000000000F1212121212120F000052
:1055B00000001F120A0E0A02121F000000001F1234
:1055C0000A0E0A020207000000001C120101391134
:1055D000120C000000003312121E121212330000CF
:1055E00000001F0404040404041F000000003E081F
:1055F0000808080808090700000037120A060A0A06
:10560000123700000000070202020202223F0000DF
:1056100000001B1B1B1B15151515000000003B127D
:1056200016161A1A1217000000000E11111111118E
:10563000110E000000000F12120E020202070000FD
:1056400000000E1111111117190E180000000F1291
:10565000120E0A121237000000001E110106081077
:10566000110F000000001F1504040404040E0000C4
:105670000000331212121212120C0000000033123A
:10568000120A0A0C0404000000001515150E0A0A7F
:105690000A0A000000001B0A0A04040A0A1B000090
:1056A00000001B0A0A040404040E000000001F0985
:1056B00008040402121F0000001C04040404040473
:1056C00004041C0000020202040408080810000080
:1056D000000E08080808080808080E0000040A0060
:1056E00000000000000000000000000000000000BA
:1056F0000000003F00040000000000000000000067
:1057000000000000000C121C123C0000000003020C
:10571000020E1212120E000000000000001C120205
:10572000021C000000001810101C1212123C000095
:1057300000000000000C121E021C000000003804D3
:10574000041E0404041E000000000000003C120CB3
:10575000021E221C00000302020E12121237000069
:105760000000040000060404040E0000000008000D
:10577000000C08080808080700000302023A0A0E95
:10578000123700000000070404040404041F000092
:1057900000000000000F15151515000000000000A6
:1057A000000F12121237000000000000000C12124D
:1057B000120C000000000000000F1212120E02076F
:1057C00000000000001C1212121C10380000000023
:1057D000001B06020207000000000000001E020C71
:1057E000101E000000000004040E04040418000051
:1057F00000000000001B1212123C0000000000001C
:105800000037120A0C040000000000000015150EFD
:105810000A0A000000000000001B0A040A1B000026
:10582000000000000037120A0C040403000000000E
:10583000001E0804041E00000018080808040808D8
:1058400008081800080808080808080808080808D0
:1058500000060404040804040404060002251800D9
:105860000000000000000000000000000000000038
:105870000000000000000000000000080808080800
:10588000080800001818000000486C2412000000EE
:1058900000000000000000000000002424247F120B
:1058A00012127F12121200000000081C2A2A0A0C91
:1058B0001828282A2A1C080800000022251515157A
:1058C0002A585454542200000000000C1212120AEC
:1058D00076252911916E00000006060403000000E1
:1058E0000000000000000000004020101008080820
:1058F00008080810102040000002040808101010CA
:1059000010101008080402000000000008086B1CBA
:105910001C6B0808000000000000000008080808D0
:105920007F080808080000000000000000000000D8
:105930000000000006060403000000000000000054
:10594000FE00000000000000000000000000000059
:1059500000000000060600000000804040202010EB
:105960001008080404020200000000182442424209
:105970004242424224180000000000080E080808B5
:1059800008080808083E00000000003C424242208F
:1059900020100804427E00000000003C4242201813
:1059A00020404042221C0000000000203028242417
:1059B00022227E20207800000000007E0202021ACF
:1059C00026404042221C0000000000382402021A37
:1059D00026424242241800000000007E22221010BD
:1059E00008080808080800000000003C4242422461
:1059F00018244242423C0000000000182442424267
:105A000064584040241C00000000000000001818EA
:105A1000000000001818000000000000000000084E
:105A200000000000000808040000004020100804E6
:105A300002040810204000000000000000007F0069
:105A400000007F0000000000000000020408102099
:105A500040201008040200000000003C4242464082
:105A600020101000181800000000001C225A555584
:105A700055552D42221C000000000008081814147F
:105A8000243C224242E700000000001F2222221E86
:105A900022424242221F00000000007C42420101DB
:105AA00001010142221C00000000001F224242426C
:105AB00042424242221F00000000003F4212121EDA
:105AC00012120242423F00000000003F4212121E2A
:105AD00012120202020700000000003C2222010113
