:020000040800F2
:1000000088080020313B0008CD030008CF0300081A
:10001000D3030008D7030008DB030008000000003A
:10002000000000000000000000000000DF030008E6
:10003000E103000800000000E3030008E5030008F6
:100040002D0900084B3B00084B3B00084B3B0008C8
:100050004B3B00084B3B0008992E00084B3B000827
:100060004B3B00084B3B00084B3B00084B3B000858
:100070004B3B00084B3B00084B3B00084B3B000848
:100080004B3B00084B3B00084B3B00084B3B000838
:100090004B3B00084B3B00084B3B00084B3B000828
:1000A0004B3B00084B3B00084B3B00084B3B000818
:1000B0004B3B0008B30900084B3B00084B3B0008D2
:1000C0004B3B00084B3B00084B3B00084B3B0008F8
:1000D0004B3B00083D3800084B3B00084B3B0008F9
:1000E0004B3B00084B3B00084B3B000800F002F87C
:1000F00000F03FF80AA090E8000C82448344AAF183
:100100000107DA4501D100F034F8AFF2090EBAE880
:100110000F0013F0010F18BFFB1A43F0010318473B
:100120002C6B00004C6B0000103A24BF78C878C1DB
:10013000FAD8520724BF30C830C144BF04680C60ED
:10014000704700000023002400250026103A28BF35
:1001500078C1FBD8520728BF30C148BF0B60704739
:10016000782905F02385002070471FB51FBD10B505
:1001700010BD05F0D7FD1146FFF7F7FF00F0C4F8FA
:1001800005F0F5FD03B4FFF7F2FF03BC03F0FCFA42
:1001900010B519E063A26E213C2002F013FE4FF46B
:1001A000FA7003F0B0FA64A26E213C2002F00AFE5D
:1001B0004FF4FA7003F0A7FA6548006808B9012007
:1001C00000E000206249086003F0CAF80028E1D18D
:1001D00060A26E213C2002F0F5FD4FF478406149A9
:1001E000088003F08CF919E05FA282213C2002F024
:1001F000E9FD4FF4FA7003F086FA4FA282213C2009
:1002000002F0E0FD4FF4FA7003F07DFA5048006808
:1002100008B9012000E000204D49086002F0BDFF50
:100220000028E1D156A282213C2002F0CBFD1F2004
:100230004C49088057A296213C2002F0C3FD10BD16
:1002400010B500F03FF9482003F044FA03F096FAA5
:100250004FF4165003F0A6FA00F0F4FA03F006F893
:1002600000F082FE4FF478403E4908804EA23221D1
:100270003C2002F0A7FD4FA246213C2002F0A2FD47
:100280004EA25A213C2002F09DFD10BD38B54E48CB
:10029000B0F9000000280DDA4B480088404200B257
:1002A00049490880002010232D22962100908C209F
:1002B00002F072FC4448B0F900000A2190FBF1F40E
:1002C00010200223224696210090942002F002FD85
:1002D0003D48B0F900000A2190FBF1F201FB120445
:1002E00010200123224696210090AC2002F0F2FC5F
:1002F000C82003F008FA1648006808B9012000E099
:1003000000201349086038BDFFF79AFFFFF740FF50
:1003100007E002F05DFF2C49088000F05DFAFFF76E
:10032000B5FFF6E74E524620436865636B20466191
:10033000696C656421000000506C65617365204341
:100340006865636B212020202020202020000000F1
:10035000A00121424E52462052656164792120203D
:100360002020200018000020445331384232302031
:10037000436865636B204661696C65642100000019
:100380004453313842323020526561647921202053
:100390002020200054656D7065726174653A2020DC
:1003A000202E2043000000004D696E692053544DFB
:1003B0003332000057445F4E524620003230313411
:1003C0002F312F310000000000000020704700BFD7
:1003D000FEE700BFFEE700BFFEE700BFFEE7704795
:1003E00070477047704700000CB5002001900090E6
:1003F0006B48006840F480306949086000BF684875
:10040000006800F4003000900198401C01900098B2
:1004100018B90198B0F5A06FF1D16148006810F4E7
:10042000003F02D00120009001E0002000900098E1
:10043000012842D15B48006840F01000594908602B
:100440000846006820F0030008600846006840F095
:1004500002000860524840685149486008464068B8
:1004600048600846406840F480604860084640683C
:1004700020F47C1048600846406840F4E81048606A
:100480000846006840F08070086000BF444800687B
:1004900010F0007FFAD04248406820F00300404945
:1004A00048600846406840F00200486000BF3C4891
:1004B000406800F00C000828F9D10CBD10B5FFF71A
:1004C00093FF10BD10B53648006840F00100344974
:1004D0000860084640683449084031494860084689
:1004E0000068324908402E4908600846006820F438
:1004F000802008600846406820F4FE0048604FF401
:100500001F008860FFF7DAFF4FF00060284908609D
:1005100010BD10B5002100200022214B5B6803F0C4
:100520000C0121B1042906D0082928D107E0214B6C
:10053000214C236027E01F4B1F4C236023E0184B06
:100540005B6803F47010164B5B6803F4803202237F
:1005500003EB904022B9194B4343174C23600DE045
:100560000F4B5B6813F4003F04D0144B4343124C11
:10057000236003E00F4B43430F4C236003E00D4B1C
:100580000D4C236000BF00BF054B5B68C3F3031332
:100590000B4CE15C084B1B68CB40074C236010BD43
:1005A00000100240002002400000FFF8FFFFF6FEAE
:1005B00008ED00E000127A000400002000093D0070
:1005C0000800002010B502460B460021002000BFA5
:1005D00004E0545C0444E0B24C1CE1B25C1E8C426A
:1005E000F7DC10BD10B588B00024AA222146641C97
:1005F0000DF80120AB222146641C0DF801200222D7
:100600002146641C0DF8012000222146641C0DF8CF
:10061000012002F0DDFD894908800846B0F900009C
:1006200000280BDA2D222146641C0DF80120834896
:100630000088404200B2814908800CE07F48B0F950
:1006400000004FF47A7190FBF1F03030C2B22146D5
:10065000641C0DF801207948B0F900004FF47A715C
:1006600090FBF1F201FB1200642190FBF1F03030BD
:10067000C2B22146641C0DF801207048B0F9000098
:100680004FF47A7190FBF1F201FB1200642190FBB0
:10069000F1F201FB12000A2190FBF1F03030C2B2FE
:1006A0002146641C0DF801206448B0F90000642163
:1006B00090FBF1F201FB120090FBF1F201FB120042
:1006C0000A2190FBF1F201FB12003030C2B2204649
:1006D000611CCCB20DF80020201FC0B28DF80300C1
:1006E000601CC1B26846FFF76DFF2146621CD4B2A0
:1006F0000DF801002146684603F0E4F900BF2146E9
:10070000684602F09FFE2028F9D108B010BD10B550
:1007100088B00024AA222146641C0DF80120AB22D7
:100720002146641C0DF8012001222146641C0DF8AD
:10073000012000222146641C0DF80120CC22214614
:10074000641C0DF801202146641C0DF80120201FB7
:10075000C0B28DF80300611C6846FFF733FF2246E4
:10076000641C0DF802002146684603F0ABF900BF97
:100770002146684602F066FE2028F9D108B010BD77
:1007800070B504460D46E078401DC1B22046FFF723
:1007900019FFE17821440979884200D070BD2078A2
:1007A000AA2802D16078AB2800D0F7E702F0CEFE8D
:1007B000322002F0A8FFA078012801D1FFF7A7FF9F
:1007C000A078022801D1FFF70DFF02F098FE322039
:1007D00002F099FF00BFE1E770B500250024072073
:1007E00002F0F6FD044614F0400F17D0602002F02E
:1007F000EFFD0546212D0DDA2A461149612002F050
:1008000073FD29460E4803F05DF929460C48FFF7B1
:10081000B7FF03E0FF21E22002F0C6FD14F0100F45
:1008200006D014F0010F03D0FF21E12002F0BCFD3F
:100830002146272002F0B8FD70BD00000000002016
:100840005000002008B50121042003F029FE4FF4D8
:100850008070ADF8000010208DF8030003208DF8A3
:10086000020069460E4803F0DFFA4FF480710C482D
:1008700003F085FB0121202003F012FE0420ADF8D7
:10088000000010208DF8030003208DF80200694657
:10089000044803F0C9FA0421024803F070FB08BDC4
:1008A000000801400014014070B505460C4645F2B1
:1008B000555003F005FC284603F005FC204603F0E4
:1008C00005FC03F006FC03F009FC70BD10B503F055
:1008D00000FC10BD08B500208DF8000002208DF846
:1008E000010003208DF80200684603F046F908BDB8
:1008F00070B506460C4615460121C80203F0DDFD21
:10090000284605F0D8F8204605F0DEF8304605F018
:10091000F6F805F0FFF8FFF7DDFF05F0E6F870BD2B
:1009200010B50446204605F0EAF810BD10B57F204A
:1009300005F0DFF805F0EEF80448006808B901207A
:1009400000E000200149086010BD000088812242BB
:100950007FB504460D460121022003F0AEFD41F2B1
:100960008830ADF8080041F61F40ADF804000020C3
:10097000ADF80A00ADF8060001A9174804F052F8D6
:1009800001224121144804F0C4FB1D208DF8000011
:1009900000208DF8010003208DF8020001208DF861
:1009A0000300684603F0E9F801210B4804F096FBC8
:1009B0007FBD10B50121084804F059FE58B101214E
:1009C000054804F065FE0548006808B9012000E00C
:1009D00000200249086010BD0004004088812242C6
:1009E0004FF48071FE4A516149005161FD49086030
:1009F00080215161116189001161704710B54FF07C
:100A00008830F8490C390860091D08600020F54954
:100A100008608815F249086140004861402048613B
:100A2000F1480088A0F50941893902D1022002F07D
:100A300085FE4020EA490861EA48001F006884B248
:100A4000481508614FF03330E6490C390860091D3C
:100A500008604FF6FF70E3490860204610BD10B5EE
:100A600004460B462046FFF7BBFF4FF48070DC497D
:100A7000086140004861DB480360802048610861EC
:100A80008000086110BD10B504462046FFF7A8FF9E
:100A9000FFF7B4FF10BD00B5D3480088A0F513419F
:100AA000413903D12C20FFF79BFF02E02220FFF702
:100AB00097FF00BD4FF48071C94A1161490051612F
:100AC000C849086080215161116189001161704736
:100AD00030B5014601F01F04C1F34513CA0AE5020F
:100AE00005EB43151544A8B230BD2DE9F04105468C
:100AF0000E46F02D02DAB6F5A07F02DB0020BDE83D
:100B0000F0813146284605F03DF9B7480088A0F548
:100B10001341413903D12E20FFF762FF02E022206A
:100B2000FFF75EFF4FF08830AE490C390860091DB1
:100B300008604FF6FF70AB4908608815A849086146
:100B4000400048614020486108614861A64800882B
:100B5000A0F50941893902D1022002F0EFFD4020C1
:100B60009F4908619F48001F006884B29E48008822
:100B7000A0F5134141390DD14020994948610861E0
:100B80009848001F00681FFA80F8E7B24FF6FF7020
:100B900000EA07274FF40070914908614FF03330A5
:100BA00090490C390860091D08604FF6FF708D49A7
:100BB00008608D480088A0F58A41353911D08A48EF
:100BC0000088A0F58A4131390BD087480088A0F50C
:100BD0000941893905D084480088A0F53541053997
:100BE00001D120468BE780480088A0F513414139A8
:100BF00007D1E012C002B91240EA411040EAE820F1
:100C00007DE72046FFF764FF79E700B57648008866
:100C1000A0F51341413903D12920FFF7E1FE04E09B
:100C200040F273110720FFF71AFF00BD00B56E48B0
:100C30000088A0F51341413903D12820FFF7D0FEE9
:100C400003E000210720FFF70AFF00BD70B505464D
:100C50000024002664480088A0F5134141397DD165
:100C6000082D1CD2DFE805F00406090C0F12151838
:100C700000BF14E044F0800411E044F040040EE0B2
:100C800044F0C0040BE044F0200408E044F06004A9
:100C900005E044F0A00402E044F0E00400BF00BF1F
:100CA000362644F0080421463046FFF7D8FE14F0FB
:100CB000200F75D02A20FFF793FE4FF4807048492B
:100CC000086140004861002046490860802044498E
:100CD0004861086180000861401008614000486177
:100CE00000204049086080203D494861086180003B
:100CF00008614010086140004861012039490860DE
:100D0000802037494861086180000861401008610F
:100D1000400048613F2033490860802030494861E5
:100D20000861800008612B20FFF75AFE4FF48070A5
:100D30002B4908614000486100202A490860802052
:100D4000274948610861800008614010086140003F
:100D50004861002023490860802000E09AE0204993
:100D600048610861800008614010086140004861E6
:100D700000201C49086080201949486108618000F2
:100D800008614010086140004861EF201549086083
:100D9000802013494861086180000861ACE0FFE7EA
:100DA0002A20FFF71DFE4FF480700D4908614000B6
:100DB000486100200B4908608020094948610861AA
:100DC000800008614010086140004861002005492A
:100DD000086080200249486108618000086105E0E0
:100DE000001001400C0C01401C0000204010086164
:100DF000400048610020FE4908608020FD494861AC
:100E00000861800008614010086140004861EF20DF
:100E1000F74908608020F74948610861800008614F
:100E20002B20FFF7DDFD4FF48070F2490861400090
:100E300048610020EE4908608020EE494861086161
:100E40008000086140100861400048610020E849C6
:100E500008608020E749486108618000086140100F
:100E60000861400048610120E14908608020E149B3
:100E700048610861800008614010086140004861D5
:100E80003F20DB4908608020DA4948610861800022
:100E9000086131E0082D1CD2DFE805F004070A0DD7
:100EA0000F12151844F0300413E044F0100410E061
:100EB00044F020040DE000BF0BE044F0380408E0EB
:100EC00044F0280405E044F0180402E044F008046B
:100ED00000BF00BFC8480088A0F50941893904D186
:100EE000112646F24000044302E0032644F48054F5
:100EF00021463046FFF7B3FD70BD70B504460D4680
:100F00002946204604F03EFFFFF7C5FD4FF48070F0
:100F1000B849086140004861B8480088B449086091
:100F20008020B449486108618000086170BD70B5D7
:100F3000044600250021084604F024FFFFF7ABFD1E
:100F400000BF0DE04FF48070AA490861400048617D
:100F5000A7480460802048610861800008616D1C1A
:100F6000B5F5963FEED370BD08B50121192003F009
:100F700097FA0121A24803F026F84FF4F860ADF883
:100F8000000010208DF8030003208DF80200694650
:100F9000984802F049FF4FF4F861964802F0EFFFDD
:100FA0004FF6FF70ADF80000694691480C3802F02A
:100FB0003BFF4FF6FF718E480C3802F0E0FF322005
:100FC00002F0A1FB01210020FFF749FD322002F0D1
:100FD0009AFB0020FFF757FD8749088008460088E4
:100FE00028B108460088A0F57F41FF391BD1D320E6
:100FF000FFF7F6FCFFF702FDFFF700FDFFF7FEFC31
:1010000000F0BF007C490880084600884FF6FF7159
:1010100001EA002078490880FFF7F0FC764909884A
:101020000843754908807448018876A004F07EFD65
:1010300071480088A0F5134141397DD1CF20FFF7D9
:10104000CFFC4FF480706B4908614000486100207C
:10105000674908608020674948610861800008612D
:101060004010086140004861C1206149086080204B
:1010700060494861086180000861401008614000D3
:10108000486130205A49086080205A494861086107
:1010900080000861ED20FFF7A3FC4FF480705549F4
:1010A000086140004861642051490860802051492E
:1010B0004861086180000861401008614000486193
:1010C00003204B49086080204A494861086180003C
:1010D00008614010086140004861122044490860DE
:1010E000802044494861086180000861401008611F
:1010F0004000486181203E49086080203D494861A8
:10110000086180000861E820FFF76AFC4FF48070F6
:1011100038490861400048618520354908608020D1
:10112000344948610861800008614010086140004E
:10113000486110202E4900E08AE3086080202D4994
:101140004861086180000861401008614000486102
:101150007A2027490860802026494861086180007C
:101160000861CB20FFF73CFC4FF4807021490861F7
:101170004000486139201E49086080201D494861AF
:1011800008618000086140100861400048612C201F
:10119000174908608020174948610861800008618C
:1011A000401008614000486100201149086080201B
:1011B00010494861086180000861401008614000E2
:1011C000486134200A49086080200A494861086162
:1011D0008000086140100861400048610220044915
:1011E000086080200349486108618000086111E0BF
:1011F0000C0C0140001001401C00002018000020D1
:1012000000023000204C43442049443A25780D0A1E
:1012100000000000F720FFF7E3FB4FF48070FE4969
:101220000861400048612020FC4908608020FA499C
:101230004861086180000861EA20FFF7D1FB4FF4A4
:101240008070F5490861400048610020F34908605A
:101250008020F14948610861800008614010086100
:10126000400048610020ED4908608020EA4948615B
:10127000086180000861C020FFF7B2FB4FF4807066
:10128000E5490861400048611B20E449086080206E
:10129000E1494861086180000861C120FFF7A0FBB7
:1012A0004FF48070DC490861400048610120DB494F
:1012B00008608020D8494861086180000861C52025
:1012C000FFF78EFB4FF48070D349086140004861FE
:1012D0003020D24908608020CF49486108618000F1
:1012E000086140100861400048613020CB49086027
:1012F0008020C9494861086180000861C720FFF764
:101300006FFB4FF48070C449086140004861B7200A
:10131000C24908608020C0494861086180000861B6
:101320003620FFF75DFB4FF48070BB490861400039
:1013300048614820B94908608020B7494861086180
:10134000800008613A20FFF74BFB4FF48070B249F0
:101350000861400048615520B04908608020AE49CE
:101360004861086180000861B120FFF739FB4FF444
:101370008070A9490861400048610020A7490860C1
:101380008020A5494861086180000861401008611B
:10139000400048611A20A149086080209E494861A8
:1013A000086180000861B620FFF71AFB4FF48070D7
:1013B00099490861400048610A20984908608020E6
:1013C000954948610861800008614010086140004B
:1013D0004861A2209149086080208F4948610861D6
:1013E00080000861F220FFF7FBFA4FF480708A4911
:1013F00008614000486100208849086080208649D3
:1014000048610861800008612620FFF7E9FA4FF47F
:101410008070814908614000486101207F4908606F
:1014200080207D494861086180000861E020FFF765
:10143000D7FA4FF4807078490861400048610F2066
:10144000764908608020744948610861800008611D
:1014500040100861400048612A20704908608020DF
:101460006D494861086180000861401008614000D2
:1014700048612820694908608020674948610861FF
:1014800080000861401008614000486108206349FD
:101490000860802060494861086180000861401050
:1014A0000861400048610E205C49086080205A496C
:1014B000486108618000086140100861400048618F
:1014C000082056490860802053494861086180001F
:1014D0000861401008614000486154204F4908608D
:1014E00080204D4948610861800008614010086112
:1014F00040004861A9204949086080204649486168
:101500000861800008614010086140004861432084
:1015100042490860802040494861086180000861B4
:1015200040100861400048610A203C490860802062
:101530003949486108618000086140100861400035
:1015400048610F20354908608020334948610861AF
:1015500080000861401008614000486100202F4968
:10156000086080202C4948610861800008614010B3
:101570000861400048610020284908608020264911
:1015800048610861800008614010086140004861BE
:1015900000202249086080201F49486108618000BE
:1015A0000861401008614000486100201B49086044
:1015B000802019494861086180000861E120FFF737
:1015C0000FFA4FF480701449086140004861002010
:1015D0001249086080201049486108618000086154
:1015E000401008614000486115200C4908608020C7
:1015F00009494861086180000861401008614000A5
:101600004861172005490860802003494861086146
:1016100080000861401003E0001001400C0C014004
:101620000861400048610720F84908608020F849B7
:10163000486108618000086140100861400048610D
:101640001120F24908608020F1494861086180005A
:10165000086140100861400048610620EB490860BD
:101660008020EB49486108618000086140100861F2
:10167000400048612B20E54908608020E44948612A
:1016800008618000086140100861400048615620F0
:10169000DE4908608020DE494861086180000861F9
:1016A00040100861400048613C20D8490860802013
:1016B000D749486108618000086140100861400016
:1016C00048610520D14908608020D14948610861FE
:1016D0008000086140100861400048611020CB493B
:1016E00008608020CA494861086180000861401094
:1016F0000861400048610F20C44908608020C44947
:10170000486108618000086140100861400048613C
:101710003F20BE4908608020BD49486108618000C3
:10172000086140100861400048613F20B7490860E7
:101730008020B74948610861800008614010086155
:10174000400048610F20B14908608020B0494861DD
:101750000861800008612B20FFF742F94FF4807088
:10176000AB490861400048610020A849086080201A
:10177000A749486108618000086140100861400085
:1017800048610020A14908608020A14948610861A2
:1017900080000861401008614000486101209B49B9
:1017A000086080209A494861086180000861401003
:1017B0000861400048613F209449086080209449B6
:1017C00048610861800008612A20FFF709F94FF499
:1017D00080708F4908614000486100208B49086093
:1017E00080208B49486108618000086140100861D1
:1017F0004000486100208549086080208449486194
:1018000008618000086140100861400048610020C4
:101810007E49086080207E49486108618000086137
:101820004010086140004861EF207849086080203E
:10183000774948610861800008611120FFF7D0F8FE
:10184000782001F060FF2920FFF7CAF801F090B876
:1018500070480088A0F5134125397DD147F6F00185
:10186000E520FFF7FCF84FF480710120FFF7F7F84F
:101870004FF4E0610220FFF7F2F841F2300103205B
:10188000FFF7EDF800210420FFF7E9F840F202210C
:101890000820FFF7E4F800210920FFF7E0F8002115
:1018A0000A20FFF7DCF800210C20FFF7D8F8002110
:1018B0000D20FFF7D4F800210F20FFF7D0F800210A
:1018C0001020FFF7CCF807211120FFF7C8F80021FE
:1018D0001220FFF7C4F800211320FFF7C0F8002101
:1018E0000720FFF7BCF841F290611020FFF7B7F82E
:1018F00040F227211120FFF7B2F89D211220FFF7B7
:10190000AEF84FF4C8511320FFF7A9F8252129207C
:10191000FFF7A5F80D212B20FFF7A1F807213020B4
:10192000FFF79DF840F203313120FFF798F80321CB
:101930003220FFF794F840F206213520FFF78FF8A8
:1019400008213620FFF78BF840F206413720FFF7D9
:1019500086F84FF4417100E05EE03820FFF77FF831
:1019600007213920FFF77BF840F202613C20FFF7A6
:1019700076F808213D20FFF772F800215020FFF78C
:101980006EF8EF215120FFF76AF800215220FFF78F
:1019900066F840F23F115320FFF761F84FF42741FA
:1019A0006020FFF75CF801216120FFF758F8002163
:1019B0006A20FFF754F800218020FFF750F800213B
:1019C0008120FFF74CF800218220FFF748F8002122
:1019D0008320FFF744F800218420FFF740F800211E
:1019E0008520FFF73CF810219020FFF738F84FF4DE
:1019F000C0619220FFF733F840F233110720FFF760
:101A00002EF822210020FFF72AF81FE70C0C0140D6
:101A1000001001401C000020FE480088A0F5134182
:101A200028397DD11021E720FFF719F80121002086
:101A3000FFF715F84FF480710120FFF710F84FF40D
:101A4000E0610220FFF70BF841F230010320FFF7BD
:101A500006F800210420FFF702F840F207210820D1
:101A6000FEF7FDFF00210920FEF7F9FF00210A2003
:101A7000FEF7F5FF01210C20FEF7F1FF00210D20FC
:101A8000FEF7EDFF00210F20FEF7E9FF00211020F7
:101A9000FEF7E5FF07211120FEF7E1FF00211220EC
:101AA000FEF7DDFF00211320FEF7D9FF322001F001
:101AB0002AFE41F290511020FEF7D1FF40F227217B
:101AC0001120FEF7CCFF322001F01DFE9C211220D8
:101AD000FEF7C5FF322001F016FE4FF4C851132067
:101AE000FEF7BDFF23212920FEF7B9FF0E212B2091
:101AF000FEF7B5FF322001F006FE00212020FEF7A0
:101B0000AEFF40F23F112120FEF7A9FF322001F085
:101B1000FAFD07213020FEF7A2FF40F2077100E036
:101B200087E03120FEF79BFF06213220FEF797FF6A
:101B300040F204713520FEF792FF41F60471362021
:101B4000FEF78DFF04213720FEF789FF00213820A2
:101B5000FEF785FF40F206713920FEF780FF40F264
:101B600001713C20FEF77BFF0F213D20FEF777FF40
:101B7000322001F0C8FD00215020FEF770FFEF2158
:101B80005120FEF76CFF00215220FEF768FF40F263
:101B90003F115320FEF763FF4FF427416020FEF70B
:101BA0005EFF01216120FEF75AFF00216A20FEF747
:101BB00056FF00218020FEF752FF00218120FEF712
:101BC0004EFF00218220FEF74AFF00218320FEF70E
:101BD00046FF00218420FEF742FF00218520FEF70A
:101BE0003EFF10219020FEF73AFF00219220FEF7E1
:101BF00036FF03219320FEF732FF4FF488719520C2
:101C0000FEF72DFF00219720FEF729FF00219820E5
:101C1000FEF725FF40F233110720FEF720FF0021D9
:101C20002020FEF71CFF40F23F112120FEF717FF96
:101C30000CE678480088A0F51341203904D0754897
:101C40000088B0F5134F7DD100210846FEF707FF4D
:101C50004FF480710120FEF702FF4FF4E061022093
:101C6000FEF7FDFE41F230010320FEF7F8FE0021F1
:101C70000420FEF7F4FE40F202210820FEF7EFFEFA
:101C800000210920FEF7EBFE00210A20FEF7E7FE07
:101C900001210C20FEF7E3FE00210D20FEF7DFFE00
:101CA00000210F20FEF7DBFE322001F02CFD40F278
:101CB00001110720FEF7D3FE322001F024FD4FF47E
:101CC00086511020FEF7CBFE07211120FEF7C7FE3C
:101CD0004FF488711220FEF7C2FE4FF430611320DA
:101CE000FEF7BDFE00212920FEF7B9FE44F21001E7
:101CF0002B20FEF7B4FE00215020FEF7B0FEEF21AE
:101D00005120FEF7ACFE00215220FEF7A8FE40F263
:101D10003F115320FEF7A3FE4FF41C516020FEF745
:101D20009EFE01216120FEF79AFE00216A20FEF747
:101D300096FE00218020FEF792FE00218120FEF712
:101D40008EFE00E02EE000218220FEF788FE0021BA
:101D50008320FEF784FE00218420FEF780FE002110
:101D60008520FEF77CFE10219020FEF778FE0021F2
:101D70009220FEF774FE01219320FEF770FE4FF4CF
:101D800088719520FEF76BFE00219720FEF767FE15
:101D900000219820FEF763FE40F273110720FEF742
:101DA0005EFE53E51B480088A0F5A84108397DD1A7
:101DB0004FF480710120FEF752FE4FF4E0610220E3
:101DC000FEF74DFE41F230010320FEF748FE0021F0
:101DD0000420FEF744FE40F207210820FEF73FFEF4
:101DE00000210920FEF73BFE00210A20FEF737FE06
:101DF00000210C20FEF733FE00210D20FEF72FFE00
:101E000000210F20FEF72BFE142001F07CFC41F294
:101E1000B06101E01C0000201020FEF720FE01212F
:101E20001120FEF71CFE01211720FEF718FE4FF4CB
:101E30009C711220FEF713FE4FF400611320FEF791
:101E40000EFE09212920FEF70AFE09212A20FEF7AD
:101E500006FE0021A420FEF702FE00215020FEF71E
:101E6000FEFDEF215120FEF7FAFD00215220FEF782
:101E7000F6FD40F23F115320FEF7F1FD4FF41C51E7
:101E80006020FEF7ECFD01216120FEF7E8FD002156
:101E90006A20FEF7E4FD00218020FEF7E0FD00212E
:101EA0008120FEF7DCFD0021822000E027E0FEF724
:101EB000D6FD00218320FEF7D2FD00218420FEF70D
:101EC000CEFD00218520FEF7CAFD13219020FEF7EC
:101ED000C6FD00219220FEF7C2FD03219320FEF7EC
:101EE000BEFD4FF488719520FEF7B9FD40F27311E5
:101EF0000720FEF7B4FD322001F005FCA6E4FE4801
:101F00000088A0F5A85105397ED10720FEF7A7FD6E
:101F1000322001F0F8FB4FF48E711220FEF79FFD86
:101F20000121A420FEF79BFD0F210820FEF797FD5D
:101F300008210A20FEF793FD08210D20FEF78FFDF2
:101F400040F207713020FEF78AFD07213120FEF7AD
:101F500086FD40F203613220FEF781FD4FF4E0611F
:101F60003320FEF77CFD40F202213420FEF777FD9E
:101F700002213520FEF773FD41F60F713620FEF782
:101F80006EFD40F207713720FEF769FD0021382011
:101F9000FEF765FD00213920FEF761FD40F2077173
:101FA0003A20FEF75CFD00213B20FEF758FD07219B
:101FB0003C20FEF754FD00213D20FEF750FD32206D
:101FC00001F0A1FB01210720FEF749FD01211720A7
:101FD000FEF745FD322001F096FB4FF4BD51102075
:101FE000FEF73DFD40F217211120FEF738FD4FF4BA
:101FF0008F711220FEF733FD4FF470611320FEF74E
:102000002EFD00212A2000E093E0FEF728FD0A21A2
:102010002920FEF724FD4FF49F711220FEF71FFDCB
:1020200000215020FEF71BFDEF215120FEF717FD88
:1020300000215220FEF713FD40F23F115320FEF71E
:102040000EFD4FF41C516020FEF709FD01216120B7
:10205000FEF705FD00216A20FEF701FD002180202A
:10206000FEF7FDFC00218120FEF7F9FC0021822013
:10207000FEF7F5FC00218320FEF7F1FC002184200F
:10208000FEF7EDFC00218520FEF7E9FC13219020EE
:10209000FEF7E5FC4FF440719220FEF7E0FC0521CD
:1020A0009320FEF7DCFC00219520FEF7D8FC0021F0
:1020B0009720FEF7D4FC00219820FEF7D0FC4FF4C7
:1020C00080710120FEF7CBFC4FF4E0610220FEF7A7
:1020D000C6FC41F230010320FEF7C1FC00210420C0
:1020E000FEF7BDFC00210C20FEF7B9FC00210F20FB
:1020F000FEF7B5FC00212020FEF7B1FC00212120D5
:10210000FEF7ADFC21210720FEF7A9FC142001F009
:10211000FAFA61210720FEF7A2FC142001F0F3FA7D
:1021200040F273110720FEF79AFC142001F0EBFA3D
:102130006BE471480088A0F5354105397DD108462A
:10214000FEF78DFC00210846FEF789FC00210846B9
:10215000FEF785FC00210846FEF781FC0121A42042
:10216000FEF77DFC142001F0CEFA4FF41C516020E4
:10217000FEF775FC40F202210820FEF770FC4FF4D8
:1021800005713020FEF76BFC43F215713120FEF72C
:1021900066FC40F204613220FEF761FC40F61661F5
:1021A0003320FEF75CFC42F211213420FEF757FC8D
:1021B0004FF4A8513520FEF752FC48F20751362063
:1021C000FEF74DFC41F207413720FEF748FC41F293
:1021D00003413820FEF743FC20213920FEF73FFC65
:1021E0001A219020FEF73BFC00211020FEF737FC5F
:1021F00007211120FEF733FC00211220FEF72FFCEF
:1022000000211320FEF72BFC142001F07CFA4FF480
:10221000E6611020FEF723FC40F237111120FEF793
:102220001EFC142001F06FFA4FF4DC711220FEF74F
:1022300016FC142001F067FA00E086E04FF47061AC
:102240001320FEF70CFC80212A20FEF708FC482111
:102250002920FEF704FC142001F055FA4FF4807198
:102260000120FEF7FCFB4FF4E0610220FEF7F7FBD4
:1022700041F230210320FEF7F2FB40F20221082058
:10228000FEF7EDFB00210A20FEF7E9FB00210C2000
:10229000FEF7E5FB00210D20FEF7E1FB30210E20CB
:1022A000FEF7DDFB00215020FEF7D9FBEF21512086
:1022B000FEF7D5FB00215220FEF7D1FB40F23F1183
:1022C0005320FEF7CCFB4FF41C516020FEF7C7FBF8
:1022D00001216120FEF7C3FB00216A20FEF7BFFB4E
:1022E00011219020FEF7BBFB4FF4C0619220FEF756
:1022F000B6FB40F2024101E01C0000209320FEF7F3
:10230000AEFB02219420FEF7AAFB142001F0FBF99A
:1023100001210720FEF7A3FB142001F0F4F961214D
:102320000720FEF79CFB40F273110720FEF797FB96
:1023300000212020FEF793FB00212120FEF78FFBD8
:1023400022210020FEF78BFB12E3FE480088A0F557
:10235000454105397DD10846FEF781FB002108463D
:10236000FEF77DFB142001F0CEF900210846FEF7B0
:1023700076FB00210846FEF772FB00210846FEF7B7
:102380006EFB00210846FEF76AFB0121A420FEF740
:1023900066FB142001F0B7F94FF41C516020FEF7E2
:1023A0005EFB40F606010820FEF759FB40F2037180
:1023B0003020FEF754FB01213120FEF750FB0421B1
:1023C0003220FEF74CFB4FF481713320FEF747FBC0
:1023D0004FF440713420FEF742FB40F203113520E8
:1023E000FEF73DFB1F213620FEF739FB40F203715B
:1023F0003720FEF734FB01213820FEF730FB0421A3
:102400003920FEF72CFB15219020FEF728FB4FF416
:1024100082611020FEF723FB40F247211120FEF7D6
:102420001EFB4FF4DE711220FEF719FB4FF46061C2
:102430001320FEF714FB782001F065F94FF480714A
:102440000120FEF70CFB4FF400710220FEF707FBA2
:1024500000E050E041F230010320FEF700FB0821CC
:102460000A20FEF7FCFA00210C20FEF7F8FA2021E2
:102470000E20FEF7F4FA00210F20FEF7F0FA0021FB
:102480002020FEF7ECFA00212120FEF7E8FA3D219A
:102490002A20FEF7E4FA142001F035F92D21292035
:1024A000FEF7DDFA00215020FEF7D9FA4DF2EF01D8
:1024B0005120FEF7D4FA00215220FEF7D0FA40F264
:1024C0003F115320FEF7CBFA00216120FEF7C7FA37
:1024D00000216A20FEF7C3FA4FF440719220FEF704
:1024E000BEFA05219320FEF7BAFA4FF48071072057
:1024F000FEF7B5FA3CE293480088A0F50941893916
:102500007DD101210020FEF7AAFA4AF6A40103209A
:10251000FEF7A5FA00210C20FEF7A1FA40F60C0107
:102520000D20FEF79CFA4FF42C510E20FEF797FA7F
:10253000B0211E20FEF793FA42F63F310120FEF74C
:102540008EFA4FF4C0610220FEF789FA00211020B4
:10255000FEF785FA46F270011120FEF780FA00219D
:102560000520FEF77CFA00210620FEF778FA4EF6E9
:102570001C711620FEF773FA03211720FEF76FFA7D
:1025800040F233210720FEF76AFA00210B20FEF704
:1025900066FA00210F20FEF762FA00214120FEF7C3
:1025A0005EFA00214220FEF75AFA00214820FEF789
:1025B00056FA40F23F114920FEF751FA00214A2015
:1025C000FEF74DFA00214B20FEF749FA4FF46F4118
:1025D0004420FEF744FA00214520FEF740FA40F27D
:1025E0003F114620FEF73BFA40F207713020FEF71C
:1025F00036FA4FF401713120FEF731FA00E03DE088
:102600004FF401713220FEF72AFA40F202513320D2
:10261000FEF725FA40F207513420FEF720FA4FF476
:1026200001713520FEF71BFA4FF401713620FEF7D9
:1026300016FA40F202513720FEF711FA40F2023149
:102640003A20FEF70CFA40F202313B20FEF707FA7F
:1026500000212320FEF703FA00212420FEF7FFF9D2
:102660004FF400412520FEF7FAF900214F20FEF734
:10267000F6F900214E20FEF7F2F979E131480088A1
:10268000A0F58A4131397CD101210020FEF7E7F91C
:102690000A2001F038F841F228611020FEF7DFF936
:1026A0000E211220FEF7DBF940F639211320FEF748
:1026B000D6F90A2001F027F840211120FEF7CFF9C2
:1026C00050211520FEF7CBF90A2001F01CF81E213D
:1026D0001220FEF7C4F90A2001F015F84FF4B151A9
:1026E0001020FEF7BCF942F639211320FEF7B7F9A6
:1026F0000A2001F008F84FF480710120FEF7AFF9CD
:102700004FF440710220FEF7AAF941F23001032094
:10271000FEF7A5F940F202210820FEF7A0F90821F2
:102720000A20FEF79CF900213020FEF798F940F2CC
:1027300002413120FEF793F94FF483713220FEF706
:102740008EF901E01C00002040F203513320FEF717
:1027500086F94FF482713420FEF781F940F201319D
:102760003520FEF77CF940F207713620FEF777F945
:1027700040F205313720FEF772F94FF4027138202C
:1027800000E040E0FEF76BF940F60B713920FEF7F0
:1027900066F902214120FEF762F94FF41C516020D6
:1027A000FEF75DF901216120FEF759F94FF404713C
:1027B0009020FEF754F94FF485719220FEF74FF9FF
:1027C00004219320FEF74BF94FF48071A020FEF70F
:1027D00046F901210720FEF742F921210720FEF7E3
:1027E0003EF923210720FEF73AF933210720FEF7AF
:1027F00036F940F233110720FEF731F90021A0200D
:10280000FEF72DF9B4E0FA480088A0F58A41353981
:10281000F8D130211520FEF722F910219A20FEF779
:102820001EF920211120FEF71AF943F22841102049
:10283000FEF715F902211220FEF711F941F23801D5
:102840001320FEF70CF9282000F05DFF1221084646
:10285000FEF705F9282000F056FF43F22041102032
:10286000FEF7FDF843F238011320FEF7F8F8462092
:1028700000F049FF00213020FEF7F1F840F202415C
:102880003120FEF7ECF840F207313220FEF7E7F88E
:102890004FF441713320FEF7E2F804213420FEF7B3
:1028A000DEF840F201413520FEF7D9F840F2077119
:1028B0003620FEF7D4F840F205313720FEF7CFF886
:1028C0004FF4C2613820FEF7CAF84FF4C2613920D4
:1028D000FEF7C5F84FF480710120FEF7C0F84FF401
:1028E00040710220FEF7BBF841F230010320FEF7F1
:1028F000B6F840F608010820FEF7B1F808210A20D2
:10290000FEF7ADF84FF41C516020FEF7A8F8012146
:102910006120FEF7A4F84FF49F719020FEF79FF816
:102920004FF480719220FEF79AF84FF48071932053
:10293000FEF795F84FF44051A020FEF790F81021D3
:10294000A320FEF78CF801210720FEF788F821214B
:102950000720FEF784F823210720FEF780F83321B3
:102960000720FEF77CF840F233110720FEF777F8D6
:102970000020FEF76BF901209E4908604FF6FF70BA
:10298000FEF7D5FA08BD2DE9F05F05460E4617465D
:102990009846DDF828A04FF0000B0020FEF756F90E
:1029A000781B401C1FFA80FB34461EE02146284657
:1029B00003F0E8F9FEF76FF84FF0000911E04FF46B
:1029C00080708D490861400048618C48C0F800A0C3
:1029D0008020486108618000086109F101001FFA48
:1029E00080F9D945EBDB601C84B24445DEDD002074
:1029F000FEF72CF9BDE8F09F2DE9FF4F85B0814629
:102A00008A460020049003900798A0EB09050898D7
:102A1000A0EB0A06CDF80890CDF804A0002D01DD4A
:102A2000012705E00DB9002702E04FF0FF376D42A6
:102A3000002E02DD4FF0010806E016B94FF0000845
:102A400002E04FF0FF387642B54201DD2C4600E04F
:102A500034464FF0000B21E0019A91B2029A90B2F5
:102A6000FEF74BFA049828440490039830440390EE
:102A70000498A04205DD0498001B04900298384495
:102A800002900398A04205DD0398001B0390019873
:102A9000404401900BF101001FFA80FB601C83454C
:102AA000DADD09B0BDE8F08F2DE9F04104460D46AE
:102AB00016461F462B46324629462046FFF79CFF06
:102AC0003B46224629462046FFF796FF3B463246C4
:102AD00039462046FFF790FF3B46324629463046AE
:102AE000FFF78AFFBDE8F0812DE9F04706460F4663
:102AF0009046002445460320A0EB480948E03A1BD5
:102B000091B2721B90B2FEF7F8F93A1B91B27219AA
:102B100090B2FEF7F2F97A1991B2321B90B2FEF739
:102B2000ECF93A1B91B2721B90B2FEF7E6F97A1BF0
:102B300091B2321B90B2FEF7E0F93A1991B27219D4
:102B400090B2FEF7DAF97A1B91B2321990B2FEF721
:102B5000D4F97A1991B2321990B2FEF7CEF93A1936
:102B600091B2721B90B2FEF7C8F9641CB9F1000F64
:102B700003DAA000801D814404E0601B80000A305D
:102B800081446D1E7A1991B2321990B2FEF7B5F9EF
:102B9000AC42B4DDBDE8F0872DE9F84F0746894621
:102BA00016461D46BB46164800880090E82F02DCFA
:102BB000B9F59C7F01DDBDE8F88FA6F12000C6B213
:102BC0000A98002848D1002443E00C2D07D106EBD9
:102BD00046000C4901EB800010F804A004E00A480C
:102BE00000EB061010F804A04FF0000825E00000EC
:102BF0001C000020A8012242001001400C0C0140E2
:102C000018000020C0610008346600081AF0010FA7
:102C100003D07F490098088003E07E4800887C4903
:102C2000088049463846FEF768F94FEA6A0A781C78
:102C300087B208F1010000F0FF0805EBD571B8EB91
:102C4000610FE3DB5F4609F101001FFA80F9601CA8
:102C5000C4B2AC42B9DB2DE0002429E00C2D07D131
:102C600006EB46006C4901EB800010F804A004E07C
:102C70006A4800EB061010F804A04FF0000810E0BE
:102C80001AF0010F07D009EB040291B207EB08021A
:102C900090B2FEF732F94FEA6A0A08F1010000F03B
:102CA000FF0805EBD571B8EB610FE9DB601CC4B21E
:102CB000AC42D3DB56490098088000BF7BE710B5D3
:102CC0000246012000E050430B00A1F10104E1B2F3
:102CD000F9D110BD2DE9FF4F81B0074691461E4640
:102CE0000E9D4FF0000A002439E0301B401EC1B297
:102CF0000A20FFF7E4FFB9FBF0F00A21B0FBF1F284
:102D000001FB1208BAF1000F16D1701EA04213DDAC
:102D1000B8F1000F0ED10020AB4605EBDB71491076
:102D200001FB0471009088B22B4620220299FFF724
:102D300033FF12E04FF0010A0020AB4605EBDB71D8
:102D4000491001FB0471009088B208F13001CAB249
:102D50002B460299FFF720FF00BF601CC4B2B442AB
:102D6000C3DB05B0BDE8F08F2DE9FF4F81B007460A
:102D700090461D46DDE90E6A00241EE0281B401E19
:102D8000C1B20A20FFF79BFFB8FBF0F00A21B0FBAD
:102D9000F1F201FB1209B34606EBDB71491001FBAE
:102DA000047188B209F13001CAB23346CDF800A0EF
:102DB0000299FFF7F1FE601CC4B2AC42DEDB05B045
:102DC000BDE8F08FF8B505460E4614461BE0E82D29
:102DD00003DD002506F1100086B2B6F59C7F06DD06
:102DE0000020054606464FF6FF70FEF7A0F80020CB
:102DF00000902278102331462846FFF7CDFE05F1DA
:102E0000080085B2641C20780028E0D1F8BD0000DD
:102E1000180000201A000020C06100083466000875
:102E200010B50121042000F0E2FE0121080701F0A5
:102E300044FB012001F07EF901F09AF910BD10B5B4
:102E400000214FF4FE7001F045FBFFF7E9FF10BDD4
:102E500070B50025002400202F4908601BE02F4892
:102E6000006818B1681CC5B2002409E0601CC4B237
:102E7000032C05DD0120284908604FF0000070BDDB
:102E80001E2000F040FC642D05DB00202249086074
:102E90004FF00100F3E7E2E710B501202049086098
:102EA000FFF7D6FF08B1FFF7CAFF10BD1FB501211C
:102EB000052001F0F5FA0120ADF80C0028208DF86E
:102EC0000F0003A9174800F0AFFF0021084601F0EA
:102ED000BFF80120009000208DF8040008208DF834
:102EE000050001208DF80600684600F0BDFE0620B2
:102EF0008DF8080002208DF809008DF80A000120E5
:102F00008DF80B0002A800F038FEFFF7A1FF08B90A
:102F1000FFF786FF1FBD0000A001214200012142F2
:102F2000140401400008014070B50546002405E086
:102F3000601CC4B2C82C01DD002070BD02212E48E7
:102F400001F065FC0028F3D029462B4801F00CFC69
:102F5000002400BF0121284801F059FC0028F9D0C5
:102F6000641CC82C01DD0020E7E7234801F0FEFBCC
:102F7000C0B2E2E708B5012141F2040001F090FA85
:102F8000E020ADF8000018208DF8030003208DF834
:102F900002006946194800F047FFE021174800F099
:102FA000EEFF0020164908804FF482704880002010
:102FB0008880C88008814FF400704881382088815B
:102FC0000020C881072008820B4801F0F7FA012190
:102FD000094801F098FBFF20FFF7A6FF08BD10B5D8
:102FE0000446074884810146034801F0E7FA0121BD
:102FF000014801F088FB10BD00300140000801408D
:103000009000002010B59448006820F0F00092492C
:1030100008600846006840F03000086000208F49D2
:10302000086040F2EE2000F089FB01208C49C1F8D5
:1030300084010F2000F082FB10BD10B500248648EB
:10304000006820F0F000844908600846006840F0FD
:103050008000086004E0601CC4B2012000F06EFB38
:103060008048006808B1C82CF5DBC82C01DB0120C2
:1030700010BD002404E0601CC4B2012000F05EFB1F
:103080007848006808B9F02CF5DBF02C01DB012052
:10309000EEE70020ECE710B56F48006820F0F00084
:1030A0006D4908600846006840F030000860002064
:1030B0006A4908604FF0020000F040FB01206849B7
:1030C000C1F884016448006820F0F000624908609B
:1030D0000846006840F0800008600C2000F02EFBDD
:1030E0006048006808B1012400E00024322000F0AC
:1030F00025FB204610BD70B50026012508E0FFF72E
:10310000CAFF0446E00140EA6600C6B2681CC5B2C8
:10311000082DF4DD304670BD70B504464E48006899
:1031200020F0F0004C4908600846006840F030008C
:103130000860012522E004F00106641076B1002049
:10314000464908604FF0020000F0F8FA01204449B7
:10315000C1F884013C2000F0F1FA0DE000203F4965
:1031600008604FF03C0000F0E9FA01203C49C1F84A
:103170008401022000F0E2FA681CC5B2082DDADDF5
:1031800070BD10B5FFF73EFFFFF757FFCC20FFF7EC
:10319000C3FF4420FFF7C0FF10BD08B50121042084
:1031A00001F07EF90120ADF8000010208DF8030039
:1031B00003208DF802006946274800F035FE012102
:1031C000254800F0DCFEFFF71DFFFFF736FF08BDC6
:1031D0002DE9F84FFFF7D5FFFFF714FFFFF72DFF9D
:1031E000CC20FFF799FFBE20FFF796FFFFF783FF84
:1031F0008346FFF780FF0446072C08DDE043C4B296
:103200006FEA0B0000F0FF0B4FF0000A01E04FF0F7
:10321000010AA1464FEA09200FFA80F909EB0B00D9
:103220000FFA80F9484602F06DFF009002F03EFF71
:10323000074600220C4B02F03BFE054602F008FE5A
:103240000FFA80F9BAF1000F02D04846BDE8F88FB6
:10325000C9F1000000B2F9E70008014084012142F1
:1032600000002142040121420000E43F08B5012191
:10327000142001F015F91C20ADF8000010208DF885
:10328000030003208DF802006946FE4800F0CCFDE3
:103290001C21FC4800F073FE1020ADF800008DF8F2
:1032A000030003208DF802006946F74800F0BCFDDA
:1032B0001021F54800F063FE2020ADF80000482002
:1032C0008DF8030003208DF802006946EE4800F0F7
:1032D000ABFDFFF74FFE1021EA4800F052FE10212F
:1032E000E94800F04CFE08BD2DE9F04107460D46C7
:1032F00016461021E44800F044FE3846FFF714FE5D
:103300008046002405E0FF20FFF70EFE2855601CD4
:10331000C4B2B442F7DB1021DB4800F030FE404677
:10332000BDE8F0812DE9F04107460C461546102115
:10333000D54800F026FE3846FFF7F6FD8046002609
:1033400005E014F8010BFFF7EFFD701CC6B2AE42AA
:10335000F7DB1021CC4800F012FE4046BDE8F081BA
:103360001CB5CAA103C9CDE900011020FFF737FE43
:10337000052269463020FFF7D5FF05226946102057
:10338000FFF7B2FF002406E01DF80400A52800D0D6
:1033900003E0601CC4B2052CF6DB00BF052C01D095
:1033A00001201CBD0020FCE770B505460C4610212D
:1033B000B54800F0E6FD2846FFF7B6FD0646204674
:1033C000FFF7B2FD1021B04800F0D9FD304670BDC6
:1033D00070B504461021AC4800F0D3FD2046FFF73D
:1033E000A3FDFF20FFF7A0FD05461021A64800F031
:1033F000C6FD284670BD70B504460D461021A14893
:1034000000F0BFFD2A462146A820FFF78BFF1021C0
:103410009C4800F0B4FD70BD70B504460D46102107
:10342000984800F0AEFD05229A492A20FFF77AFF5E
:103430002A462146A020FFF775FF1021914800F091
:103440009EFD70BD70B505460E461020FFF7C7FD06
:1034500010218C4800F095FD05228E492A20FFF7A7
:1034600061FF20222946A020FFF75CFF102185483C
:1034700000F085FD00BF2021834800F066FD002894
:10348000F9D10720FFF7A4FF044621462720FFF7C4
:103490008BFF14F0100F08D07FA002F047FBFF2134
:1034A000E120FFF781FF102070BD14F0200F04D041
:1034B0007BA002F03BFB2020F6E77BA002F036FB6E
:1034C000FF20F1E770B504461020FFF788FD0720C4
:1034D000FFF77EFF054629462720FFF765FF15F019
:1034E000400F0AD0202221466120FFF7FDFEFF2178
:1034F000E220FFF759FF002070BD0120FCE710B566
:103500001021604800F03DFD05226A492A20FFF79E
:1035100009FF01212120FFF747FF01212220FFF7AA
:1035200043FF28212520FFF73FFF20213120FFF70F
:103530003BFF0F212620FFF737FF0F212020FFF749
:1035400033FF10214F4800F01AFD10BD10B51021B7
:103550004C4800F016FD05224E493020FFF7E2FEF0
:10356000052254492A20FFF7DDFE01212120FFF723
:103570001BFF01212220FFF717FF1A212420FFF74C
:1035800013FF28212520FFF70FFF0F212620FFF72B
:103590000BFF0E212020FFF707FF1021394800F014
:1035A000EEFC10BD70B504460D461021354800F004
:1035B000E8FC052237493020FFF7B4FE05223D49DB
:1035C0002A20FFF7AFFE01212120FFF7EDFE0121A8
:1035D0002220FFF7E9FE1A212420FFF7E5FE28212B
:1035E0002520FFF7E1FE0F212620FFF7DDFE012C4D
:1035F00008D120213120FFF7D7FE0F212020FFF72F
:10360000D3FE5FE0022C08D120213120FFF7CCFE51
:103610000E212020FFF7C8FE54E0032C1AD1FF2111
:10362000E120FFF7C1FEFF21E220FFF7BDFE0F21E1
:103630002020FFF7B9FE5020FFF776FC7320FFF73C
:1036400073FC01213C20FFF7AFFE06213D20FFF770
:10365000ABFE37E0042C35D10E212020FFF7A4FE6D
:10366000FF21E120FFF7A0FEFF21E220FFF79CFEF3
:103670005020FFF759FC7320FFF756FC01213C2036
:103680001AE000000008014000100140A5A5A5A512
:10369000A50000001E00002053656E6420525400F7
:1036A00053656E64204F4B0053656E64204641495C
:1036B0004C45440023000020FFF776FE06213D2004
:1036C000FFF772FE1021024800F059FC70BD0000A7
:1036D0000008014010B504466FF0040000F098FAAD
:1036E000E11704EB5171C910224A1170104600789D
:1036F00000EB4001C1EBC0104FF6FF7101EAC000C2
:103700001D49088010BD01461B4A12884A434FF0EC
:10371000E0235A6100229A6101221A6100BF4FF032
:10372000E022106910F0010F02D010F4803FF6D0B3
:1037300000224FF0E0231A619A61704701460D4A5A
:1037400012784A434FF0E0235A6100229A61012225
:103750001A6100BF4FF0E022106910F0010F02D093
:1037600010F4803FF6D000224FF0E0231A619A61F6
:1037700070470000280000202A00002010B54FF4F8
:10378000A06000F0F5F910BD014600BF704700BF12
:10379000DC4A128812F0400FFAD0C2B2D94B1B1D7E
:1037A0001A80704710B586B00446012144F2050026
:1037B00000F076FE4FF40070ADF8140003208DF891
:1037C000160018208DF8170005A9CF4800F02CFB33
:1037D0004FF48060ADF8140004208DF8170005A99F
:1037E000C94800F021FB25208DF8000003208DF84A
:1037F00001008DF8020001208DF80300684600F0FA
:10380000BCF901940020ADF80800ADF80A00ADF84D
:103810000C00ADF810000C20ADF80E0001A9B9485D
:1038200001F07DFF012240F22551B64802F00FF869
:103830000121B44801F0FFFF06B010BDB148008877
:1038400010F0080F04D0AF49091D0988C8B200BFA5
:10385000AC48008810F0800F1ED0AA480C300088B9
:1038600010F0800F18D0A94801780078401CA74AB2
:103870001070A748405CA349091D088010460078D5
:10388000A4490978884207D19E480C30008820F06E
:1038900080009C490C3108809A48008810F0200F65
:1038A0006DD09849091D0988C8B29B49097859B952
:1038B000AA2846D199499A4A127801EB4211087018
:1038C0000121954A11703CE09349097801290FD1F3
:1038D000AF2809D19149924A127801EB4211487000
:1038E00002218D4A11702CE000218B4A117028E0D2
:1038F00089490978022909D18849894A127801EB56
:10390000421188700321844A11701AE082490978B3
:10391000032909D18149824A127801EB4211C8700A
:1039200004217D4A11700CE07C497D4A127801EB3C
:103930004211794A1278885477490978491C764AA5
:1039400011707649764A127801EB4211C978491D07
:10395000714A1278914211D100216F4A1170704959
:10396000097831B100216E4A117001216D4A117040
:1039700004E001216A4A11706B4A117000BF704760
:1039800010B50446634801780078401C614A107005
:103990005F4844545B480C30008810F0800F05D11C
:1039A000012240F22771574801F051FF204610BD17
:1039B00031B500249DF80110564802780078401C6B
:1039C000544B1870524881549DF8002018460178D5
:1039D0000078401C18704E4842544A480C30008809
:1039E00010F0800F05D1012240F22771454801F007
:1039F0002EFF9DF801002044C4B29DF80000204431
:103A0000C4B2204638BD31B500244849009808604A
:103A10000846C1783F4802780078401C3D4B18703A
:103A20003B48815441488178184602780078401C10
:103A30001870374881543D4842781846017800781C
:103A4000401C1870324842543848017818460278B1
:103A50000078401C18702E4881542A480C30008889
:103A600010F0800F05D1012240F22771254801F0A6
:103A7000EEFE9DF803002044C4B29DF802002044ED
:103A8000C4B29DF801002044C4B29DF80000204457
:103A9000C4B2204638BD10B504460FE020780D288A
:103AA00002D1FFF76DFF08E020780A2802D1FFF766
:103AB00067FF02E02078FFF763FF641C207800288E
:103AC000ECD110BD70B505460E46002400BF0AE0DB
:103AD000295D104802780078401C0E4B18700C4885
:103AE0008154601CC4B2B442F2DB06480C3000883A
:103AF00010F0800F05D1012240F22771014801F03A
:103B0000A6FE70BD00380140000801402D000020D5
:103B1000E20000202E00002030000020E201002002
:103B20002F0000203200002031000020340000204F
:103B30000948804709480047FEE7FEE7FEE7FEE741
:103B4000FEE7FEE7FEE7FEE7FEE7FEE7044805497D
:103B5000054A064B70470000C5040008ED00000848
:103B600088020020880800208804002088040020A3
:103B700031490143314A1160704770B5002100237B
:103B80000F22C4780CB32D4C246804F4E064C4F50F
:103B9000E064210AC1F10403CA40447804FA03F145
:103BA0008478144021430901254C0678A1550478F6
:103BB00004F01F050124AC4005786D114FF0E0269C
:103BC00006EB8505C5F8004109E0047804F01F05FF
:103BD0000124AC401B4D0678761145F8264070BD97
:103BE000194A0A400243154B1B1F1A60704739B12E
:103BF000124A121D12680243104B1B1D1A6006E088
:103C00000E4A121D126882430C4B1B1D1A6070472E
:103C1000042808D14FF0E021096941F004014FF078
:103C2000E022116107E04FF0E021096921F0040171
:103C30004FF0E022116170470000FA050CED00E042
:103C400000E400E080E100E080FFFF1F0020444925
:103C50000860091D0860091D0860091D08604148C9
:103C60003F4914310860704700213D498279002A9C
:103C70003AD00A46126803689A430B461A600A1D36
:103C8000126803689A430B1D1A60027911440A688E
:103C900003681A430A60324A0832126803689A437A
:103CA0002F4B08331A601A1D126803689A432C4B75
:103CB0000C331A604279102A0ED11A1F1268036859
:103CC0001A43274B08331A601A1D126803681A43F7
:103CD000234B0C331A600DE02149427911440A68E4
:103CE00003681A430A6005E0027911440A68036810
:103CF0009A430A6070470021016001710C214171F3
:103D00000021817170471649103109680143144A36
:103D100010321160704701460020114A14321268B7
:103D20000A4201D0012000E0002070470C49143104
:103D300008607047014600200022094B1B6803EA17
:103D40000102074B14331B680B4202D00AB1012059
:103D500000E00020704702491431086070470000FD
:103D600000040140FFFF0F0010B50446CA4884421A
:103D700008D10121042000F0ADFB0021042000F057
:103D8000A9FB46E0C548844208D10121082000F083
:103D9000A1FB0021082000F09DFB3AE0C0488442CE
:103DA00008D10121102000F095FB0021102000F027
:103DB00091FB2EE0BB48844208D10121202000F075
:103DC00089FB0021202000F085FB22E0B6488442D8
:103DD00008D10121402000F07DFB0021402000F0AF
:103DE00079FB16E0B148844208D10121802000F01F
:103DF00071FB0021802000F06DFB0AE0AC4884429A
:103E000007D10121801500F065FB0021A01500F00D
:103E100061FB10BD10B50121084600F05BFB0021DD
:103E2000012000F057FB10BD2DE9F04102460025AE
:103E30000026002000230024002791F803C00CF086
:103E40000F0591F803C01CF0100F03D091F802C0C9
:103E50004CEA050591F800C0BCF1000F31D01468A0
:103E600000202BE04FF0010C0CFA00F3B1F800C079
:103E70000CEA03069E4220D183004FF00F0C0CFA8F
:103E800003F7BC4305FA03FC4CEA040491F803C0B1
:103E9000BCF1280F06D14FF0010C0CFA00FCC2F85F
:103EA00014C00AE091F803C0BCF1480F05D14FF0EF
:103EB000010C0CFA00FCC2F810C0401C0828D1D339
:103EC0001460B1F800C0BCF1FF0F34DD546800206D
:103ED0002EE000F1080C4FF0010808FA0CF3B1F8DD
:103EE00000C00CEA03069E4221D183004FF00F0C64
:103EF0000CFA03F7BC4305FA03FC4CEA040491F8FE
:103F000003C0BCF1280F05D100F1080C08FA0CF829
:103F1000C2F8148091F803C0BCF1480F07D100F13A
:103F2000080C4FF0010808FA0CF8C2F81080401C89
:103F30000828CED35460BDE8F0814FF6FF710180B0
:103F4000022181700421C1707047024600209368ED
:103F50000B4201D0012000E0002070470146886834
:103F600080B2704702460020D3680B4201D0012086
:103F700000E0002070470146C86880B270470161C8
:103F80007047416170470AB1016100E041617047CB
:103F9000C16070474FF480320A438261816182615F
:103FA00082698269704702460020424B18684FF6CA
:103FB0008073184040EA021008433E4B1860704777
:103FC0003D49C8617047F0B50A460023002400212E
:103FD000002500F00046B6F1004F02D1354EF169E0
:103FE00001E0344E7168C0F3034583B200F440161B
:103FF000B6F5401F08D121F070612E4E766826F08C
:1040000070662C4F7E6012E000F48016B6F5801FBB
:1040100006D1032606FA05F4A14341F0706106E0DB
:10402000460D360103FA06F6B14341F0706122B144
:10403000460D360103FA06F6314300F00046B6F1AC
:10404000004F02D11B4EF16101E01A4E7160F0BDCC
:1040500030B500228B071C0F0F2303FA04F2154B17
:1040600008338C1053F824309343124C08348D10CD
:1040700044F8253023468C1053F824308C07240F45
:1040800000FA04F423430B4C08348D1044F8253017
:1040900030BD0A490860704700080140000C01402B
:1040A000001001400014014000180140001C0140B4
:1040B000002001400000014000002042DC002042BE
:1040C0000E49086070470D49486070470B49886089
:1040D00070474AF6AA200949086070474CF6CC4060
:1040E00006490860704701460020044AD2680A4227
:1040F00001D0012000E000207047000000300040A7
:1041000010B50121080700F0F2F900214FF08050AE
:1041100000F0EDF910BD2949086270472749086190
:10412000704701460020264A106820F0E00008434E
:104130001060704723490860704710B502460020A0
:104140001F4B186820F00300104318601E4B1B68BB
:1041500043F004031C4C2360012901D130BF00E06F
:1041600020BF194B1B6823F00403174C236010BDBC
:104170001348006840F004001149086008460068D0
:1041800040F0020008601048006840F004000E494A
:10419000086000BF00BF30BF704701460020084ADA
:1041A00052680A4201D0012000E000207047044913
:1041B000096841EA8001024A1160704700000E421E
:1041C00000700040A0000E4210ED00E0DD480068E5
:1041D00040F00100DB49086008464068DA490840C1
:1041E000D849486008460068D8490840D549086061
:1041F0000846006820F4802008600846406820F4E3
:10420000FE0048604FF41F0088607047CD49096880
:1042100021F48031CB4A11601146096821F48021D4
:104220001160B0F5803F03D0B0F5802F0ED106E0CD
:10423000C449096841F48031C24A116007E0C149AC
:10424000096841F4A021BF4A116000E000BF00BF2F
:10425000704710B501460022002300204A11012AB0
:1042600002D1B84C236806E0022A02D1B54C236A79
:1042700001E0B44C636A01F01F02012494401C4227
:1042800001D0012000E0002010BD38B500200090D2
:104290000024002500BF3120FFF7DBFF0546009812
:1042A000401C00900098B0F5A06F01D0002DF2D016
:1042B0003120FFF7CEFF08B1012400E000242046A2
:1042C00038BD014600209F4A106820F0F80040EAFF
:1042D000C100106070479E49086070470246002088
:1042E000984B586820F47C1042EA01031843954B20
:1042F0005860704796490866704701460020914A09
:10430000506820F003000843506070478D484068B3
:1043100000F00C007047014600208A4A506820F0E7
:10432000F00008435060704701460020854A5068FD
:1043300020F4E06008435060704701460020814A45
:10434000506820F4605040EAC1005060704729B1C5
:104350007C4A527A02437B4B5A7204E0794A527A81
:104360008243784B5A7270477A4908607047014619
:104370000020744A506820F4404008435060704761
:104380000021754A11706F4A82F82010012802D06E
:10439000042808D103E001216F4A117004E00521CF
:1043A0006D4A117000E000BF00BF70476B490860A4
:1043B00070476449096A0143624A1162704767495C
:1043C00044390860704730B50021002200240023E2
:1043D0005C4D6D6805F00C0121B1042905D0082958
:1043E00023D105E05E4D056022E05D4D05601FE0D4
:1043F000544D6D6805F47012524D6D6805F48034AB
:10440000022505EB92421CB9564D554305600BE061
:104410004C4D6D6815F4003F03D0524D5543056077
:1044200002E04F4D5543056002E04D4D056000BF71
:1044300000BF444D6D6805F0F00109094A4D6B5C01
:104440000568DD4045603F4D6D6805F4E061090A8F
:10445000454D6B5C4568DD4085603A4D6D6805F4FF
:104460006051C90A404D6B5C4568DD40C560354D03
:104470006D6805F44041890B3C4D6B5CC568B5FB2C
:10448000F3F5056130BD29B12E4A526902432D4B27
:104490005A6104E02B4A526982432A4B5A617047A1
:1044A00029B1284A92690243264B9A6104E0254AC1
:1044B00092698243234B9A61704729B1214AD2699C
:1044C0000243204BDA6104E01E4AD26982431D4B4D
:1044D000DA61704729B11B4AD2680243194BDA608E
:1044E00004E0184AD2688243164BDA60704729B15B
:1044F000144A12690243134B1A6104E0114A12690B
:104500008243104B1A617047144940390860704764
:104510000F49C86470470B49C87170470948406A21
:1045200040F0807007494862704701460020054A04
:1045300092680A4201D0012000E000207047014942
:1045400088727047001002400000FFF8FFFFF6FE7F
:1045500000004242D8004242201002408004424201
:1045600000127A0000093D003C0000204C000020B1
:1045700010B50446BE48844208D101218014FFF7DB
:10458000A9FF0021A014FFF7A5FF16E0B948844257
:1045900008D101210014FFF7AAFF00212014FFF722
:1045A000A6FF0AE0B448844207D10121C013FFF7F7
:1045B0009EFF0021E013FFF79AFF10BD10B5002207
:1045C000028802F441520B884C8823438C88234391
:1045D000CC8823430C8923434C8923438C89234370
:1045E000CC8923431A430280838B4FF2FF7423400C
:1045F00083830B8A038210BD2DE9F04F85B00546F9
:104600000C464FF0000902274FF000084FF0010B55
:104610000026B246A88B4FF240010840A883022032
:104620002884B5F81C90A068022801D100BF38E0AA
:10463000A08810B94FF0010B01E04FF0020B8D483C
:10464000854200D100E000BF6846FFF7BCFEDDF800
:1046500000A0E088B0F5007F0AD14FEA1A2000EBF5
:1046600080004000A168B0FBF1F0401D86B20BE075
:104670004FEA4B10BAFBF0F000EB80004000A1685D
:10468000B0FBF1F0401D86B20A20B6FBF0F606F052
:104690000108A6EB0800C0F34F074FF6FF7000EAD1
:1046A0000828022F01DBFF2F02DD02274FF0000850
:1046B000E08840EA080038432884A088A18908439C
:1046C000618808432188084340F4006040EA0909F2
:1046D000A5F81C9005B0BDE8F08F00210180418055
:1046E0008180C180018141818181C1810721018255
:1046F00070470021018041808180C180022181605A
:1047000000218181704721B1028842F0400202807D
:1047100004E002884FF6BF731A400280704721B14F
:10472000828B42F48062828304E0828B4FF6FF33F7
:104730001A408283704730B5002400230C110125F4
:10474000A540ABB21AB185881D43858002E08588FB
:104750009D43858030BD1AB183880B43838002E07E
:1047600083888B43838070478181704701468889A5
:104770007047A1F57E42FF3A04D0028842F480726D
:10478000028004E002884FF6FF631A4002807047FF
:1047900021B1828842F00402828004E082884FF6D0
:1047A000FB731A408280704702884FF2FF731A40F1
:1047B000028002880A4302807047018841F48051D8
:1047C0000180704721B1028842F40052028004E067
:1047D00002884DF6FF731A4002807047024600209F
:1047E000012901D0108B00E0908A70470146088AA9
:1047F0007047B1F5804F04D1028842F480420280B4
:1048000004E002884BF6FF731A40028070470246AC
:10481000002013890B4201D0012000E000207047E6
:10482000CA4302817047F0B50246002000240023ED
:10483000002501F00F070126BE40B4B20B1101267E
:104840009E40B3B2968806EA03051689264202D036
:104850000DB1012000E00020F0BD10B5002201F0F4
:104860000F040123A3409AB2D343038110BD00007B
:104870000030014000380040003C004010B50446C4
:10488000FE48844208D10121C014FFF723FE002115
:10489000E014FFF71FFEC4E0B4F1804F08D10121FE
:1048A0000846FFF724FE00210120FFF720FEB8E0B4
:1048B000F348844208D101210220FFF718FE0021AD
:1048C0000220FFF714FEACE0EE48844208D101213B
:1048D0000420FFF70CFE00210420FFF708FEA0E0F3
:1048E000E948844208D101210820FFF700FE002199
:1048F0000820FFF7FCFD94E0E448844208D1012140
:104900001020FFF7F4FD00211020FFF7F0FD88E0F4
:10491000DF48844208D101212020FFF7E8FD002173
:104920002020FFF7E4FD7CE0DA48844208D1012131
:104930004014FFF7CFFD00216014FFF7CBFD70E0BE
:10494000D548844209D10121C804FFF7C3FD0021E5
:104950004FF40020FFF7BEFD63E0D048844209D148
:1049600001210805FFF7B6FD00214FF48010FFF785
:10497000B1FD56E0CA48844209D101214805FFF73C
:10498000A9FD00214FF40010FFF7A4FD49E0C54840
:10499000844208D101214020FFF7A9FD00214020D9
:1049A000FFF7A5FD3DE0C048844208D101218020E9
:1049B000FFF79DFD00218020FFF799FD31E0BB4806
:1049C000844208D101218015FFF791FD0021A01537
:1049D000FFF78DFD25E0B648844209D10121080486
:1049E000FFF778FD00214FF48030FFF773FD18E0EA
:1049F000B048844209D101214804FFF76BFD002132
:104A00004FF40030FFF766FD0BE0AB48844208D15D
:104A100001218804FFF75EFD00214FF48020FFF79D
:104A200059FD10BD00220288944B98420ED0994B3C
:104A300098420BD0B0F1804F08D0914B984205D0EE
:104A4000904B984202D0904B984204D14FF68F730E
:104A50001A404B881A438D4B984207D08C4B984292
:104A600004D04FF6FF431A40CB881A4302808B884C
:104A700083850B880385814B98420BD0854B9842E8
:104A800008D08B4B984205D08A4B984202D08A4B73
:104A9000984201D10B7A038601238382704770B557
:104AA000002400220023058C4FF6FE763540058455
:104AB000028C8388048B4FF68F752C40B51E2C40DA
:104AC0000D882C43751E2A400D892A434D882A43A0
:104AD0006A4DA8420BD06F4DA84208D0744DA84231
:104AE00005D0744DA84202D0734DA84213D14FF6A1
:104AF000F7752A404D892A434FF6FB752A408D8869
:104B00002A434FF6FF652B404FF6FF552B408D890A
:104B10002B43CD892B4383800483CD8885860284F3
:104B200070BD70B5002400220023058C4FF6EF768F
:104B300035400584028C8388048B48F6FF752C4031
:104B40004FF6FF452C400D884FF6FF7606EA052507
:104B50002C434FF6DF752A400D8906EA05152A43D6
:104B60004D8806EA05152A43444DA84202D0494D16
:104B7000A8421DD14FF67F752A404D894FF6FF762A
:104B800006EA05152A434FF6BF752A408D8806EAC6
:104B900005152A434FF6FF352B404FF2FF752B408A
:104BA0008D8906EA85052B43CD8906EA85052B43C9
:104BB00083800483CD880587028470BD70B500248E
:104BC00000220023058C4FF6FF6635400584028CD9
:104BD0008388848B4FF68F752C404FF6FC752C40E4
:104BE0000D882C434FF6FF552A400D894FF6FF766E
:104BF00006EA05252A434D8806EA05252A431F4D66
:104C0000A84202D0234DA8421DD14FF2FF752A4081
:104C10004D894FF6FF7606EA05252A434FF6FF3504
:104C20002A408D8806EA05252A434EF6FF752B405B
:104C30004DF6FF752B408D8906EA05152B43CD896E
:104C400006EA05152B4383808483CD8885870284FB
:104C500070BD70B5002200230024058C4EF6FF764F
:104C600035400584038C8488828B48F6FF752A4082
:104C70004FF6FF452A400D8820E00000002C01403F
:104C80000004004000080040000C004000100040FC
:104C90000014004000340140004C0140005001402D
:104CA0000054014000180040001C0040002000405B
:104CB0000040014000440140004801404FF6FF76AB
:104CC00006EA05252A434DF6FF752B400D8906EAB5
:104CD00005352B434D8806EA05352B43FA4DA8428E
:104CE00002D0FA4DA84208D14BF6FF752C408D89B1
:104CF0004FF6FF7606EA85152C4384808283CD88A3
:104D0000A0F84050038470BD828B4FF2FF331A40ED
:104D10008283828B4FF6FF7303EA01231A43828357
:104D20007047F0B50C461546002200210026078C7E
:104D30004EF6FF7C07EA0C070784828B018C4FF646
:104D4000FF7707EA043640F6FF473A404FF6FF7711
:104D500007EA05273A434FF6FF7707EA03373A4356
:104D6000D94FB8420ED0D94FB8420BD0B0F1804FD6
:104D700008D0D74FB84205D0D64FB84202D0D64F50
:104D8000B84206D14DF6FF77394046F48057394393
:104D900005E047F6FF57394044F480573943828392
:104DA0000184F0BD828B4FF6F3731A408283828BAD
:104DB0000A4382837047F0B50C4615460022002155
:104DC0000026078C4FF6FF6C07EA0C070784828BDE
:104DD000018C4FF6FF7707EA04264FF60C773A402E
:104DE0004FF6FF7707EA03172F433A43B64FB8420F
:104DF0000ED0B64FB8420BD0B0F1804F08D0B44FB0
:104E0000B84205D0B34FB84202D0B34FB84206D132
:104E10004FF6FF57394046F48077394305E04FF2AB
:104E2000FF57394044F48077394382830184F0BDD1
:104E3000028B4FF2FF331A400283028B4FF6FF734F
:104E400003EA01231A4302837047F0B50C46154666
:104E5000002200210026078C4FF6EF7C07EA0C07A2
:104E60000784028B018C4FF6FF7707EA041640F6A1
:104E7000FF473A404FF6FF7707EA03373A434FF6CA
:104E8000FF7707EA05273A438F4FB8420ED08F4F7E
:104E9000B8420BD0B0F1804F08D08D4FB84205D04A
:104EA0008C4FB84202D08C4FB84206D14FF6DF7714
:104EB000394046F01007394305E04FF65F77394037
:104EC00044F01007394302830184F0BD028B4FF692
:104ED000F3731A400283028B0A4302837047F0B5D2
:104EE0000C46154600220021068C4FF6FE773E4008
:104EF0000684028B018C4FF60C7632407E1C06EA4B
:104F000003162E433243704EB0420ED06F4EB04265
:104F10000BD0B0F1804F08D06D4EB04205D06D4E31
:104F2000B04202D06C4EB04206D14FF6FD76314011
:104F300044F00106314305E04FF6F576314044F088
:104F40000106314302830184F0BD70B505460C466D
:104F50005D4885420ED05D4885420BD0B5F1804F4B
:104F600008D05B48854205D05A48854202D05A484D
:104F7000854200D100E000BF208850B92389A28873
:104F800061882846FFF7ABFFE1882846FFF79EFFC0
:104F900025E0208804280AD12389A2886188284630
:104FA000FFF753FFE1882846FFF742FF17E020880C
:104FB00008280AD12389A28861882846FFF7FBFECA
:104FC000E1882846FFF7EEFE09E02389A288618880
:104FD0002846FFF7A6FEE1882846FFF795FE70BD3C
:104FE0002DE9F04105460C4600260127608808B9E6
:104FF000022600E00026A088012801D1022700E057
:1050000001272088A0B92389A28861882846FFF754
:1050100066FFE1882846FFF759FF23893A46314663
:105020002846FFF712FFE1882846FFF701FF13E04B
:105030002389A28861882846FFF707FFE188284670
:10504000FFF7F6FE23893A4631462846FFF747FF29
:10505000E1882846FFF73AFFBDE8F0810A884B88CF
:105060001A438B881A43CB881A430B891A434B89FE
:105070001A438B891A43A0F8442070474FF6FF71FA
:10508000818000210180C180418001727047002130
:10509000018041808180C180018141818181C18104
:1050A0007047002101804180012181800021C18061
:1050B000018170470021018041808180C180018190
:1050C0004181818170470000002C01400034014083
:1050D0000004004000080040000C004021B102889C
:1050E00042F00102028004E002884FF6FE731A408B
:1050F0000280704731B1B0F8442042F40042A0F879
:10510000442005E0B0F84420C2F30E02A0F8442089
:1051100070471AB183890B43838102E083898B43F3
:10512000838170478182704741EA0203A0F84830CA
:1051300070471AB183890B43838102E083898B43D3
:105140008381704701894FF6F872114001817047E1
:105150000A46002101894FF68F73194011430181DE
:10516000704730B504460D4629462046FFF7F0FF4C
:10517000208940F00700208130BD2DE9F041044630
:105180000D4616461F46602D06D13B46012231468C
:105190002046FFF75AFE05E03B46012231462046F5
:1051A000FFF79DFE29462046FFF7D2FF208940F0F9
:1051B00007002081BDE8F08130B50C46002101894F
:1051C000C9B24FF6FF7505EA032515432543294368
:1051D000018130BD2DE9F04105460E46174698463F
:1051E000002443463A4631462846FFF7E5FF2C891E
:1051F0004FF6F870044044F007044FF68F700440F7
:1052000044F070042C81BDE8F081F0B504460D46F1
:1052100016461F463B46324629462046FFF7CCFF3E
:10522000208940F480402081F0BD01858282704752
:105230000A46002101884FF68F73194011430180FF
:105240007047F0B50C4615461E460021002200238B
:105250000189028B038C4FF6F877394021434FF6D2
:10526000FC473A4040F201173A434FF6DD773B40A6
:105270004FF6FF7707EA06172F433B43018102836E
:105280000384F0BD0A460021018B4FF68F7319404D
:105290001143018370470A460021018B48F6FF73D2
:1052A00019404FF6FF7303EA022319430183704745
:1052B0000A460021818B4FF68F7319401143818379
:1052C00070470A460021818B48F6FF7319404FF65C
:1052D000FF7303EA022319438183704721B10288D7
:1052E00042F08002028004E002884FF67F731A4089
:1052F0000280704721B1828842F00402828004E07B
:1053000082884FF6FB731A408280704721B18288F1
:1053100042F00802828004E082884FF6F7731A4058
:105320008280704721B1828842F00102828004E0CD
:1053300082884FF6FE731A40828070470A46002129
:10534000018B4FF6F77319401143018370470A46EA
:105350000021018B4FF2FF7319404FF6FF7303EAF0
:1053600002231943018370470A460021818B4FF6BF
:10537000F77319401143818370470A460021818BDE
:105380004FF2FF7319404FF6FF7303EA02231943EC
:10539000818370470A460021018B4FF6FB73194049
:1053A0001143018370470A460021018B4FF6FF33FA
:1053B00019404FF6FF7303EA022319430183704734
:1053C0000A460021818B4FF6FB73194011438183FC
:1053D00070470A460021818B4FF6FF3319404FF684
:1053E000FF7303EA02231943818370470A460021B1
:1053F000018B4FF67F7319401143018370470A46B2
:105400000021018BC1F30E014FF6FF7303EA022363
:105410001943018370470A460021818B4FF67F7341
:1054200019401143818370470A460021818BC1F3E3
:105430000E014FF6FF7303EA02231943818370477D
:105440000A460021018C4FF6FD7319401143018477
:1054500070470A460021018C4FF6F773194011433B
:10546000018470470A460021018C4FF6DF73194012
:105470004FF6FF7303EA02131943018470470A468B
:105480000021018C4FF67F7319404FF6FF7303EA3A
:1054900002131943018470470A460021018C4FF61C
:1054A000FF5319404FF6FF7303EA022319430184A7
:1054B00070470A460021018C4FF2FF7319404FF6E6
:1054C000FF7303EA02231943018470470A4600214F
:1054D000018C4DF6FF7319404FF6FF7303EA023358
:1054E00019430184704730B5002301248C40A3B2D6
:1054F000048C9C430484048C02FA01F5ADB22C4365
:10550000048430BD30B5002304248C40A3B2048C45
:105510009C430484048C02FA01F5ADB22C4304844C
:1055200030BD70B503460020002418461830012510
:105530008D40ACB21D8CA5431D8409B1082909D149
:1055400000EB6100056825F07005056005681543EE
:1055500005600EE00D1FC5F34E052844056825F4CF
:10556000E045056005684FF6FF7606EA02263543FA
:10557000056070BD21B1028842F00202028004E0A1
:1055800002884FF6FD731A400280704721B10288ED
:1055900042F00402028004E002884FF6FB731A40D6
:1055A0000280704721B1828842F08002828004E04C
:1055B00082884FF67F731A408280704702884FF6C8
:1055C000F7731A40028002880A430280704782887B
:1055D0004FF68F731A40828082880A438280704718
:1055E00002894FF6F8731A40028102890A43028148
:1055F000704702894FF67F731A40028102890A437D
:105600000281704781847047818570478186704729
:105610000187704781877047A0F840107047028863
:105620004FF6FF431A40028002880A430280704707
:105630000146888E70470146088F70470146888F63
:1056400070470146B1F8400070470146888C7047AA
:105650000146088D704702460020138A0B4201D094
:10566000012000E000207047CA430282704730B535
:105670000246002000230024158A05EA01039589CB
:1056800005EA010413B10CB1012000E0002030BD97
:10569000CA4302827047000010B50446FB488442AA
:1056A00009D101218803FEF715FF00214FF4804046
:1056B000FEF710FF32E0F648844209D10121480488
:1056C000FEF715FF00214FF40030FEF710FF25E034
:1056D000F048844209D101218804FEF708FF002127
:1056E0004FF48020FEF703FF18E0EB48844209D115
:1056F0000121C804FEF7FBFE00214FF40020FEF755
:10570000F6FE0BE0E548844208D101210805FEF7CA
:10571000EEFE00214FF48010FEF7E9FE10BD2DE9EA
:10572000F04786B005460E460024A24600BFA146BB
:105730000027B08900B100BF2F462C8A4CF6FF70BD
:105740000440F08804432C82AC894EF6F3100440E8
:10575000B08831890843718908430443AC81AC8A1D
:105760004FF6FF400440B0890443AC8201A8FEF725
:105770002AFEC648874202D1DDF810A001E0DDF81C
:105780000CA0A88910F4004F08D00AEBCA0000EB67
:105790000A1031684900B0FBF1F807E00AEBCA00D3
:1057A00000EB0A1031688900B0FBF1F86420B8FB07
:1057B000F0F004012009642101FB1089A88910F48C
:1057C000004F08D0322000EBC900B0FBF1F000F030
:1057D0000700044308E0322000EB09106421B0FB0D
:1057E000F1F000F00F0004432C8106B0BDE8F08713
:1057F0004FF41651016000218180C18001810C218C
:10580000418100218181704710B502460020108A35
:105810004FF2FF0318400B884C8823438C882343A6
:10582000CC8823431843108210BD002101804180A1
:105830008180C180704721B1828942F40052828107
:1058400004E082894DF6FF731A4082817047F0B5FB
:1058500003460024002600250020A1F510676A3FBA
:1058600000D100BF1846C1F3421401F01F06012702
:1058700007FA06F5012C01D10C3004E0022C01D10D
:10588000103000E014301AB107682F43076002E0BF
:105890000768AF430760F0BD1AB1838A0B43838268
:1058A00002E0838A8B4383827047028A4FF6F0734B
:1058B0001A400282028A0A430282704782894FF2AA
:1058C000FF731A40828182890A438281704721B125
:1058D000828942F00202828104E082894FF6FD73E0
:1058E0001A4082817047028A4FF6DF731A400282A3
:1058F000028A0A430282704721B1028A42F480423E
:10590000028204E0028A4BF6FF731A40028270475B
:10591000C1F308028280704701468888C0F30800FE
:105920007047818941F0010181817047028BD2B2B9
:105930000283028B42EA012202837047028B02F447
:105940007F420283028B0A430283704721B1828A1D
:1059500042F02002828204E0828A4FF6DF731A400E
:105960008282704721B1828A42F01002828204E072
:10597000828A4FF6EF731A408282704721B1828A81
:1059800042F00802828204E0828A4FF6F7731A40DE
:105990008282704721B1828942F40042828103E011
:1059A0008289C2F30E028281704721B1828A42F459
:1059B0000062828204E0828A4FF2FF731A40828280
:1059C0007047828A4FF6FB731A408282828A0A43AA
:1059D0008282704721B1828A42F00202828204E010
:1059E000828A4FF6FD731A40828270470246002079
:1059F000B1F5007F00D100BF13880B4201D0012018
:105A000000E00020704701F40072B2F5007F00D181
:105A100000BFCA430280704770B5024600240023CD
:105A200000250020A1F510666A3E00D100BFC1F339
:105A3000421501F01F03012606FA03F3012D02D1DE
:105A40009689334006E0022D02D1168A334001E0E8
:105A5000968A33400C12012606FA04F41688344064
:105A600013B10CB1012000E0002070BD10B5002280
:105A70000023A1F510646A3C00D100BF0A12012482
:105A80009440A3B2DC43048010BD00000038014004
:105A90000044004000480040004C004000500040DE
:105AA00010B50121C802FEF722FD00214FF400606D
:105AB000FEF71DFD10BD0021194A126822F4C071C5
:105AC0000143174A1160704708B50021009114493D
:105AD000096821F07F01009100F07F01009A1143D5
