:020000040800F2
:1000000088080020ED1000081D0200081F020008EB
:1000100023020008270200082B020008000000004D
:100020000000000000000000000000002F02000897
:100030003102000800000000330200083502000809
:10004000E50500080711000807110008071100085E
:100050000711000807110008110700080711000820
:100060000711000807110008071100080711000810
:100070000711000807110008071100080711000800
:1000800007110008071100080711000807110008F0
:1000900007110008071100080711000807110008E0
:1000A00007110008071100080711000807110008D0
:1000B000071100086B060008071100080711000867
:1000C00007110008071100080711000807110008B0
:1000D00007110008490E0008071100080711000861
:1000E00007110008071100080711000800F002F8C6
:1000F00000F03CF80AA090E8000C82448344AAF186
:100100000107DA4501D100F031F8AFF2090EBAE883
:100110000F0013F0010F18BFFB1A43F0010318473B
:100120000C3100002C310000103A24BF78C878C18F
:10013000FAD8520724BF30C830C144BF04680C60ED
:10014000704700000023002400250026103A28BF35
:1001500078C1FBD8520728BF30C148BF0B60704739
:10016000002070471FB51FBD10B510BD03F02EF85D
:100170001146FFF7F7FF00F02DF803F04CF803B439
:10018000FFF7F2FF03BC00F005FE000010B502E02F
:1001900015A002F0A9FF00F0EBFB0028F8D119A090
:1001A00002F0A2FF10BD10B500F0B4F8482000F036
:1001B00097FD00F0E9FD4FF4165000F0F9FD00F056
:1001C0009DF900F05BFB00F09CFC4FF4FA7000F02E
:1001D000A0FD10BDFFF7E7FFFFF7D8FF03E000F039
:1001E0004AF900F02FF9FAE74E524632344C3031DA
:1001F00020434845434B204641494C4544210D0A84
:10020000000000004E524632344C30312043484505
:10021000434B204F4B210D0A00000000704700BFE8
:10022000FEE700BFFEE700BFFEE700BFFEE7704746
:1002300070477047704700000CB500200190009097
:100240006B48006840F480306949086000BF684826
:10025000006800F4003000900198401C0190009864
:1002600018B90198B0F5A06FF1D16148006810F499
:10027000003F02D00120009001E000200090009893
:10028000012842D15B48006840F0100059490860DD
:100290000846006820F0030008600846006840F047
:1002A000020008605248406851494860084640686A
:1002B00048600846406840F48060486008464068EE
:1002C00020F47C1048600846406840F4E81048601C
:1002D0000846006840F08070086000BF444800682D
:1002E00010F0007FFAD04248406820F003004049F7
:1002F00048600846406840F00200486000BF3C4843
:10030000406800F00C000828F9D10CBD10B5FFF7CB
:1003100093FF10BD10B53648006840F00100344925
:10032000086008464068344908403149486008463A
:100330000068324908402E4908600846006820F4E9
:10034000802008600846406820F4FE0048604FF4B2
:100350001F008860FFF7DAFF4FF00060284908604F
:1003600010BD10B5002100200022214B5B6803F076
:100370000C0121B1042906D0082928D107E0214B1E
:10038000214C236027E01F4B1F4C236023E0184BB8
:100390005B6803F47010164B5B6803F48032022331
:1003A00003EB904022B9194B4343174C23600DE0F7
:1003B0000F4B5B6813F4003F04D0144B4343124CC3
:1003C000236003E00F4B43430F4C236003E00D4BCE
:1003D0000D4C236000BF00BF054B5B68C3F30313E4
:1003E0000B4CE15C084B1B68CB40074C236010BDF5
:1003F00000100240002002400000FFF8FFFFF6FE60
:1004000008ED00E000127A000000002000093D0025
:100410000400002070B504460D462946204600F031
:1004200033FE70BD70B504460D46204600F012FB49
:1004300070BD70B504460D4600262946204600F0E2
:1004400023FE70BD10B500F083FB2948007860B131
:10045000002027490870322000F05BFC2548C07856
:10046000401DC1B22348FFF7DDFF00F04AFB3220F8
:1004700000F04FFC10BD70B500250024072000F0EF
:10048000AFFA044614F0400F13D0602000F0A8FA31
:100490000546212D09DA2A461749612000F02CFA79
:1004A00029461548FFF7C5FF03E0FF21E22000F0D1
:1004B00083FA14F0100F06D014F0010F03D0FF21BF
:1004C000E12000F079FA2146272000F075FA70BD8E
:1004D00010B502460B460021002000BF04E0545C2A
:1004E0000444E0B24C1CE1B25C1E8C42F7DC10BD4F
:1004F00028000020020200204800002008B5012149
:10050000042001F0ABFA4FF48070ADF80000102029
:100510008DF8030003208DF8020069460E4800F0B4
:1005200061FF4FF480710C4801F007F80121202091
:1005300001F094FA0420ADF8000010208DF80300BB
:1005400003208DF802006946044800F04BFF0421A7
:10055000024800F0F2FF08BD00080140001401400D
:1005600070B505460C4645F2555001F087F828460F
:1005700001F087F8204601F087F801F088F801F0D3
:100580008BF870BD10B501F082F810BD08B50020E1
:100590008DF8000002208DF8010003208DF8020084
:1005A000684600F0C8FD08BD70B506460C46154605
:1005B0000121C80201F05FFA284602F05AFD2046E8
:1005C00002F060FD304602F078FD02F081FDFFF799
:1005D000DDFF02F068FD70BD10B50446204602F054
:1005E0006CFD10BD10B57F2002F061FD02F070FDC2
:1005F0000448006808B9012000E0002001490860B3
:1006000010BD0000888122427FB504460D460121BD
:10061000022001F030FA41F28830ADF8080041F6CE
:100620001F40ADF804000020ADF80A00ADF8060048
:1006300001A9174801F0D4FC01224121144802F01D
:1006400046F81D208DF8000000208DF801000320E1
:100650008DF8020001208DF80300684600F06BFD64
:1006600001210B4802F018F87FBD10B501210848A0
:1006700002F0DBFA58B10121054802F0E7FA05481B
:10068000006808B9012000E000200249086010BDA0
:10069000000400408881224210B50121042000F0AE
:1006A00084FD0121080701F0E6F9012001F020F89E
:1006B00001F03CF810BD10B500214FF4FE7001F0C0
:1006C000E7F9FFF7E9FF10BD70B500250024002011
:1006D0002F4908601BE02F48006818B1681CC5B29C
:1006E000002409E0601CC4B2032C05DD0120284968
:1006F00008604FF0000070BD1E2000F00AFB642D62
:1007000005DB0020224908604FF00100F3E7E2E733
:1007100010B5012020490860FFF7D6FF08B1FFF7A8
:10072000CAFF10BD1FB50121052001F097F9012076
:10073000ADF80C0028208DF80F0003A9174800F031
:1007400051FE0021084600F061FF012000900020CA
:100750008DF8040008208DF8050001208DF80600B2
:10076000684600F05FFD06208DF8080002208DF835
:1007700009008DF80A0001208DF80B0002A800F096
:10078000DAFCFFF7A1FF08B9FFF786FF1FBD0000E5
:10079000A00121420001214214040140000801404F
:1007A00070B50546002405E0601CC4B2C82C01DD0C
:1007B000002070BD02212E4801F007FB0028F3D075
:1007C00029462B4801F0AEFA002400BF0121284839
:1007D00001F0FBFA0028F9D0641CC82C01DD0020D0
:1007E000E7E7234801F0A0FAC0B2E2E708B501212B
:1007F00041F2040001F032F9E020ADF800001820C9
:100800008DF8030003208DF802006946194800F0B6
:10081000E9FDE021174800F090FE0020164908800D
:100820004FF48270488000208880C88008814FF48F
:1008300000704881382088810020C8810720088204
:100840000B4801F099F90121094801F03AFAFF201B
:10085000FFF7A6FF08BD10B504460748848101468E
:10086000034801F089F90121014801F02AFA10BD7D
:100870000030014000080140B000002008B501210F
:10088000142001F0EBF81C20ADF8000010208DF8CA
:10089000030003208DF802006946FE4800F0A2FD27
:1008A0001C21FC4800F049FE1020ADF800008DF836
:1008B000030003208DF802006946F74800F092FD1E
:1008C0001021F54800F039FE2020ADF80000482046
:1008D0008DF8030003208DF802006946EE4800F011
:1008E00081FDFFF783FF1021EA4800F028FE102168
:1008F000E94800F022FE08BD2DE9F04107460D460B
:1009000016461021E44800F01AFE3846FFF748FF6B
:100910008046002405E0FF20FFF742FF2855601CB9
:10092000C4B2B442F7DB1021DB4800F006FE4046BB
:10093000BDE8F0812DE9F04107460C46154610212F
:10094000D54800F0FCFD3846FFF72AFF8046002618
:1009500005E014F8010BFFF723FF701CC6B2AE428E
:10096000F7DB1021CC4800F0E8FD4046BDE8F081FF
:100970001CB5CAA103C9CDE900011020FFF76BFF28
:10098000052269463020FFF7D5FF05226946102071
:10099000FFF7B2FF002406E01DF80400A52800D0F0
:1009A00003E0601CC4B2052CF6DB00BF052C01D0AF
:1009B00001201CBD0020FCE770B505460C46102147
:1009C000B54800F0BCFD2846FFF7EAFE0646204683
:1009D000FFF7E6FE1021B04800F0AFFD304670BDD5
:1009E00070B504461021AC4800F0A9FD2046FFF781
:1009F000D7FEFF20FFF7D4FE05461021A64800F0E1
:100A00009CFD284670BD70B504460D461021A148D6
:100A100000F095FD2A462146A820FFF78BFF102104
:100A20009C4800F08AFD70BD70B504460D4610214B
:100A3000984800F084FD05229A492A20FFF77AFFA2
:100A40002A462146A020FFF775FF1021914800F0AB
:100A500074FD70BD70B505461020FFF7FCFE102137
:100A60008C4800F06CFD20222946A020FFF762FF91
:100A70001021884800F061FD00BF2021864800F069
:100A800042FD0028F9D10720FFF7AAFF04462146BE
:100A90002720FFF791FF14F0100F08D082A002F07A
:100AA00023FBFF21E120FFF787FF102070BD14F02A
:100AB000200F04D07FA002F017FB2020F6E780A0D3
:100AC00002F012FBFF20F1E770B504461020FFF79B
:100AD000C2FE0720FFF784FF054629462720FFF7BF
:100AE0006BFF15F0400F0AD0202221466120FFF74E
:100AF00003FFFF21E220FFF75FFF002070BD012010
:100B0000FCE710B51021634800F019FD052270497B
:100B10002A20FFF70FFF01212120FFF74DFF0121C0
:100B20002220FFF749FF28212520FFF745FF20213C
:100B30003120FFF741FF0F212620FFF73DFF0F2156
:100B40002020FFF739FF1021524800F0F6FC10BDBD
:100B500010B510214F4800F0F2FC05225149302019
:100B6000FFF7E8FE05225A492A20FFF7E3FE01219C
:100B70002120FFF721FF01212220FFF71DFF1A216D
:100B80002420FFF719FF28212520FFF715FF0F214B
:100B90002620FFF711FF0E212020FFF70DFF102167
:100BA0003C4800F0CAFC10BD70B504460D4610214B
:100BB000384800F0C4FC05223A493020FFF7BAFE5D
:100BC000052243492A20FFF7B5FE01212120FFF726
:100BD000F3FE01212220FFF7EFFE1A212420FFF768
:100BE000EBFE28212520FFF7E7FE0F212620FFF747
:100BF000E3FE012C08D120213120FFF7DDFE0F217B
:100C00002020FFF7D9FE43E0022C08D1202131201B
:100C1000FFF7D2FE0E212020FFF7CEFE38E0032C96
:100C20001AD1FF21E120FFF7C7FEFF21E220FFF7E5
:100C3000C3FE0F212020FFF7BFFE5020FFF7B0FDBD
:100C40007320FFF7ADFD01213C20FFF7B5FE062123
:100C50003D20FFF7B1FE1BE0042C19D10E2120200E
:100C6000FFF7AAFEFF21E120FFF7A6FEFF21E22009
:100C7000FFF7A2FE5020FFF793FD7320FFF790FDD2
:100C800001213C20FFF798FE06213D20FFF794FE4E
:100C900010211FE00008014000100140A5A5A5A5F6
:100CA000A50000001400002053454E442052540D6E
:100CB0000A00000053454E44204F4B0D0A0000002F
:100CC00053454E44204661696C65640D0A0000007E
:100CD00019000020014800F030FC70BD0008014000
:100CE00010B504466FF0040000F070FAE11704EB51
:100CF0005171C910224A11701046007800EB400172
:100D0000C1EBC0104FF6FF7101EAC0001D49088019
:100D100010BD01461B4A12884A434FF0E0235A6136
:100D200000229A6101221A6100BF4FF0E02210698F
:100D300010F0010F02D010F4803FF6D000224FF0E7
:100D4000E0231A619A61704701460D4A12784A43BE
:100D50004FF0E0235A6100229A6101221A6100BF1C
:100D60004FF0E022106910F0010F02D010F4803F24
:100D7000F6D000224FF0E0231A619A61704700001C
:100D80001E0000202000002010B54FF4A06000F0ED
:100D9000CDF910BD014600BF704700BFCA4A128896
:100DA00012F0400FFAD0C2B2C74B1B1D1A80704719
:100DB00010B586B00446012144F2050000F04EFE55
:100DC0004FF40070ADF8140003208DF816001820C1
:100DD0008DF8170005A9BD4800F004FB4FF48060B2
:100DE000ADF8140004208DF8170005A9B74800F0ED
:100DF000F9FA25208DF8000003208DF801008DF808
:100E0000020001208DF80300684600F094F9019477
:100E10000020ADF80800ADF80A00ADF80C00ADF800
:100E200010000C20ADF80E0001A9A74801F055FFF5
:100E3000012240F22551A44801F0E7FF0121A24818
:100E400001F0D7FF06B010BD9F48008810F0080FD2
:100E500004D09D49091D0988C8B200BF9A4800887E
:100E600010F0800F1ED098480C30008810F0800FD2
:100E700018D0974801780078401C954A1070954822
:100E8000405C9149091D0880104600789249097814
:100E9000884207D18C480C30008820F080008A49B5
:100EA0000C3108808848008810F0200F49D086490E
:100EB000091D0988C8B28949097839B9AA2832D1E7
:100EC000874908700121854A11702CE0834909780F
:100ED00001290BD1AB2805D18149487002217F4AF5
:100EE000117020E000217D4A11701CE07B490978D7
:100EF000022905D17A4988700321784A117012E0DD
:100F000076490978032905D17549C8700421734AC7
:100F1000117008E07249714A127888546F49097853
:100F2000491C6E4A11706E49C978891D6B4A127846
:100F3000914205D10021694A11700121694A11705D
:100F400000BF704710B50446634801780078401C24
:100F5000614A10705F4844545B480C30008810F0C0
:100F6000800F05D1012240F22771574801F04DFF53
:100F7000204610BD31B500249DF801105648027876
:100F80000078401C544B1870524881549DF8002042
:100F9000184601780078401C18704E4842544A4860
:100FA0000C30008810F0800F05D1012240F227712B
:100FB000454801F02AFF9DF801002044C4B29DF885
:100FC00000002044C4B2204638BD31B50024464953
:100FD000009808600846C1783F4802780078401CB5
:100FE0003D4B18703B4881543F4881781846027841
:100FF0000078401C1870374881543B4842781846A6
:1010000001780078401C1870324842543648017804
:10101000184602780078401C18702E4881542A48DF
:101020000C30008810F0800F05D1012240F22771AA
:10103000254801F0EAFE9DF803002044C4B29DF863
:1010400002002044C4B29DF801002044C4B29DF8BF
:1010500000002044C4B2204638BD10B504460FE05D
:1010600020780D2802D1FFF76DFF08E020780A28CC
:1010700002D1FFF767FF02E02078FFF763FF641CEF
:1010800020780028ECD110BD70B505460E4600242E
:1010900000BF0AE0295D104802780078401C0E4B22
:1010A00018700C488154601CC4B2B442F2DB06488C
:1010B0000C30008810F0800F05D1012240F227711A
:1010C000014801F0A2FE70BD003801400008014057
:1010D000250000200201002026000020270000201B
:1010E00002020020280000202C0000200948804730
:1010F00009480047FEE7FEE7FEE7FEE7FEE7FEE7FA
:10110000FEE7FEE7FEE7FEE704480549054A064B11
:101110007047000015030008ED0000088802002059
:1011200088080020880400208804002031490143F9
:10113000314A1160704770B5002100230F22C47836
:101140000CB32D4C246804F4E064C4F5E064210A77
:10115000C1F10403CA40447804FA03F184781440CE
:1011600021430901254C0678A155047804F01F0598
:101170000124AC4005786D114FF0E02606EB8505A3
:10118000C5F8004109E0047804F01F050124AC40D3
:101190001B4D0678761145F8264070BD194A0A4065
:1011A0000243154B1B1F1A60704739B1124A121DBA
:1011B00012680243104B1B1D1A6006E00E4A121DF6
:1011C000126882430C4B1B1D1A607047042808D11B
:1011D0004FF0E021096941F004014FF0E022116174
:1011E00007E04FF0E021096921F004014FF0E0220F
:1011F000116170470000FA050CED00E000E400E02A
:1012000080E100E080FFFF1F002044490860091DC5
:101210000860091D0860091D086041483F491431F4
:101220000860704700213D498279002A3AD00A4679
:10123000126803689A430B461A600A1D1268036815
:101240009A430B1D1A60027911440A6803681A4315
:101250000A60324A0832126803689A432F4B0833F7
:101260001A601A1D126803689A432C4B0C331A60DB
:101270004279102A0ED11A1F126803681A43274BAD
:1012800008331A601A1D126803681A43234B0C3383
:101290001A600DE02149427911440A6803681A4333
:1012A0000A6005E0027911440A6803689A430A60FB
:1012B00070470021016001710C2141710021817191
:1012C00070471649103109680143144A1032116001
:1012D000704701460020114A143212680A4201D0B8
:1012E000012000E0002070470C491431086070476D
:1012F000014600200022094B1B6803EA0102074B4C
:1013000014331B680B4202D00AB1012000E0002018
:101310007047024914310860704700000004014022
:10132000FFFF0F0010B50446CA48844208D10121CE
:10133000042000F0ADFB0021042000F0A9FB46E0F2
:10134000C548844208D10121082000F0A1FB0021FA
:10135000082000F09DFB3AE0C048844208D10121FA
:10136000102000F095FB0021102000F091FB2EE0F2
:10137000BB48844208D10121202000F089FB0021D4
:10138000202000F085FB22E0B648844208D10121EC
:10139000402000F07DFB0021402000F079FB16E0AA
:1013A000B148844208D10121802000F071FB002166
:1013B000802000F06DFB0AE0AC48844207D1012197
:1013C000801500F065FB0021A01500F061FB10BD49
:1013D00010B50121084600F05BFB0021012000F060
:1013E00057FB10BD2DE9F0410246002500260020E4
:1013F00000230024002791F803C00CF00F0591F89A
:1014000003C01CF0100F03D091F802C04CEA050590
:1014100091F800C0BCF1000F31D0146800202BE01F
:101420004FF0010C0CFA00F3B1F800C00CEA03060F
:101430009E4220D183004FF00F0C0CFA03F7BC43FF
:1014400005FA03FC4CEA040491F803C0BCF1280F30
:1014500006D14FF0010C0CFA00FCC2F814C00AE0EF
:1014600091F803C0BCF1480F05D14FF0010C0CFA04
:1014700000FCC2F810C0401C0828D1D31460B1F899
:1014800000C0BCF1FF0F34DD546800202EE000F1F5
:10149000080C4FF0010808FA0CF3B1F800C00CEA90
:1014A00003069E4221D183004FF00F0C0CFA03F784
:1014B000BC4305FA03FC4CEA040491F803C0BCF1F8
:1014C000280F05D100F1080C08FA0CF8C2F81480B6
:1014D00091F803C0BCF1480F07D100F1080C4FF0A0
:1014E000010808FA0CF8C2F81080401C0828CED376
:1014F0005460BDE8F0814FF6FF71018002218170D8
:101500000421C17070470246002093680B4201D04D
:10151000012000E0002070470146886880B27047D3
:1015200002460020D3680B4201D0012000E00020D9
:1015300070470146C86880B27047016170474161D9
:1015400070470AB1016100E041617047C1607047B6
:101550004FF480320A4382618161826182698269CB
:10156000704702460020424B18684FF680731840BF
:1015700040EA021008433E4B186070473D49C8617D
:101580007047F0B50A46002300240021002500F032
:101590000046B6F1004F02D1354EF16901E0344EFC
:1015A0007168C0F3034583B200F44016B6F5401FDE
:1015B00008D121F070612E4E766826F070662C4FAF
:1015C0007E6012E000F48016B6F5801F06D1032677
:1015D00006FA05F4A14341F0706106E0460D3601BC
:1015E00003FA06F6B14341F0706122B1460D3601AF
:1015F00003FA06F6314300F00046B6F1004F02D17F
:101600001B4EF16101E01A4E7160F0BD30B5002251
:101610008B071C0F0F2303FA04F2154B08338C10B1
:1016200053F824309343124C08348D1044F825307D
:1016300023468C1053F824308C07240F00FA04F44E
:1016400023430B4C08348D1044F8253030BD0A4933
:101650000860704700080140000C01400010014084
:101660000014014000180140001C0140002001400E
:101670000000014000002042DC0020420E490860CA
:1016800070470D49486070470B49886070474AF6BB
:10169000AA200949086070474CF6CC40064908600A
:1016A000704701460020044AD2680A4201D0012056
:1016B00000E00020704700000030004010B501211C
:1016C000080700F0F2F900214FF0805000F0EDF92A
:1016D00010BD2949086270472749086170470146D3
:1016E0000020264A106820F0E00008431060704790
:1016F00023490860704710B5024600201F4B186848
:1017000020F00300104318601E4B1B6843F00403D5
:101710001C4C2360012901D130BF00E020BF194BD0
:101720001B6823F00403174C236010BD13480068A6
:1017300040F00400114908600846006840F00200CB
:1017400008601048006840F004000E49086000BFBF
:1017500000BF30BF704701460020084A52680A4265
:1017600001D0012000E0002070470449096841EAE7
:101770008001024A1160704700000E420070004074
:10178000A0000E4210ED00E0DD48006840F00100CE
:10179000DB49086008464068DA490840D849486093
:1017A00008460068D8490840D549086008460068DE
:1017B00020F4802008600846406820F4FE0048605D
:1017C0004FF41F0088607047CD49096821F48031CB
:1017D000CB4A11601146096821F480211160B0F5EF
:1017E000803F03D0B0F5802F0ED106E0C4490968D0
:1017F00041F48031C24A116007E0C149096841F4EF
:10180000A021BF4A116000E000BF00BF704710B5C3
:1018100001460022002300204A11012A02D1B84CBF
:10182000236806E0022A02D1B54C236A01E0B44CD9
:10183000636A01F01F02012494401C4201D0012080
:1018400000E0002010BD38B50020009000240025E5
:1018500000BF3120FFF7DBFF05460098401C0090D9
:101860000098B0F5A06F01D0002DF2D03120FFF725
:10187000CEFF08B1012400E00024204638BD014617
:1018800000209F4A106820F0F80040EAC100106074
:1018900070479E490860704702460020984B586880
:1018A00020F47C1042EA01031843954B58607047BE
:1018B00096490866704701460020914A506820F01A
:1018C00003000843506070478D48406800F00C00EA
:1018D0007047014600208A4A506820F0F000084313
:1018E0005060704701460020854A506820F4E0604F
:1018F00008435060704701460020814A506820F438
:10190000605040EAC1005060704729B17C4A527A69
:1019100002437B4B5A7204E0794A527A8243784BF5
:101920005A7270477A490860704701460020744A2D
:10193000506820F440400843506070470021754AC9
:1019400011706F4A82F82010012802D0042808D1B3
:1019500003E001216F4A117004E005216D4A117006
:1019600000E000BF00BF70476B49086070476449E2
:10197000096A0143624A1162704767494439086045
:10198000704730B500210022002400235C4D6D68B3
:1019900005F00C0121B1042905D0082923D105E067
:1019A0005E4D056022E05D4D05601FE0544D6D68A1
:1019B00005F47012524D6D6805F48034022505EB74
:1019C00092421CB9564D554305600BE04C4D6D6875
:1019D00015F4003F03D0524D5543056002E04F4DD2
:1019E0005543056002E04D4D056000BF00BF444D0A
:1019F0006D6805F0F00109094A4D6B5C0568DD4032
:101A000045603F4D6D6805F4E061090A454D6B5C2A
:101A10004568DD4085603A4D6D6805F46051C90A3E
:101A2000404D6B5C4568DD40C560354D6D6805F423
:101A30004041890B3C4D6B5CC568B5FBF3F5056116
:101A400030BD29B12E4A526902432D4B5A6104E040
:101A50002B4A526982432A4B5A61704729B1284A5E
:101A600092690243264B9A6104E0254A92698243B7
:101A7000234B9A61704729B1214AD2690243204B16
:101A8000DA6104E01E4AD26982431D4BDA61704775
:101A900029B11B4AD2680243194BDA6004E0184AA4
:101AA000D2688243164BDA60704729B1144A126932
:101AB0000243134B1A6104E0114A12698243104B2E
:101AC0001A61704714494039086070470F49C8646B
:101AD00070470B49C87170470948406A40F08070F0
:101AE00007494862704701460020054A92680A4249
:101AF00001D0012000E00020704701498872704742
:101B0000001002400000FFF8FFFFF6FE0000424216
:101B1000D8004242201002408004424200127A0063
:101B200000093D00340000204400002010B50446A8
:101B3000BE48844208D101218014FFF7A9FF00218B
:101B4000A014FFF7A5FF16E0B948844208D101218F
:101B50000014FFF7AAFF00212014FFF7A6FF0AE0F8
:101B6000B448844207D10121C013FFF79EFF002132
:101B7000E013FFF79AFF10BD10B50022028802F4AF
:101B800041520B884C8823438C882343CC882343C1
:101B90000C8923434C8923438C892343CC892343D9
:101BA0001A430280838B4FF2FF74234083830B8A96
:101BB000038210BD2DE9F04F85B005460C464FF06D
:101BC000000902274FF000084FF0010B0026B24633
:101BD000A88B4FF240010840A88302202884B5F862
:101BE0001C90A068022801D100BF38E0A08810B97D
:101BF0004FF0010B01E04FF0020B8D48854200D100
:101C000000E000BF6846FFF7BCFEDDF800A0E088FA
:101C1000B0F5007F0AD14FEA1A2000EB80004000A7
:101C2000A168B0FBF1F0401D86B20BE04FEA4B100B
:101C3000BAFBF0F000EB80004000A168B0FBF1F0CF
:101C4000401D86B20A20B6FBF0F606F00108A6EBAE
:101C50000800C0F34F074FF6FF7000EA0828022F74
:101C600001DBFF2F02DD02274FF00008E08840EA89
:101C7000080038432884A088A18908436188084364
:101C80002188084340F4006040EA0909A5F81C9047
:101C900005B0BDE8F08F0021018041808180C180C6
:101CA000018141818181C181072101827047002129
:101CB000018041808180C180022181600021818179
:101CC000704721B1028842F04002028004E002889D
:101CD0004FF6BF731A400280704721B1828B42F4E5
:101CE0008062828304E0828B4FF6FF331A40828346
:101CF000704730B5002400230C110125A540ABB27C
:101D00001AB185881D43858002E085889D438580C2
:101D100030BD1AB183880B43838002E083888B43F4
:101D20008380704781817047014688897047A1F59B
:101D30007E42FF3A04D0028842F48072028004E0BE
:101D400002884FF6FF631A400280704721B18288F3
:101D500042F00402828004E082884FF6FB731A404E
:101D60008280704702884FF2FF731A400280028817
:101D70000A4302807047018841F480510180704716
:101D800021B1028842F40052028004E002884DF63C
:101D9000FF731A400280704702460020012901D0DB
:101DA000108B00E0908A70470146088A7047B1F5B1
:101DB000804F04D1028842F48042028004E002880D
:101DC0004BF6FF731A4002807047024600201389C9
:101DD0000B4201D0012000E000207047CA4302817D
:101DE0007047F0B50246002000240023002501F0D2
:101DF0000F070126BE40B4B20B1101269E40B3B2BC
:101E0000968806EA03051689264202D00DB1012004
:101E100000E00020F0BD10B5002201F00F04012306
:101E2000A3409AB2D343038110BD000000300140AB
:101E300000380040003C004010B50446FE48844293
:101E400008D10121C014FFF723FE0021E014FFF7A1
:101E50001FFEC4E0B4F1804F08D101210846FFF70E
:101E600024FE00210120FFF720FEB8E0F348844261
:101E700008D101210220FFF718FE00210220FFF700
:101E800014FEACE0EE48844208D101210420FFF7A3
:101E90000CFE00210420FFF708FEA0E0E948844280
:101EA00008D101210820FFF700FE00210820FFF7DC
:101EB000FCFD94E0E448844208D101211020FFF7A2
:101EC000F4FD00211020FFF7F0FD88E0DF48844298
:101ED00008D101212020FFF7E8FD00212020FFF795
:101EE000E4FD7CE0DA48844208D101214014FFF788
:101EF000CFFD00216014FFF7CBFD70E0D548844290
:101F000009D10121C804FFF7C3FD00214FF40020CF
:101F1000FFF7BEFD63E0D048844209D101210805E6
:101F2000FFF7B6FD00214FF48010FFF7B1FD56E03A
:101F3000CA48844209D101214805FFF7A9FD0021C3
:101F40004FF40010FFF7A4FD49E0C548844208D1D2
:101F500001214020FFF7A9FD00214020FFF7A5FD4A
:101F60003DE0C048844208D101218020FFF79DFD5B
:101F700000218020FFF799FD31E0BB48844208D161
:101F800001218015FFF791FD0021A015FFF78DFDC0
:101F900025E0B648844209D101210804FFF778FD05
:101FA00000214FF48030FFF773FD18E0B048844201
:101FB00009D101214804FFF76BFD00214FF40030E7
:101FC000FFF766FD0BE0AB48844208D1012188048D
:101FD000FFF75EFD00214FF48020FFF759FD10BD93
:101FE00000220288944B98420ED0994B98420BD015
:101FF000B0F1804F08D0914B984205D0904B984259
:1020000002D0904B984204D14FF68F731A404B8800
:102010001A438D4B984207D08C4B984204D04FF610
:10202000FF431A40CB881A4302808B8883850B8834
:102030000385814B98420BD0854B984208D08B4B3F
:10204000984205D08A4B984202D08A4B984201D1DF
:102050000B7A038601238382704770B50024002227
:102060000023058C4FF6FE7635400584028C83886C
:10207000048B4FF68F752C40B51E2C400D882C43D9
:10208000751E2A400D892A434D882A436A4DA8426D
:102090000BD06F4DA84208D0744DA84205D0744DA6
:1020A000A84202D0734DA84213D14FF6F7752A40CB
:1020B0004D892A434FF6FB752A408D882A434FF6F7
:1020C000FF652B404FF6FF552B408D892B43CD8963
:1020D0002B4383800483CD888586028470BD70B5D0
:1020E000002400220023058C4FF6EF76354005844E
:1020F000028C8388048B48F6FF752C404FF6FF4511
:102100002C400D884FF6FF7606EA05252C434FF646
:10211000DF752A400D8906EA05152A434D8806EA2F
:1021200005152A43444DA84202D0494DA8421DD16D
:102130004FF67F752A404D894FF6FF7606EA051562
:102140002A434FF6BF752A408D8806EA05152A43B3
:102150004FF6FF352B404FF2FF752B408D8906EA75
:1021600085052B43CD8906EA85052B4383800483AF
:10217000CD880587028470BD70B50024002200233D
:10218000058C4FF6FF6635400584028C8388848B6E
:102190004FF68F752C404FF6FC752C400D882C4364
:1021A0004FF6FF552A400D894FF6FF7606EA0525C2
:1021B0002A434D8806EA05252A431F4DA84202D02E
:1021C000234DA8421DD14FF2FF752A404D894FF68D
:1021D000FF7606EA05252A434FF6FF352A408D880B
:1021E00006EA05252A434EF6FF752B404DF6FF758E
:1021F0002B408D8906EA05152B43CD8906EA051586
:102200002B4383808483CD888587028470BD70B51D
:10221000002200230024058C4EF6FF76354005840D
:10222000038C8488828B48F6FF752A404FF6FF4561
:102230002A400D8820E00000002C014000040040EE
:1022400000080040000C0040001000400014004056
:1022500000340140004C0140005001400054014056
:1022600000180040001C00400020004000400140D9
:1022700000440140004801404FF6FF7606EA05257C
:102280002A434DF6FF752B400D8906EA05352B4391
:102290004D8806EA05352B43FA4DA84202D0FA4D87
:1022A000A84208D14BF6FF752C408D894FF6FF767A
:1022B00006EA85152C4384808283CD88A0F840509F
:1022C000038470BD828B4FF2FF331A408283828B6E
:1022D0004FF6FF7303EA01231A4382837047F0B578
:1022E0000C461546002200210026078C4EF6FF7C86
:1022F00007EA0C070784828B018C4FF6FF7707EA09
:10230000043640F6FF473A404FF6FF7707EA0527C5
:102310003A434FF6FF7707EA03373A43D94FB842BB
:102320000ED0D94FB8420BD0B0F1804F08D0D74F64
:10233000B84205D0D64FB84202D0D64FB84206D1E7
:102340004DF6FF77394046F48057394305E047F6AC
:10235000FF57394044F48057394382830184F0BDEC
:10236000828B4FF6F3731A408283828B0A438283F7
:102370007047F0B50C461546002200210026078C58
:102380004FF6FF6C07EA0C070784828B018C4FF62F
:10239000FF7707EA04264FF60C773A404FF6FF77AF
:1023A00007EA03172F433A43B64FB8420ED0B64F51
:1023B000B8420BD0B0F1804F08D0B44FB84205D02E
:1023C000B34FB84202D0B34FB84206D14FF6FF57D1
:1023D000394046F48077394305E04FF2FF573940E2
:1023E00044F48077394382830184F0BD028B4FF23D
:1023F000FF331A400283028B4FF6FF7303EA012377
:102400001A4302837047F0B50C461546002200219E
:102410000026078C4FF6EF7C07EA0C070784028B37
:10242000018C4FF6FF7707EA041640F6FF473A4063
:102430004FF6FF7707EA03373A434FF6FF7707EA8D
:1024400005273A438F4FB8420ED08F4FB8420BD07A
:10245000B0F1804F08D08D4FB84205D08C4FB842B4
:1024600002D08C4FB84206D14FF6DF77394046F0A4
:102470001007394305E04FF65F77394044F0100705
:10248000394302830184F0BD028B4FF6F3731A4087
:102490000283028B0A4302837047F0B50C4615464F
:1024A00000220021068C4FF6FE773E400684028B08
:1024B000018C4FF60C7632407E1C06EA03162E4342
:1024C0003243704EB0420ED06F4EB0420BD0B0F1DE
:1024D000804F08D06D4EB04205D06D4EB04202D054
:1024E0006C4EB04206D14FF6FD76314044F0010605
:1024F000314305E04FF6F576314044F001063143B3
:1025000002830184F0BD70B505460C465D488542E6
:102510000ED05D4885420BD0B5F1804F08D05B48A6
:10252000854205D05A48854202D05A48854200D19A
:1025300000E000BF208850B92389A288618828461E
:10254000FFF7ABFFE1882846FFF79EFF25E02088D4
:1025500004280AD12389A28861882846FFF753FFFF
:10256000E1882846FFF742FF17E0208808280AD1B3
:102570002389A28861882846FFF7FBFEE188284668
:10258000FFF7EEFE09E02389A28861882846FFF75D
:10259000A6FEE1882846FFF795FE70BD2DE9F041C3
:1025A00005460C4600260127608808B9022600E08F
:1025B0000026A088012801D1022700E001272088F9
:1025C000A0B92389A28861882846FFF766FFE188C1
:1025D0002846FFF759FF23893A4631462846FFF738
:1025E00012FFE1882846FFF701FF13E02389A28844
:1025F00061882846FFF707FFE1882846FFF7F6FEC7
:1026000023893A4631462846FFF747FFE1882846A6
:10261000FFF73AFFBDE8F0810A884B881A438B88A0
:102620001A43CB881A430B891A434B891A438B8967
:102630001A43A0F8442070474FF6FF7181800021B3
:102640000180C1804180017270470021018041807A
:102650008180C180018141818181C18170470021D8
:1026600001804180012181800021C180018170476A
:102670000021018041808180C1800181418181816F
:1026800070470000002C014000340140000400406D
:1026900000080040000C004021B1028842F0010215
:1026A000028004E002884FF6FE731A4002807047F1
:1026B00031B1B0F8442042F40042A0F8442005E0D3
:1026C000B0F84420C2F30E02A0F8442070471AB1BB
:1026D00083890B43838102E083898B438381704725
:1026E0008182704741EA0203A0F8483070471AB16E
:1026F00083890B43838102E083898B438381704705
:1027000001894FF6F8721140018170470A46002195
:1027100001894FF68F73194011430181704730B51D
:1027200004460D4629462046FFF7F0FF208940F079
:102730000700208130BD2DE9F04104460D461646C4
:102740001F46602D06D13B46012231462046FFF749
:102750005AFE05E03B46012231462046FFF79DFE2A
:1027600029462046FFF7D2FF208940F0070020814C
:10277000BDE8F08130B50C4600210189C9B24FF6A1
:10278000FF7505EA0325154325432943018130BD23
:102790002DE9F04105460E4617469846002443466B
:1027A0003A4631462846FFF7E5FF2C894FF6F87088
:1027B000044044F007044FF68F70044044F0700466
:1027C0002C81BDE8F081F0B504460D4616461F4643
:1027D0003B46324629462046FFF7CCFF208940F48D
:1027E00080402081F0BD0185828270470A46002129
:1027F00001884FF68F731940114301807047F0B57F
:102800000C4615461E460021002200230189028B3A
:10281000038C4FF6F877394021434FF6FC473A4096
:1028200040F201173A434FF6DD773B404FF6FF7712
:1028300007EA06172F433B43018102830384F0BD5F
:102840000A460021018B4FF68F7319401143018313
:1028500070470A460021018B48F6FF7319404FF676
:10286000FF7303EA02231943018370470A460021DC
:10287000818B4FF68F7319401143818370470A464D
:102880000021818B48F6FF7319404FF6FF7303EA6E
:10289000022319438183704721B1028842F08002EC
:1028A000028004E002884FF67F731A40028070476E
:1028B00021B1828842F00402828004E082884FF6CF
:1028C000FB731A408280704721B1828842F008026F
:1028D000828004E082884FF6F7731A408280704746
:1028E00021B1828842F00102828004E082884FF6A2
:1028F000FE731A40828070470A460021018B4FF612
:10290000F77319401143018370470A460021018B78
:102910004FF2FF7319404FF6FF7303EA0223194386
:10292000018370470A460021818B4FF6F7731940E7
:102930001143818370470A460021818B4FF2FF7358
:1029400019404FF6FF7303EA02231943818370474E
:102950000A460021018B4FF6FB7319401143018396
:1029600070470A460021018B4FF6FF3319404FF69E
:10297000FF7303EA02231943018370470A460021CB
:10298000818B4FF6FB7319401143818370470A46D0
:102990000021818B4FF6FF3319404FF6FF7303EA96
:1029A00002231943818370470A460021018B4FF6A9
:1029B0007F7319401143018370470A460021018B40
:1029C000C1F30E014FF6FF7303EA0223194301839B
:1029D00070470A460021818B4FF67F7319401143DF
:1029E000818370470A460021818BC1F30E014FF6A7
:1029F000FF7303EA02231943818370470A460021CB
:102A0000018C4FF6FD7319401143018470470A464B
:102A10000021018C4FF6F773194011430184704770
:102A20000A460021018C4FF6DF7319404FF6FF7301
:102A300003EA02131943018470470A460021018CFE
:102A40004FF67F7319404FF6FF7303EA02131943E1
:102A5000018470470A460021018C4FF6FF5319404C
:102A60004FF6FF7303EA02231943018470470A46B5
:102A70000021018C4FF2FF7319404FF6FF7303EAF8
:102A800002231943018470470A460021018C4DF648
:102A9000FF7319404FF6FF7303EA023319430184B1
:102AA000704730B5002301248C40A3B2048C9C43B2
:102AB0000484048C02FA01F5ADB22C43048430BDC9
:102AC00030B5002304248C40A3B2048C9C430484BE
:102AD000048C02FA01F5ADB22C43048430BD70B50C
:102AE0000346002000241846183001258D40ACB262
:102AF0001D8CA5431D8409B1082909D100EB610093
:102B0000056825F0700505600568154305600EE051
:102B10000D1FC5F34E052844056825F4E045056002
:102B200005684FF6FF7606EA02263543056070BD5C
:102B300021B1028842F00202028004E002884FF6CE
:102B4000FD731A400280704721B1028842F00402EE
:102B5000028004E002884FF6FB731A40028070473F
:102B600021B1828842F08002828004E082884FF6A0
:102B70007F731A408280704702884FF6F7731A40BD
:102B8000028002880A430280704782884FF68F7362
:102B90001A40828082880A438280704702894FF6F9
:102BA000F8731A40028102890A4302817047028940
:102BB0004FF67F731A40028102890A4302817047EF
:102BC000818470478185704781867047018770478F
:102BD00081877047A0F84010704702884FF6FF4386
:102BE0001A40028002880A43028070470146888E9C
:102BF00070470146088F70470146888F704701462D
:102C0000B1F8400070470146888C70470146088D36
:102C1000704702460020138A0B4201D0012000E0D9
:102C200000207047CA430282704730B50246002038
:102C300000230024158A05EA0103958905EA0104A9
:102C400013B10CB1012000E0002030BDCA43028264
:102C50007047000010B50446FB48844209D10121A9
:102C60008803FEF715FF00214FF48040FEF710FFA8
:102C700032E0F648844209D101214804FEF715FFED
:102C800000214FF40030FEF710FF25E0F0488442A9
:102C900009D101218804FEF708FF00214FF48020AC
:102CA000FEF703FF18E0EB48844209D10121C80474
:102CB000FEF7FBFE00214FF40020FEF7F6FE0BE0CE
:102CC000E548844208D101210805FEF7EEFE002107
:102CD0004FF48010FEF7E9FE10BD2DE9F04786B0F5
:102CE00005460E460024A24600BFA1460027B08933
:102CF00000B100BF2F462C8A4CF6FF700440F088CC
:102D000004432C82AC894EF6F3100440B08831891C
:102D10000843718908430443AC81AC8A4FF6FF40F5
:102D20000440B0890443AC8201A8FEF72AFEC648DD
:102D3000874202D1DDF810A001E0DDF80CA0A889DF
:102D400010F4004F08D00AEBCA0000EB0A103168FB
:102D50004900B0FBF1F807E00AEBCA0000EB0A10EB
:102D600031688900B0FBF1F86420B8FBF0F0040191
:102D70002009642101FB1089A88910F4004F08D0B4
:102D8000322000EBC900B0FBF1F000F00700044373
:102D900008E0322000EB09106421B0FBF1F000F0F4
:102DA0000F0004432C8106B0BDE8F0874FF41651A4
:102DB000016000218180C18001810C2141810021BD
:102DC0008181704710B502460020108A4FF2FF0340
:102DD00018400B884C8823438C882343CC8823439A
:102DE0001843108210BD0021018041808180C18084
:102DF000704721B1828942F40052828104E08289C5
:102E00004DF6FF731A4082817047F0B503460024E7
:102E1000002600250020A1F510676A3F00D100BF01
:102E20001846C1F3421401F01F06012707FA06F500
:102E3000012C01D10C3004E0022C01D1103000E053
:102E400014301AB107682F43076002E00768AF43E8
:102E50000760F0BD1AB1838A0B43838202E0838A44
:102E60008B4383827047028A4FF6F0731A400282C6
:102E7000028A0A430282704782894FF2FF731A4026
:102E8000828182890A438281704721B1828942F01E
:102E90000202828104E082894FF6FD731A4082812A
:102EA0007047028A4FF6DF731A400282028A0A4391
:102EB0000282704721B1028A42F48042028204E019
:102EC000028A4BF6FF731A4002827047C1F3080270
:102ED0008280704701468888C0F308007047818966
:102EE00041F0010181817047028BD2B20283028BD3
:102EF00042EA012202837047028B02F47F4202837E
:102F0000028B0A430283704721B1828A42F0200279
:102F1000828204E0828A4FF6DF731A408282704711
:102F200021B1828A42F01002828204E0828A4FF646
:102F3000EF731A408282704721B1828A42F0080200
:102F4000828204E0828A4FF6F7731A4082827047C9
:102F500021B1828942F40042828103E08289C2F376
:102F60000E028281704721B1828A42F4006282821D
:102F700004E0828A4FF2FF731A4082827047828A8D
:102F80004FF6FB731A408282828A0A43828270471C
:102F900021B1828A42F00202828204E0828A4FF6E4
:102FA000FD731A408282704702460020B1F5007F0F
:102FB00000D100BF13880B4201D0012000E00020A7
:102FC000704701F40072B2F5007F00D100BFCA4320
:102FD0000280704770B502460024002300250020BF
:102FE000A1F510666A3E00D100BFC1F3421501F0A1
:102FF0001F03012606FA03F3012D02D196893340FF
:1030000006E0022D02D1168A334001E0968A334051
:103010000C12012606FA04F41688344013B10CB1E0
:10302000012000E0002070BD10B500220023A1F5B2
:1030300010646A3C00D100BF0A1201249440A3B27C
:10304000DC43048010BD0000003801400044004013
:1030500000480040004C00400050004010B50121E5
:10306000C802FEF722FD00214FF40060FEF71DFDAF
:1030700010BD0021194A126822F4C0710143174A99
:103080001160704708B5002100911449096821F0CA
:103090007F01009100F07F01009A114300910F4AD7
:1030A0000099116008BD01200D490860704700F0CB
:1030B0007F010A4A121F1160704740F08001074AE1
:1030C000121F116070470548001D0068C0B27047AC
:1030D00000200249091D086070470000042C0040D0
:1030E000A4800542704700000FB4044910B503AA3C
:1030F000029800F03DF810BC5DF814FB3000002091
:103100002DE9F0410E460446002020622046E16889
:10311000884730B3252805D0D4E901219047206A9B
:10312000401CF2E7E168204600278847050018D0D8
:10313000A5F14100192802D820354FF40067324626
:10314000294620462760FDF70BF840B1012804D03E
:10315000F61D26F007060836D8E7361DD6E72846BE
:10316000DAE7206ABDE8F081704770477047704722
:10317000074B70B50D467B4400F011F80446284615
:1031800000F020F810B14FF0FF3070BD204670BD48
:1031900021DCFFFF01694A1C02610878704700B515
:1031A0008FB0CDE901310021059105497944CDE980
:1031B000031011466846FFF7A3FF0FB000BD0000E3
:1031C000E5FFFFFF007B00F080007047754600F0D0
:1031D00029F8AE4605006946534620F007008546AB
:1031E00018B020B5FDF790FFBDE820404FF0000675
:1031F0004FF000074FF000084FF0000B21F00701DF
:10320000AC46ACE8C009ACE8C009ACE8C009ACE821
:10321000C0098D4670470446AFF300802046FCF796
:10322000AEFF000000487047240200204C32000826
:103230000000002048000000280100089432000827
:1032400048000020400800004401000800A24A0491
:103250000000000000000000010203040607080946
:10326000344310100134431010010000000000002E
:10327000000000000000000000000000000000004E
:10328000000000000102030401020304060708090C
:043290000204060826
:04000005080000ED02
:00000001FF
